:020000040800F2
:100000000007002039020008A90D00082108000897
:10001000A70D0008E90200082915000800000000EB
:10002000000000000000000000000000691000084F
:10003000EB02000800000000150E00082111000866
:10004000530200085302000853020008530200083C
:10005000530200085302000853020008530200082C
:10006000530200085302000853020008530200081C
:10007000530200085302000853020008530200080C
:100080005302000853020008530200080000000059
:100090000000000000000000000000005302000803
:1000A00053020008530200085302000853020008DC
:1000B00053020008FD110008530200085302000813
:1000C00053020008530200085302000853020008BC
:1000D00053020008A91200085302000800000000A3
:1000E00053020008530200085302000800000000F9
:1000F00000000000000000000000000053020008A3
:1001000000000000530200085302000853020008D8
:1001100000000000000000000000000000000000DF
:10012000530200085302000853020008530200085B
:100130005302000800000000000000000000000062
:100140000000000000000000000000005302000852
:10015000530200085302000853020008530200082B
:1001600053020008530200080000000000000000D5
:10017000000000000000000000000000000000007F
:100180000000000053020008000000000000000012
:10019000530200085302000800F002F800F03CF897
:1001A0000AA090E8000C82448344AAF10107DA45D2
:1001B00001D100F031F8AFF2090EBAE80F0013F0E8
:1001C000010F18BFFB1A43F0010318471014000079
:1001D00030140000103A24BF78C878C1FAD852070A
:1001E00024BF30C830C144BF04680C6070470000B1
:1001F0000023002400250026103A28BF78C1FBD830
:10020000520728BF30C148BF0B6070471FB501F0CF
:10021000DFF91FBD10B510BD00F033F81146FFF730
:10022000F5FF01F08DF900F051F803B4FFF7F2FF8C
:1002300003BC01F07AF900000948804709480047EB
:10024000FEE7FEE7FEE7FEE7FEE7FEE7FEE7FEE786
:10025000FEE7FEE704480549054A064B70470000E3
:10026000A1110008990100080001002000070020EA
:10027000000300200003002070477047704770475C
:100280007047754600F02CF8AE46050069465346A7
:1002900020F00700854618B020B5FFF7DBFFBDE86A
:1002A00020404FF000064FF000074FF000084FF0DD
:1002B000000B21F00701AC46ACE8C009ACE8C0096E
:1002C000ACE8C009ACE8C0098D46704710B50446DB
:1002D000AFF300802046BDE81040FFF7A6BF000046
:1002E00000487047A0000020FEE7704703480168FF
:1002F000002902D00168491E0160704714000020E7
:10030000F0B585B014461D460A4B1A88121A92B2EF
:100310005B885B1A9BB2084F4FF0100C00263F8899
:10032000CDE9005CCDE90376029400F0A2F905B0B6
:10033000F0BD0000900000203C0000202DE9F041BD
:1003400005460C461646DFF858804FF4805739466C
:10035000404600F063FA052000F0EAF9032000F0BF
:100360004BFEC4F3074000F047FEC4F3072000F043
:1003700043FEE0B200F040FE002405E0FF2000F064
:100380003BFE2855641CA4B2B442F7D3394640461C
:1003900000F042FABDE8F041052000F0C9B90000C4
:1003A0000004024030B4044610460D461A46217837
:1003B00020281DD009DC0C2812D0102814D01828B1
:1003C0001ED1104801FB020106E0302814D040285D
:1003D00016D10D4801FB0201284630BCFFF7AEBF25
:1003E000514301F50021F7E7084801FB0201F3E75B
:1003F000074801FB0201EFE7064801FB0201EBE7BA
:1004000030BC704700120800009208000008080085
:10041000002608000048080030B4054608462C783D
:100420006978812C0AD3402908D3FF2906D0FF2CF4
:1004300004D07F290DD24039CDB20CE0002100223A
:1004400003E000F8012B491C89B29942F9D330BC72
:1004500070474139CDB2813CE1B2C1EB411404EBAC
:10046000811105EB410159430C2A0BD0102A0CD005
:10047000182A0DD0202AEAD101F5601130BC1A46A5
:10048000FFF75CBF044A1144F8E7044A1144F5E75A
:1004900001F5ED11F2E700000014090000DD110084
:1004A000AFF3008070B586B04FF6FF7000F0BAF978
:1004B000002000246D462C54401CC0B21828FAD3EA
:1004C000112200216846FFF739FF4FF478461021CA
:1004D0006B4632460846FFF713FF00202C54401CA1
:1004E000C0B21828FAD3082214216846FFF726FF65
:1004F0006B46324620211020FFF702FF00202C54CB
:10050000401CC0B21828FAD308221E216846FFF703
:1005100015FF6B46324630211020FFF7F1FEC82050
:1005200001F004F806B070BD2DE9F04FC1B082466D
:100530000D4616461C46A946600701D0012000E082
:10054000002000EBD40B60080BFB00FB0C2C09D047
:10055000102C07D0182C05D0202C03D0302C01D023
:10056000402C33D15B46224601A93046FFF71AFFE3
:100570004FF0000828E001A810F80870002638069F
:1005800005D5294650464A9A00F0CCF906E04C9829
:1005900020B9294650464B9A00F0C4F97806070E58
:1005A0006D1CADB2A5EB0900A04205D14D460AF184
:1005B000010A1FFA8AFA03E0761CB6B2082EDED3CF
:1005C00008F101081FFA88F8D845D4D341B0BDE836
:1005D000F08F2DE9F04FA1B082460C4615461F461C
:1005E000A146780701D0012000E0002000EBD70BE6
:1005F0000BFB07FB0C2F05D0102F03D0182F01D0B9
:10060000202F33D15B463A4601A92846FFF704FF65
:100610004FF0000828E001A810F808600025300617
:1006200005D5214650462A9A00F07CF906E02C9820
:1006300020B9214650462B9A00F074F97006060E38
:10064000641CA4B2A4EB0900B84205D14C460AF1DF
:10065000010A1FFA8AFA03E06D1CEDB2082DDED301
:1006600008F1010808F0FF08D845D4D321B0BDE84F
:10067000F08F2DE9FF4F83B00446DDE910750E467B
:100680009346A046B2464FF0000920E0B9F1000FB2
:1006900023D04FF0000908EB0B00401BA04202DA08
:1006A000701986B2444606985044401BB04211DB94
:1006B000DDE912121498CDE9001202902B463A4659
:1006C00031462046FFF785FFBF1C601984B2387899
:1006D0000028DBD107B0BDE8F08F802802D94FF0A9
:1006E0000109F4E708EB0B01A1EB5501A14202DA85
:1006F00071198EB2444606995144491BB142E9DB57
:100700000D2810D0DDE912121498CDE900120290E4
:100710002B463A4631462046FFF706FF7F1C04EB86
:10072000550084B2D3E7701986B244467F1CF5E7C2
:10073000002206E00021491CC9B26429FBD3521CE7
:10074000D2B28242F6D370471CB50121042000F0DA
:1007500063FB4FF40050009000208DF8050001214C
:100760008DF804108DF806008DF8070069460248E0
:1007700000F004F81CBD0000000802402DE9F04123
:10078000002201274FF0030C07FA02F50B682B40FB
:10079000AB422CD1066853000CFA03F4A643066062
:1007A0000E79D0F800809E4046EA080606600E7971
:1007B000012E01D0022E12D18668A64386604E79A2
:1007C000D0F808809E4046EA080686604668AE4338
:1007D000466045688E799640B6B235434560C56837
:1007E000A543C560CC799C40C3681C43C460521CBF
:1007F000102AC9D3BDE8F08110B54B07DB0E9A4033
:10080000C90800EB8100016A0F249C40A1430162EA
:10081000016A1143016210BD418370470183704733
:10082000FEE700002DE9F041074600240C4E0021B0
:1008300008467388328800F00BFA35887088454383
:100840000021084600F0D8F900F09EFA03E038468F
:1008500000F04EFA641CAC42F9D3BDE8F081000010
:10086000900000202DE9F041002680212C222A232F
:100870002A4D2B4C4FF02B0C00281AD0012825D0E4
:10088000012702282FD003283AD0A6712180618049
:1008900022816381A4F80CC0C821362000F07AFAC6
:1008A0002E7063882288BDE8F0410021084600F0E0
:1008B000CFB9A6712180618022816381A4F80CC028
:1008C000C821362000F066FA2E70EAE7A671218072
:1008D000618022816381A4F80CC04821362000F099
:1008E00059FA2E70DDE7A771218061802281638132
:1008F000A4F80CC0A821362000F04CFA2F70D0E7E5
:10090000A7712180618022816381A4F80CC06821D5
:10091000362000F03FFA2F70C3E7000038000020B7
:100920009000002010B5144600F066F904480089D4
:1009300000F012FA2046BDE8104000F0D9B90000DE
:10094000900000201CB50121022000F065FA41F260
:100950000440009001208DF8040000218DF806105D
:1009600003218DF805108DF80700074C69462046D5
:10097000FFF704FF00F0E0FA00F008F82115204628
:10098000FFF74CFF1CBD00000004024010B5094CED
:100990004FF480412046FFF73FFF322000F0C6FDB4
:1009A00004212046FFF73AFFBDE810401E2000F06A
:1009B000BDBD00000004024010B5FFF7C3FF00F00A
:1009C0008DF9112000F0C8F9782000F0AFFDB120BA
:1009D00000F0C2F9012000F0A7F92C2000F0A4F9E2
:1009E0002D2000F0A1F9B22000F0B6F9012000F0AE
:1009F0009BF92C2000F098F92D2000F095F9B320F8
:100A000000F0AAF9012000F08FF92C2000F08CF9F9
:100A10002D2000F089F9012000F086F92C2000F04B
:100A200083F92D2000F080F9B42000F095F907201B
:100A300000F07AF9C02000F08FF9A22000F074F9DC
:100A4000022000F071F9842000F06EF9C12000F05E
:100A500083F9C52000F068F9C22000F07DF90A2072
:100A600000F062F9002000F05FF9C32000F074F993
:100A70008A2000F059F92A2000F056F9C42000F02D
:100A80006BF98A2000F050F9EE2000F04DF9C520F6
:100A900000F062F90E2000F047F9362000F05CF912
:100AA000C82000F041F9E02000F056F90F2000F0D6
:100AB0003BF91A2000F038F90F2000F035F9182022
:100AC00000F032F92F2000F02FF9282000F02CF947
:100AD000202000F029F9222000F026F91F2000F044
:100AE00023F91B2000F020F9232000F01DF9372006
:100AF00000F01AF9002000F017F9072000F014F9AF
:100B0000022000F011F9102000F00EF9E12000F0B1
:100B100023F90F2000F008F91B2000F005F90F2041
:100B200000F002F9172000F0FFF8332000F0FCF885
:100B30002C2000F0F9F8292000F0F6F82E2000F023
:100B4000F3F8302000F0F0F8302000F0EDF8392014
:100B500000F0EAF83F2000F0E7F8002000F0E4F8A9
:100B6000072000F0E1F8032000F0DEF8102000F08C
:100B7000DBF82A2000F0F0F8002000F0D5F8002083
:100B800000F0D2F8002000F0CFF87F2000F0CCF881
:100B90002B2000F0E1F8002000F0C6F8002000F063
:100BA000C3F8002000F0C0F89F2000F0BDF8F0204E
:100BB00000F0D2F8012000F0B7F8F62000F0CCF8F1
:100BC000002000F0B1F83A2000F0C6F8052000F04F
:100BD000ABF8292000F0C0F80020FFF743FE4FF4E7
:100BE00080610448FFF71AFEBDE810404FF6FF7021
:100BF000FFF718BE0004024070B506460D461248C5
:100C0000124C0178608900290ED000F0A5F8F61C7E
:100C1000B0B200F06DF8A08900F09EF8AD1CA8B24B
:100C2000BDE8704000F064B800F096F8B61CB0B2B1
:100C300000F05EF8A08900F08FF8ED1CA8B2BDE8C6
:100C4000704000F055B800003800002090000020EF
:100C50002DE9F04104460D46A018401E86B2E81862
:100C6000401E87B21B48DFF870800178B8F80A0090
:100C7000002917D000F070F8E41CA0B200F038F89A
:100C8000F61CB0B200F034F8B8F80C0000F064F8CC
:100C9000AD1CA8B200F02CF8BF1CB8B2BDE8F04102
:100CA00000F026B800F058F8A41CA0B200F020F81C
:100CB000B61CB0B200F01CF8B8F80C0000F04CF80C
:100CC000ED1CA8B200F014F8FF1CB8B2BDE8F0416A
:100CD00000F00EB8380000209000002010B5012070
:100CE00000F03AF8BDE81040322000F01FBC0000D0
:100CF00070B504460B4E4FF4805529463046FFF739
:100D00008BFD04213046FFF789FD200A00F074F9BD
:100D1000E0B200F071F929463046BDE87040FFF7B7
:100D20007DBD00000004024070B50646094D4FF439
:100D3000805421462846FFF76FFD04212846FFF71F
:100D40006DFD304600F058F921462846BDE8704058
:100D5000FFF764BD0004024070B50446094E4FF42D
:100D6000805529463046FFF757FD04213046FFF7EE
:100D700053FDE0B200F040F929463046BDE870402E
:100D8000FFF74CBD0004024001480089FFF7E4BFB3
:100D90009000002010B50C46FFF7DEFFE0B2BDE882
:100DA0001040FFF7C1BFFEE77047000030B50F23CA
:100DB000C27801250178002A1FD0154A126802F472
:100DC000E062C2F5E062C2F30722C2F10404D3403C
:100DD0004278A24084781C401443220101F1E021B2
:100DE00081F80024007800F01F018D404009800048
:100DF00000F1E020C0F8005130BD01F01F00854037
:100E00004809800000F1E020C0F8805130BD0000AA
:100E10000CED00E070470000054A002903D011687E
:100E200001431160704711688143116070470000F1
:100E300030380240054A002903D01168014311608F
:100E400070471168814311607047000040380240CC
:100E5000054A002903D011680143116070471168E9
:100E6000814311607047000020380240054A002984
:100E700003D011680143116070471168814311600C
:100E800070470000443802400149C86470470000C0
:100E90000000474270B5244B196801F00C01234C47
:100EA00000291ED0224E04291DD008291DD004601F
:100EB000196801F0F00109091E4A545C0168E1401B
:100EC00041601C6804F4E054A40A145D21FA04F49F
:100ED00084601B6803F460435B0BD25CD140C1604B
:100EE00070BD0460E4E70660E2E70F4A121F116874
:100EF000C1F38055116801F03F0135B1B6FBF1F146
:100F00001468C4F38814614305E0B4FBF1F114687C
:100F1000C4F3881461431268C2F30142521C5200A8
:100F2000B1FBF2F10160C3E7083802400024F4008D
:100F300040787D01280000202DE9F04188B0012192
:100F40000220FFF769FF01218F033846FFF772FF88
:100F50004FF46040069002258DF81C5000248DF857
:100F60001E408DF81D5001268DF81F60DFF880802F
:100F700006A94046FFF702FC05220D214046FFF777
:100F80003BFC05220E214046FFF736FC05220F21CF
:100F90004046FFF731FC01213846FFF759FF002199
:100FA0003846FFF755FFADF804404FF48270ADF8B6
:100FB0000600ADF80840ADF80A50ADF80C60280204
:100FC000ADF80E00ADF81040ADF812400720ADF8B6
:100FD0001400084C01A9204600F02AF801212046FF
:100FE00000F01AF8FF2000F007F808B0BDE8F08123
:100FF000000402400038004006490A889207FCD5E8
:10100000044A121D10800888C007FCD01088C0B2A6
:101010007047000008380040002904D0018841F0E2
:10102000400101807047018821F040010180704734
:1010300030B5028802F441530A884C88CD88224397
:101040008C882C4322430C8922434C8922438C896F
:101050002243CC8922431A430280828B22F400620D
:101060008283098A018230BD704700000CB50022DE
:10107000019200922649086840F4803008604FF4DD
:10108000A043086800F4003000900198401C0190D3
:10109000009810B901989842F3D10868800302D5EE
:1010A0000120009000E00092009801282FD11848FC
:1010B0004030026842F0805202601648026842F4F2
:1010C0004042026012480830026802600268026012
:1010D000026842F480520260031F0F4A1A600A68D5
:1010E00042F080720A600A689201FCD50B4940F216
:1010F00002720A60016821F003010160016841F099
:10110000020101600168C1F381010229FAD10CBD1D
:10111000003802400070004019304004003C02409A
:10112000FFF7E4B870B50022194D286800F00C00F4
:10113000184B194900280FD0184E04280ED0082843
:101140000ED00B602868144AC0F30310121D105C07
:101150000A68C2400A6070BD0B60F3E70E60F1E7F9
:101160000B48001F0368C3F38053046804F03F0476
:101170002BB1B6FBF4F20368C3F388135A4300683B
:10118000C0F30140401C4000B2FBF0F00860D9E71A
:10119000083802400024F4000000002040787D015F
:1011A00010B51248016841F47001016010480168EF
:1011B00041F0010101600E4A00210832116002680D
:1011C0000C4B1A400260031D0B4A1A60026822F49D
:1011D0008022026006480C300160FFF747FF034998
:1011E0004FF000608039086010BD000088ED00E01D
:1011F00000380240FFFFF6FE1030002410B5084C06
:101200000121204600F043F8002807D001212046A4
:1012100000F03AF8BDE8104000F004B810BD00003E
:10122000000400401649002308464A788088002AB6
:1012300004D0401E80B2888048B109E0401C80B2D2
:101240008880B0F57A5F03D30120487000E04B70CE
:1012500088884FF4A072B0FBF2F0C2B20A708878AE
:10126000322801D98B7001E0401C88708B780548CA
:101270004FF40051934201D3FFF7D0BAFFF7CCBA35
:101280001800002000080240C9430182704702464E
:101290000020138A0B4092890A40002B02D0002ABA
:1012A00000D001207047000010B5144C40F22551C9
:1012B000204600F09BF800281FD0204600F030F9AF
:1012C0000F4A516801F8010B51605088401C80B2F0
:1012D00050800C49402802D951600020508050882D
:1012E00001280AD9084410F8021C0D2905D110F86C
:1012F000010C0A2801D10120107010BD001001401E
:101300002000002050000020F0B587B005462C4892
:101310002A49416001210846FFF77EFD0121102086
:10132000FFF7A4FD274F072209213846FFF764FA8B
:1013300007220A213846FFF75FFA4FF4C060059094
:1013400002218DF818108DF8191000248DF81A401C
:1013500001268DF81B6005A93846FFF70FFA0195A5
:10136000ADF80840ADF80A40ADF80C40ADF81040BB
:101370000C20ADF80E00144C01A9204600F072F8C4
:101380000121204600F026F84021204600F01EF8FA
:10139000012240F22551204600F048F825208DF822
:1013A000000003208DF801008DF802008DF8036025
:1013B0006846FFF7FBFC07B0F0BD000050000020BE
:1013C0002000002000000240001001408A05C943AF
:1013D00001807047002904D0818941F40051818146
:1013E0007047818921F400518181704770B50024D4
:1013F00040F66A12C1F3421301F01F05012606FAF6
:1014000005F2012B0CD0022B0DD0838A1340090A60
:101410008E40008830400BB100B10124204670BDE1
:1014200083891340F3E7038A1340F0E710B540F6D1
:101430006A13C1F3421301F01F040121A140012BE3
:1014400007D0022B07D014303AB102680A43026079
:1014500010BD0C30F8E71030F6E702688A430260EE
:1014600010BD00007FB504460D46208A20F440518F
:10147000E88808432082A08941F20C618843A9884A
:101480002A8911436A8902431143A181A08A20F469
:101490004071A8890843A0826846FFF7FBFC1E48FC
:1014A000844202D01D48844201D1039800E0029892
:1014B000A189090408D500EBC00101EB00102968DF
:1014C0004900B0FBF1F007E000EBC00101EB0010B8
:1014D00029688900B0FBF1F06422B0FBF2F1090148
:1014E0000B096FF018056B4300EB8300A3891D0403
:1014F0004FF0320307D503EBC000B0FBF2F000F071
:101500000700084306E003EB0010B0FBF2F000F028
:101510000F00084320817FBD0010014000140140EE
:101520008088C0F308007047FEE7704701B50348A4
:101530000099016001680029FCD108BD1400002059
:101540000120FFF7A1FCFFF7EDFD1E48FFF7A2FC0D
:101550001C484FF47A714068B0FBF1F0401EB0F1C6
:10156000807F09D24FF0E0214861174AF0201070C7
:1015700000208861072008613220FFF7D7FFFFF7BE
:10158000E3F84FF4E130FFF7BFFEFFF715FAFEF77F
:1015900087FF4FF6FF70FFF745F90C4D4FF40054ED
:1015A0004FF4FA7621462846FFF736F93046FFF722
:1015B000BDFF21462846FFF731F93046FFF7B6FF59
:1015C000F0E700004000002023ED00E000080240AA
:1015D0004FF04070E1EE100A70470000FC15000863
:1015E0000000002040000000D40100083C16000864
:1015F00040000020C0060000F001000800D8B80537
:1016000000000000000000000102030406070809B2
:1016100000000000000000000000000000000000CA
:1016200000000000000000000102030401020304A6
:0C1630000607080900000000FFFF000092
:040000050800019955
:00000001FF
