:020000040800F2
:1000000090080020AD0100082B2B0008C31A00083F
:10001000292B0008790D0008A94100080000000004
:100020000000000000000000000000005D38000833
:10003000E90E000800000000893400088D3A00082D
:10004000C7010008C7010008C70100080D360008F5
:10005000C7010008C7010008C7010008C701000860
:10006000C7010008C7010008C7010008C701000850
:10007000C7010008C7010008C7010008C701000840
:10008000C7010008C7010008C70100080000000000
:10009000000000000000000000000000C701000890
:1000A000C7010008C7010008C7010008C701000810
:1000B000C7010008C7010008C7010008C701000800
:1000C000C7010008C7010008C7010008C7010008F0
:1000D000C7010008E93E0008113F000800000000C9
:1000E000C7010008A1350008C70100080000000092
:1000F000000000000000000000000000C701000830
:1001000000000000C70100081D3C0008C7010008EE
:1001100000000000000000000000000000000000DF
:10012000C7010008C7010008C7010008C70100088F
:10013000C7010008000000000000000000000000EF
:10014000000000000000000000000000C7010008DF
:10015000C7010008C7010008C7010008C70100085F
:10016000C7010008C70100080000000000000000EF
:10017000000000000000000000000000000000007F
:1001800000000000C701000800000000000000009F
:10019000C7010008C7010008DFF80CD000F016FC0A
:1001A0000048004785600008900800200648804706
:1001B00006480047FEE7FEE7FEE7FEE7FEE7FEE74C
:1001C000FEE7FEE7FEE7FEE7913A00089901000826
:1001D000A0F14101192900D82030704740EA0103FD
:1001E0009B0703D009E008C9121F08C0042AFAD2ED
:1001F00003E011F8013B00F8013B521EF9D27047B1
:10020000D2B201E000F8012B491EFBD27047002258
:10021000F6E710B513460A4604461946FFF7F0FF05
:10022000204610BD30B505462A460B4612F8010B94
:1002300013F8014B08B1A042F8D01CB1002802D03D
:100240006D1CF1E7284630BDCAB2401E10F8011FF0
:100250008A4202D00029F9D100207047421C10F8D0
:10026000011B0029FBD1801A704710B5044600E03D
:10027000401C0378002BFBD100E0401C521E04D32D
:1002800011F8013B0370002BF7D1002101702046CB
:1002900010BD30B505460020034600E05B1C9342CC
:1002A00005D2EC5CC85C201A01D1002CF6D130BD1F
:1002B00070B5064604F008F8046805460A220021D5
:1002C000304600F087FA2C6070BD2DE9FE4F804665
:1002D00081EA0300C00F0C46009021F0004123F09A
:1002E0000045B8EB0200A94105D2404621469046A0
:1002F0001C460B46024623F00040104347D0270D12
:10030000C7F30A00C3F30A510290401A0190402833
:100310006BDAC3F3130040F4801B0098924620B1BF
:100320000023D2EB030A63EB0B0B01985946C0F193
:100330004002504600F01DFA06460D46504659460A
:10034000019A00F035FA10EB08006141002487EAB9
:10035000115284EAE7731A4340D0009A62B3019ABB
:10036000012A4FEA075215DC001B61EB02014FF036
:10037000004202EA0752CDE90042001C41F580111B
:1003800032462B4600F0A4FA03B0BDE8F08F404699
:100390002146F9E7001B61EB0201001C41F58013C7
:1003A00000185B412018A2F5001747EB030140EA53
:1003B000D570B6196D4111E06D084FEA360645EA71
:1003C000C0754FEA0752001B61EB0201001C41F5AA
:1003D000801149084FEA30000019514132462B463E
:1003E00003B0BDE8F04F00F064BA0098012240006D
:1003F0000023D0EB020263EBE073009821464FEA42
:10040000E074B8EB000061EB0401E9E783F000431E
:100410005BE781F0004158E72DE9FE4F81EA0304D4
:1004200004F0004421F0004100944FF0000B23F051
:10043000004350EA01045ED052EA03045BD0C3F3E8
:100440000A54C1F30A552C44A4F2F3340194A0FBDE
:100450000254C1F3130141F48011C3F3130343F4B5
:10046000801301FB024400FB034E840A970A44EA0E
:10047000815447EA8357A4FB076802958D0A05FB60
:1004800007854FEA932C04FB0C542705029D4FEA85
:10049000065847EA1637B5EB08056EEB070C870ED2
:1004A000920E47EA811742EA8312A7FB0201B6EBDC
:1004B0000B0164EB00042B0D43EA0C335E1844EB94
:1004C0001C50DA465146E7FB0201C5F313044FEA1C
:1004D0000B3343EA14534FEA0432019C43EA060308
:1004E000A4F10C040294009CCDE900B400F0F0F9F2
:1004F00003B0BDE8F08F00200146F9E72DE9F04D8B
:1005000081EA030404F0004B21F0004514464FF04B
:10051000000A23F0004150EA050220D054EA01020B
:100520001DD0C5F30A570246C5F31303C1F31300E8
:10053000C1F30A5640F4801543F48013A7EB060874
:10054000101BD64608F2FD3873EB050002D308F104
:10055000010801E092185B41B8F1000F03DA0020B6
:100560000146BDE8F08D00204FF480110646844618
:100570000EE0171B73EB050705D3121B63EB050396
:1005800006434CEA010C49084FEA300092185B41DF
:1005900050EA0107EDD152EA030012D082EA0400CA
:1005A00083EA0501084305D0101BAB4106D20122A6
:1005B000002306E000224FF0004302E06FF001024A
:1005C00053101AEB06004CEB085110EB0A0041EBFC
:1005D0000B01BDE8F04D00F06CB90EB5C10F80EA1B
:1005E000E0700844CA07002140F233438DE80E0052
:1005F0000A460B4600F06CF903B000BD0EB540F2A0
:10060000334102910021CDE900110A460B4600F06A
:100610005FF903B000BD70B5C1F30A5201F00045A7
:100620000024C1F3130140F2FF3341F480119A42D8
:1006300001DA002070BD40F233439A42A2F2334205
:1006400003DC524200F0A4F800E090402C43F1D0CB
:10065000404270BD00F0004230F000400AD0C10DB1
:1006600001F56071C0F3160042EA0151C20840076B
:1006700011437047002001467047000030B5041E4A
:1006800071F1000404DB4FF00044404264EB0101CF
:10069000141E73F1000405DB1C464FF00043524268
:1006A00063EB0403994208BF904230BD01F0004360
:1006B00030B421F0004150EA010206D00A0DA2F543
:1006C0006072C1F31301002A02DC30BC00207047C5
:1006D000440F44EAC104C100E01830BC00EBC25032
:1006E00000F0B0B830B50B460146002020220124AE
:1006F00009E021FA02F59D4205D303FA02F5491BF0
:1007000004FA02F52844151EA2F10102F1DC30BD05
:100710002DE9F05F0546002092469B468846064636
:10072000814640241BE0284641464746224600F0C9
:100730002FF853465A46C01A914110D31146184615
:10074000224600F016F82D1A67EB01084F462246A4
:100750000120002100F00DF817EB00094E41201E8A
:10076000A4F10104DFDC484631462A464346BDE891
:10077000F09F202A04DB203A00FA02F100207047A3
:100780009140C2F1200320FA03F3194390407047CF
:10079000202A04DB203A21FA02F00021704721FAD6
:1007A00002F3D040C2F1200291400843194670473D
:1007B000202A06DBCB17203A41FA02F043EAE07325
:1007C00006E041FA02F3D040C2F120029140084312
:1007D000194670472DE9F04791460F46804604467A
:1007E000002614F8015B2DB100F002F90068405DAD
:1007F000C007F6D12B2D02D02D2D18D0641E4A46ED
:100800003946204600F0F8F827B13968A14201D1F5
:10081000C7F8008071054FF002040BD54042002854
:1008200003DD03F051FD0460A007BDE8F08746F446
:100830008066E4E70028F8DA03F046FD04606FF014
:100840000040F2E70029A8BF7047401C490008BFDC
:1008500020F00100704710B4B0FA80FC00FA0CF0F0
:1008600050EA010404BF10BC704749B1CCF1200428
:1008700021FA04F411FA0CF118BF012121430843B5
:10088000A3EB0C01CB1D4FEA00614FEA102042BFE1
:10089000002010BC704700EBC35010440029A4BFD7
:1008A00010BC7047401C490008BF20F0010010BC7C
:1008B000704710B5141E73F1000408DA401C41F1B2
:1008C000000192185B411A4301D120F0010010BDD4
:1008D0002DE9F04D92469B4611B1B1FA81F202E04A
:1008E000B0FA80F220329046FFF743FF04460F46ED
:1008F00040EA0A0041EA0B0153465A46084313D026
:10090000114653EA010019D0C8F140025046FFF7E2
:100910003FFF05460E46504659464246FFF729FF1F
:10092000084305D0012004E020463946BDE8F08D9B
:100930000020054346EAE0762C4337430A986305D6
:10094000E40AA0EB08000022FD0A44EA47540A30FA
:1009500002D500200146E9E7010510196941DDE9EA
:10096000084500196941BDE8F04DA2E770B521F0D6
:10097000004303430CD0C1F30A550024D5EB040512
:1009800064EB0403D617AD1AB34102DB0020014625
:1009900070BD201841EB025170BDC1F30A52C1F382
:1009A000130140F2FF3341F480119A4202DA002031
:1009B0000146704740F233439A42A2F2334202DCCE
:1009C0005242FFF7E5BEFFF7D4BE0000064C074DCC
:1009D00006E0E06840F0010394E80700984710340F
:1009E000AC42F6D3FFF7DCFB1C9000083C900008FB
:1009F00000487047A48F00082DE9F05F8246007818
:100A0000002715468B460AF10104B946302801D06B
:100A10009DB113E014F8010B0127782803D0582862
:100A200001D045B10AE00DB1102D07D100271025E6
:100A300014F8010B02E0082500E00A250026B04664
:100A40000EE005FB080005FB06F1012701EB10464F
:100A50001FFA80F8B6F5803F00D3B94614F8010BB1
:100A6000294600F069F80028EBDABBF1000F05D049
:100A70000FB1641E00E05446CBF80040B9F1000FFE
:100A800006D003F021FC02210160C81EBDE8F09FE2
:100A900048EA0640FAE72DE9F04D00231A461B1AF2
:100AA0008A4103DB00200146BDE8F08DC1F30A5204
:100AB000C1F3130141F480154FF0000BD10702D1AF
:100AC00000186D41521E0027044640F2FF113846BF
:100AD00001EB620A3E468046024600204FF4801138
:100AE000FFF756FEC2197141BB1846EB0100B4EB8B
:100AF000030C75EB000C04D3E41A65EB00051746F4
:100B00000E46241908F101006D4180463428E3DDCA
:100B1000F91946EB0600091BA84103D24FF0FF323A
:100B2000134601E0002213461BEB070046EB0A5177
:100B3000BDE8F04DFFF7BDBE3A2800D2303820F0B6
:100B40002002412A01D3A2F13700884201D34FF09D
:100B5000FF307047002904D0816841F001018160B5
:100B60007047816821F001018160704710B5074C22
:100B7000226807490A40D0E900131943D0E902303E
:100B8000034319431143216010BD000004230140B9
:100B9000E030FCFFC06C80B2704702460020126853
:100BA0000A4200D00120704730B542680F4B1A400E
:100BB0000C790B6842EA04221343436083680C4AB1
:100BC0001340D1E9034222434D798C6844EA45043D
:100BD00022431A438260C26A22F47002097D491ED0
:100BE000C9B242EA0151C16230BD0000FFFEFFFC04
:100BF000FDF7FFC070B5072609290AD9C568A1F11C
:100C00000A0404EB4404A640B543A3401D43C56059
:100C100007E0056901EB4104A640B543A3401D432D
:100C200005611F23072A09D2446B521E02EB820280
:100C300093409C4391400C43446370BD0D2A09D2FC
:100C4000046BD21F02EB820293409C4391400C4301
:100C5000046370BDC46A0D3A02EB820293409C4368
:100C600091400C43C46270BD816841F08041816055
:100C70007047000030B58DB00121084602F006FC37
:100C80000121080202F02CFC03208DF83000012520
:100C90008DF832500B9000248DF833408DF83100E0
:100CA0000BA9114800F056FE039401944FF4403014
:100CB00002904FF47060049001A8FFF757FF8DF881
:100CC00019400994089407948DF8285005948DF8DC
:100CD0001840064C05A92046FFF766FF0121204673
:100CE000FFF738FF0DB030BD00000240002001408A
:100CF00010B5044605F076F9462005F047F905F0F1
:100D0000A1F901280AD0204605F040F905F09AF92A
:100D1000012805D005F082F9002010BD012010BD8A
:100D2000022010BD10B500F008F81020FFF7E0FF1A
:100D3000BDE81040782004F0F1BF0120FFF7D8BFD4
:100D400010B505F04FF9472005F020F905F07AF9C4
:100D500001280FD005F0F8F8044605F0ABF805F0CF
:100D6000F3F800EB042084B205F0D6F805F056F94C
:100D7000204610BD002010BDFEE700002DE9F04325
:100D80008146884615461E4600240B4F04EB04118D
:100D900017F81100A84209D107EB41014878B04289
:100DA00004D1891C4246484600F02AF8641CA4B2CB
:100DB000382CEBD3BDE8F083BB8600082DE9F04367
:100DC0008146884615461E4600240C4F04EB8400DD
:100DD00000EB441017F81010A94209D107EB4001AD
:100DE0004878B04204D1891C4246484600F008F8D1
:100DF000641CA4B2092CE9D3BDE8F083A58B0008DC
:100E000010B5002304E011F8014B00F8014B5B1C06
:100E10009342F8D310BD00000FB430B5CBB001AC95
:100E20004FAB4FF4947101A84E9A03F01FFA0020C3
:100E300000900CA003F0D4F90D4D09E0641C284685
:100E400003F050F94021284603F0A8F80028F9D013
:100E500021780029F2D107A003F0C2F94BB030BCD1
:100E60005DF814FB5B4C4F475D202F3E20000000D7
:100E7000001001400D0A00001CB50121084602F0D7
:100E80002FFB1020009001208DF8040002208DF827
:100E90000500054C6946204600F05CFD1021204607
:100EA00000F0AFFD1CBD0000000002401CB510208A
:100EB000009000208DF804006946024800F04AFDC9
:100EC0001CBD0000000002401CB510200090012055
:100ED0008DF8040002208DF805006946014800F0F5
:100EE00039FD1CBD0000024070470000F0B585B020
:100EF00014461D460A4B1A88121A92B25B885B1A76
:100F00009BB2084F4FF0100C00263F88CDE9005CE3
:100F1000CDE90376029400F05FFC05B0F0BD00005F
:100F2000000200207A0000202DE9FF4114461D46F2
:100F3000084B1A88121A92B25B885B1A9BB2002681
:100F40001027CDE90057CDE9024602F037FDBDE894
:100F5000FF8100000002002010B580210348FFF748
:100F600056F903490020088010BD00000E02002041
:100F70008800002010B5044600F0D4F988B90EA10D
:100F80000F48FFF74FF948B13A21FFF75DF988B1F3
:100F9000441C0CA0FFF740FF204610BD0DA0FFF73A
:100FA0003BFF052004F0BAFE641EA4B2002CE3D17E
:100FB000002010BD002010BD4950442C000000004E
:100FC0000E020020224950442220666F756E640D87
:100FD0000A0000002249504422206E6F7420666F80
:100FE000756E640D0A0000007CB50121022002F03C
:100FF00077FA01248DF804402020009000208DF81D
:10100000060002208DF807008DF80500394D69466D
:10101000284600F09FFC00222021284600F0F3FC27
:10102000FA2004F07BFE01222021284600F0EBFC90
:101030004FF4FA75284604F071FEFFF78DFF2EA0DD
:10104000FFF7EAFE02E0284604F068FE31A132A074
:1010500000F024F90028F6D131A0FFF7DDFE2CA125
:1010600035A000F01BF9284604F058FE28A135A051
:1010700000F014F9284604F051FE36A0FFF7CCFE2C
:1010800002E0284604F04AFE22A13DA000F006F945
:101090000028F6D13EA0FFF7BFFE02E0284604F08C
:1010A0003DFE1CA144A000F0F9F80028F6D146A0AE
:1010B000FFF7B2FE02E0284604F030FE48A14AA045
:1010C00000F0ECF80028F6D14FA0FFF7A5FE02E0F3
:1010D000284604F023FE53A154A000F0DFF80028B6
:1010E000F6D15D4804705DA0FFF796FE65A0FFF79E
:1010F00093FE7CBD00040240302E204154202D2060
:10110000B2E2CAD44D43552D38323636CDA8D1B6C9
:10111000000000004F4B000041540D0A0000000089
:10112000312E2041542B525354202D20C8EDB8B4F9
:10113000CEBB38323636000041542B5253540D0A80
:101140000000000041542B434950434C4F53450D80
:101150000A000000322E2041542B43574D4F444586
:101160003D312C31202D20C9E8D6C338323636B96E
:10117000A4D7F7C4A3CABDCEAA53544100000000AF
:1011800041542B43574D4F44453D310D0A0000005B
:10119000332E2041542B4357444843503D312C318A
:1011A000202D20CAB9C4DC535441C4A3CABDCFC248
:1011B000444843500000000041542B4357444843E7
:1011C000503D312C310D0A00342E2041542B435711
:1011D0004A4150202D20C1ACBDD35749464900009B
:1011E000474F54204950000041542B43574A415027
:1011F0003D227869616F6D69222C2231323334359A
:1012000036373839220D0A00352E2041542B4349F8
:10121000505354415254202D20C1ACBDD3B7FECE03
:10122000F1C6F700434F4E4E4543540041542B4303
:10123000495053544152543D22544350222C2231A0
:1012400032302E37392E3130302E313036222C319B
:101250003838330D0A00000000000020362E2045EB
:1012600053503832363620496E6974204F4B202D4A
:101270002045535038323636B3F5CABCBBAFB3C97C
:10128000B9A6000045535038323636B3F5CABCBB58
:10129000AF0909095B4F4B5D0000000070B50646C1
:1012A0000D46C8243046FEF7D9FF81B2304602F021
:1012B0007DFF0EE000F036F840B929460748FEF7FA
:1012C000B1FF18B1FFF748FE002070BD0A2004F0FE
:1012D00025FD641EE4B2EDD2012070BD0E02002097
:1012E00030B589B005460C46FFF736FE224608A108
:1012F00001A802F0A7FF0AA101A8FFF7CFFF00286D
:1013000003D12146284602F051FF09B030BD00004C
:1013100041542B43495053454E443D25640D0A002A
:101320003E00000007490888002805D04A889042FE
:1013300004D10020088070470120704748800120B8
:10134000704700008800002070B502F0CFFE3348DF
:101350000078E8B932A1354802F074FF334B1F2200
:1013600040210020FFF7E0FD31A1304802F06AFF84
:101370002E4B1F2250210020FFF7D6FD2EA12B4817
:1013800002F060FF294B1F2260210020FFF7CCFDF7
:10139000FFF72AFE4FF6FF75284600F027FC20A134
:1013A000224802F04FFF214B1F2240210020FFF76F
:1013B000BBFD24A11D4802F045FF1C4B1F225021FC
:1013C0000020FFF7B1FD1CA1184802F03BFF174BAE
:1013D0001F2260210020FFF7A7FD4FF4FA7402E0FE
:1013E000204604F09BFC01F0DFFB0028F8D1184CEC
:1013F0002021204600F005FBFA2004F08FFC20217C
:10140000204600F0FCFA05480121083002F008F8F7
:101410002846BDE8704000F0E9BB00000000002055
:1014200057616974696E6720466F72009C010020E5
:101430005769466900000000436F6E6E656374690A
:101440006F6E00004D5154542053657276657200E2
:10145000000002400149086070470000143C014050
:10146000032800DD03200E4A48B101280BD00228D2
:101470000DD003280FD00021104602F0F3BC00214C
:10148000104602F0EFBC2821104602F0EBBC2D21E3
:10149000104602F0E7BC3221104602F0E3BC000027
:1014A000000400402DE9F04105460C461646DFF8E1
:1014B00058804FF480573946404600F0A2FA052084
:1014C00000F0E9F9032002F091F9C4F3074002F0BB
:1014D0008DF9C4F3072002F089F9E0B202F086F931
:1014E000002405E0FF2002F081F92855641CA4B215
:1014F000B442F7D33946404600F081FABDE8F041E6
:10150000052000F0C8B900000004024030B40446D1
:1015100010460D461A46217820281DD009DC0C28DB
:1015200012D0102814D018281ED1104801FB020137
:1015300006E0302814D0402816D10D4801FB0201E6
:10154000284630BCFFF7AEBF514301F50021F7E755
:10155000084801FB0201F3E7074801FB0201EFE73E
:10156000064801FB0201EBE730BC7047001208009F
:101570000092080000080800002608000048080043
:1015800030B4054608462C786978812C0AD3402966
:1015900008D3FF2906D0FF2C04D07F290DD2403973
:1015A000CDB20CE00021002203E000F8012B491C21
:1015B00089B29942F9D330BC70474139CDB2813CF0
:1015C000E1B2C1EB411404EB811105EB4101594338
:1015D0000C2A0BD0102A0CD0182A0DD0202AEAD1C0
:1015E00001F5601130BC1A46FFF75CBF044A114494
:1015F000F8E7044A1144F5E701F5ED11F2E70000C0
:101600000014090000DD1100AFF3008030B587B091
:101610004FF6FF7000F0EAFA0020002401AD2C54D0
:10162000401CC0B21828FAD31122002101A8FFF7EC
:1016300039FF102101AB1F220846FFF757FC00209D
:101640002C54401CC0B21828FAD30822142101A837
:10165000FFF728FF01AB1F2220211020FFF746FCD7
:1016600000202C54401CC0B21828FAD308221E2196
:1016700001A8FFF717FF01AB1F2230211020FFF751
:1016800035FC4FF4FA7004F049FB07B030BD2DE98A
:10169000F04FC1B082460D4616461C46A94660076B
:1016A00001D0012000E0002000EBD40B60080BFB10
:1016B00000FB0C2C09D0102C07D0182C05D0202CA6
:1016C00003D0302C01D0402C33D15B46224601A9F7
:1016D0003046FFF71BFF4FF0000828E001A810F884
:1016E00008700026380605D5294650464A9A00F06B
:1016F000F9FA06E04C9820B9294650464B9A00F07A
:10170000F1FA7806070E6D1CADB2A5EB0900A042F8
:1017100005D14D460AF1010A1FFA8AFA03E0761C48
:10172000B6B2082EDED308F101081FFA88F8D845B2
:10173000D4D341B0BDE8F08F2DE9F04FA1B082467F
:101740000C4615461F46A146780701D0012000E04F
:10175000002000EBD70B0BFB07FB0C2F05D0102F45
:1017600003D0182F01D0202F33D15B463A4601A970
:101770002846FFF705FF4FF0000828E001A810F801
:1017800008600025300605D5214650462A9A00F00B
:10179000A9FA06E02C9820B9214650462B9A00F071
:1017A000A1FA7006060E641CA4B2A4EB0900B842AC
:1017B00005D14C460AF1010A1FFA8AFA03E06D1CB2
:1017C000EDB2082DDED308F1010808F0FF08D84576
:1017D000D4D321B0BDE8F08F2DE9FF4F83B004468C
:1017E000DDE910750E469346A046B2464FF000095B
:1017F00020E0B9F1000F23D04FF0000908EB0B00F7
:10180000401BA04202DA701986B244460698504442
:10181000401BB04211DBDDE912121498CDE9001231
:1018200002902B463A4631462046FFF785FFBF1C03
:10183000601984B238780028DBD107B0BDE8F08F9A
:10184000802802D94FF00109F4E708EB0B01A1EB66
:101850005501A14202DA71198EB2444606995144EB
:10186000491BB142E9DB0D2810D0DDE912121498B2
:10187000CDE9001202902B463A4631462046FFF74A
:1018800006FF7F1C04EB550084B2D3E7701986B2C3
:1018900044467F1CF5E7002206E00021491CC9B23E
:1018A0006429FBD3521CD2B28242F6D370470000A7
:1018B0007CB50121042001F0E9FD4FF400500090B7
:1018C00000248DF8054001258DF804508DF8064060
:1018D0008DF8074069461C4800F03CF80121084695
:1018E00001F0D4FDE80200908DF805408DF8045019
:1018F0008DF806408DF80740144E6946304600F0DA
:1019000029F80121022001F0C1FD082000908DF886
:10191000044002208DF8070069460D4800F01AF8CF
:101920000121084601F0B2FD4FF4907000908DF84F
:1019300005408DF804508DF806408DF80740694643
:10194000304600F007F87CBD00080240000002406D
:10195000000402402DE9F041002201274FF0030C62
:1019600007FA02F50B682B40AB422CD106685300F6
:101970000CFA03F4A64306600E79D0F800809E406E
:1019800046EA080606600E79012E01D0022E12D119
:101990008668A64386604E79D0F808809E4046EA65
:1019A000080686604668AE43466045688E79964074
:1019B000B6B235434560C568A543C560CC799C4047
:1019C000C3681C43C460521C102AC9D3BDE8F0810F
:1019D00010B54B07DB0E9A40C90800EB8100016A85
:1019E0000F249C40A1430162016A1143016210BDB2
:1019F0000246002012690A4200D00120704741834C
:101A0000704701837047002A01D0018370474183EA
:101A10007047000010B50A4C0146072301222046FA
:101A2000FFF7E8F82046FFF71FF902212046FFF7ED
:101A3000B4F80028F9D02046BDE81040FFF7AAB856
:101A4000002001402DE9F04107460E460025002404
:101A500008E03846FFF7DEFF0544052004F05EF994
:101A6000641CE4B2B442F4D3B5FBF6F080B2BDE836
:101A7000F08130B405460846144619462A786B783A
:101A8000812A0FD3402B0DD3FF2B0BD0FF2A09D077
:101A90000C2910D0102910D018290CD1214630BCA7
:101AA000FFF78CB90021002203E000F8012B491C4C
:101AB000C9B2A142F9D330BC7047214630BCFFF710
:101AC0005DB9FEE71CB50121022001F0DFFC032017
:101AD000009002208DF8050001208DF804008DF89B
:101AE000060069460248FFF735FF04F097FA1CBD6F
:101AF000000402401CB50121022001F0C7FC4FF494
:101B0000E870009000208DF8040003208DF8050097
:101B100001208DF8070069460148FFF71BFF1CBD37
:101B2000000402402DE9F04101252E4C002800D090
:101B3000257020782C4E4FF4807798B140213046A4
:101B4000FFF756FFA8B180213046FFF751FF80B163
:101B500039463046FFF74CFF58B110213046FFF7A9
:101B600047FF30B140213046FFF742FF012823D024
:101B700035E00A2004F0D2F80020207040213046E1
:101B8000FFF736FF78B180213046FFF731FF68B1AB
:101B900039463046FFF72CFF50B110213046FFF791
:101BA00027FF38B11BE00120BDE8F0810220FBE7F0
:101BB0000320F9E70420F7E780213046FFF718FFFC
:101BC00001280CD139463046FFF712FF012806D113
:101BD00010213046FFF70CFF012800D125700020AE
:101BE000E2E700006400002000040240F0B5074670
:101BF00000240C4E002108467388328800F0DCF97E
:101C00003588708845430021084600F0A9F900F0A6
:101C1000C5FA03E0384600F08DFA641CAC42F9D3F3
:101C2000F0BD000000020020F0B5002680212C222B
:101C30002A232A4D2A4C4FF02B0C00281AD00128B9
:101C400025D0012702282FD003283AD0A671218061
:101C5000618022816381A4F80CC0C021362000F08D
:101C6000A3FA2E7063882288BDE8F0400021084660
:101C700000F0A2B9A6712180618022816381A4F85D
:101C80000CC0C021362000F08FFA2E70EAE7A67152
:101C90002180618022816381A4F80CC0402136201C
:101CA00000F082FA2E70DDE7A77121806180228129
:101CB0006381A4F80CC0A021362000F075FA2F70C3
:101CC000D0E7A7712180618022816381A4F80CC0D4
:101CD0006021362000F068FA2F70C3E776000020FC
:101CE0000002002010B5144600F03AF904480089BB
:101CF00000F044FA2046BDE8104000F01BBA000096
:101D0000000200201CB50121022001F0BFFB41F2BE
:101D10000440009001208DF8040000218DF8061089
:101D200003218DF805108DF8070069460648FFF776
:101D300011FE00F00BF801F0F9FC03494FF480604C
:101D4000183108801CBD00000004024010B508498D
:101D50004FF480400880642003F0E0FF0449042031
:101D6000891E0880BDE81040C82003F0D7BF0000DE
:101D70001A04024010B5FFF7C5FF00F0D1F9112099
:101D800000F0FCF9782003F0C9FFB12000F0F6F96B
:101D9000052000F0E3F93C2000F0E0F93C2000F0E1
:101DA000DDF9B22000F0EAF9052000F0D7F93C2077
:101DB00000F0D4F93C2000F0D1F9B32000F0DEF9B6
:101DC000052000F0CBF93C2000F0C8F93C2000F0E1
:101DD000C5F9052000F0C2F93C2000F0BFF93C2015
:101DE00000F0BCF9B42000F0C9F9032000F0B6F906
:101DF000C02000F0C3F9282000F0B0F9082000F05E
:101E0000ADF9042000F0AAF9C12000F0B7F9C02014
:101E100000F0A4F9C22000F0B1F90D2000F09EF905
:101E2000002000F09BF9C32000F0A8F98D2000F0FD
:101E300095F92A2000F092F9C42000F09FF98D2036
:101E400000F08CF9EE2000F089F9C52000F096F939
:101E50001A2000F083F9362000F090F9C02000F03D
:101E60007DF9E02000F08AF9042000F077F92220C3
:101E700000F074F9072000F071F90A2000F06EF903
:101E80002E2000F06BF9302000F068F9252000F0DA
:101E900065F92A2000F062F9282000F05FF9262079
:101EA00000F05CF92E2000F059F93A2000F056F9C4
:101EB000002000F053F9012000F050F9032000F059
:101EC0004DF9132000F04AF9E12000F057F9042001
:101ED00000F044F9162000F041F9062000F03EF928
:101EE0000D2000F03BF92D2000F038F9262000F0FD
:101EF00035F9232000F032F9272000F02FF92720B0
:101F000000F02CF9252000F029F92D2000F026F909
:101F10003B2000F023F9002000F020F9012000F020
:101F20001DF9042000F01AF9132000F017F93A20E7
:101F300000F024F9052000F011F9292000F01EF925
:101F40000020FFF771FE05494FF480600880BDE86E
:101F500010404FF6FF70FFF749BE00001804024022
:101F600070B506460D461248124C0178608900296A
:101F70000ED000F003F9761CB0B200F0DBF8A089B7
:101F800000F0FCF8AD1CA8B2BDE8704000F0D2B87B
:101F900000F0F4F8B61CB0B200F0CCF8A08900F064
:101FA000EDF86D1CA8B2BDE8704000F0C3B80000A9
:101FB00076000020000200202DE9F04104460D4685
:101FC000A018401E86B2E818401E87B21B48DFF8F2
:101FD00070800178B8F80A00002917D000F0CEF818
:101FE000641CA0B200F0A6F8761CB0B200F0A2F813
:101FF000B8F80C0000F0C2F8AD1CA8B200F09AF8D6
:10200000BF1CB8B2BDE8F04100F094B800F0B6F8DB
:10201000A41CA0B200F08EF8B61CB0B200F08AF892
:10202000B8F80C0000F0AAF86D1CA8B200F082F815
:102030007F1CB8B2BDE8F04100F07CB8760000200B
:10204000000200202DE9F84F82460C461F46A346A9
:10205000780701D0012000E0002000EBD7007908CC
:102060004843C0B20090203A02F0FF09002648E041
:102070000C2F13D0102F18D0182F45D1234909EB5E
:10208000C90001EB8000855D4FF00008280611D5DE
:10209000214650460A9AFFF725FE13E01C4909EB3A
:1020A000490001EB8000855DEEE71A4800EB09105E
:1020B000855DE9E70B9828B9174821468288504684
:1020C000FFF710FE6806050E641CA4B21348408892
:1020D000A04219D9A4EB0B00B84209D15C460AF121
:1020E000010A1FFA8AFA0D48008850450CD906E00B
:1020F00008F1010808F0FF08B8F1080FC6D3761CF4
:10210000F6B200988642B3D3BDE8F88F5F79000835
:10211000FB6E00086F7300087600002000020020AC
:1021200010B5012000F02AF8BDE81040322003F07D
:10213000F5BD000030B5034607484FF480550580D3
:10214000054C0420A41E2080180A01F04FFBD8B2D1
:1021500001F04CFB258030BD1A04024010B5064941
:102160004FF480530B80044C0421A41E218001F005
:102170003DFB238010BD00001A04024000B5064953
:102180004FF480530B8004220A80C0B201F02EFB72
:102190000148801E038000BD1A04024001480089E6
:1021A000FFF7ECBF0002002010B50C46FFF7E6FF7A
:1021B000E0B2BDE81040FFF7D1BF000010B5FEF758
:1021C000BFFD00EE100A9FED031AF8EE400A80EE04
:1021D000810A10BD9A99993F10B50446207B0128C9
:1021E00002D1206803F0E4FD002020606060A06060
:1021F000207310BD012200F07F030B70C00948B1AD
:1022000043F0800301F8013B521C042AF3DD4FF038
:10221000FF307047104670472DE9F04104460F46E5
:10222000002520680026002802D00220207315E037
:1022300001202073384604F0FFF92060002808D000
:102240006660A76002E0206846556D1CA068A84241
:10225000F9D8BDE8F081206846556D1CA068A842F9
:10226000F9D86660A068B842F3D22660F1E70000B2
:102270002DE9FF5F9246DDF838B0DDF84480139C0D
:10228000994600255046FDF7E9FF06B2BAF1000F66
:1022900020D006F1110087B2BBF1000F00D002255B
:1022A000109868B145F004051098FDF7D7FF00F0CD
:1022B000FF0B4046FDF7D2FF58443844001D87B25B
:1022C0000F9870B1012807D0022808D0022004B06E
:1022D000BDE8F09F0120FAE745F00C0501E045F06C
:1022E0001405129808B145F02405009858B30198D8
:1022F00048B345F0C0050098FDF7B0FF834601984C
:10230000FDF7ACFF58443844001D87B239462046DB
:10231000FFF782FF2068C0B13946FDF778FF60689B
:102320001022411C616021680A54D4E90001014473
:10233000781FFFF75FFF00B2002808DA2046FFF79A
:102340004BFF0520C3E70320C1E70420BFE7616816
:1023500008440022411C616021680A54606804211D
:10236000421C62602268115460684D23421C626006
:102370002268135460685123421C6260226813541F
:1023800060685422431C636023681A546068431CCD
:10239000636023681A546068421C626022681154AA
:1023A0006068411C616021680D5460684FEA192221
:1023B000411C616021680A546068411C61602168A9
:1023C00001F800906068320A411C616021680A547B
:1023D0006068411C616021680E54D4E90001084422
:1023E00032465146FDF741FF60683044606068073F
:1023F00036D5B8F1000F01D10FF2D4081098FDF7CF
:102400002DFF86B26068320A411C616021680A545F
:102410006068411C616021680E54D4E900010844E1
:1024200032461099FDF721FF6068304460604046F5
:10243000FDF714FF86B26068320A411C61602168B2
:102440000A546068411C616021680E54D4E900019F
:10245000084432464146FDF708FF6068304460603A
:10246000280618D50098FDF7F9FE86B26068320A92
:10247000411C616021680A546068411C61602168E8
:102480000E54D4E90001084432460099FDF7EDFEF0
:10249000606830446060680618D50198FDF7DEFE7C
:1024A00085B260682A0A411C616021680A5460682C
:1024B000411C616021680D54D4E9000108442A469A
:1024C0000199FDF7D2FE6068284460600020FEE6B6
:1024D000000000002DE9FF4F81B08246119C0F994A
:1024E00091469B46002500260022BAF1000F08D134
:1024F000012005B0BDE8F08F232816D02B2814D07A
:102500006D1C0298405D0028F6D142F0300809B1F8
:1025100048F0010805EB0B07BF1C0E9870B10128AD
:1025200005D0022807D00320E3E70220E1E748F0C6
:102530000208BF1C02E048F00408BF1C99F8000024
:1025400002281BD0F91C2046FFF766FE206870B3F6
:10255000F91CFDF75CFE6068411C6160216801F8B0
:102560000080D4E9000101443846FFF743FE00280B
:1025700020DA2046FFF730FE0520BAE70026304675
:10258000761C19F800007D28F9D1361DABEB06004A
:10259000391A0091C91C2046FFF73EFE206820B181
:1025A0000099C91CFDF733FED5E70420A1E7FFE73A
:1025B00004209EE7616808442A0A411C6160216882
:1025C0000A546068411C616021680D54D4E900011F
:1025D00008442A460299FDF748FE60682844606076
:1025E0000E9959B1411C616021684FEA1A220A54C0
:1025F0006068411C6160216801F800A0B9F1000F1A
:102600000DD099F8000002280BD0D4E9000108444D
:102610005A464946FDF7E2FD606858446060002074
:1026200067E7D4E90001084432464946FDF7D6FD84
:10263000606830446060F2E770B505460C460421DE
:102640002046FFF7E9FD2168B9B160687023421C9C
:1026500062600B5460680222411C616021680A5468
:1026600060682A0A411C616021680A546068411C44
:10267000616021680D54002070BD012070BD70B5EF
:1026800005460C4604212046FFF7C6FD2168B9B176
:1026900060686223421C62600B5460680222411C25
:1026A000616021680A5460682A0A411C61602168DF
:1026B0000A546068411C616021680D54002070BD9F
:1026C000012070BD2DE9F0478246089C89461746D7
:1026D000984600260025BAF1000F0AD10120BDE876
:1026E000F08757F8250018B3FDF7B8FD06446D1CB8
:1026F000EDB24545F5D308EB48008519AD1C691DC1
:102700002046FFF789FD2168A1B160688223421C41
:1027100062600B54D4E9000101442846FFF76AFDCA
:1027200000B2002808DA2046FFF756FD0420D6E75D
:102730000220D4E70320D2E761680844411C6160AD
:1027400021684FEA1A220A546068411C61602168BE
:1027500001F800A0002520E057F82500FDF77EFDD8
:1027600006466068320A411C616021680A5460684C
:10277000411C616021680E54D4E90001084457F8F7
:1027800025103246FDF771FD60683044411C6160E0
:10279000216801F800906D1CEDB24545DCD30020A6
:1027A0009DE7F0B504460123002010605D0512E0AE
:1027B000275C166807F07F0707FB03661660265C38
:1027C000360601D4401CF0BDDB01AB4202D36FF0F2
:1027D0000100F0BD401C8842EADB4FF0FF30F0BD45
:1027E0002DE9F84380460C4617461D462F2108F177
:1027F0000600FDF729FD0021009148B3461C6A46FA
:10280000042108F10100FFF7CCFF252003F014FF9D
:102810002060F8B12521FDF7FAFC2422314620681A
:10282000FDF7DCFC243600982C3880B22880401C50
:1028300003F002FF386078B12988491CFDF7E7FCF6
:102840002A8831463868FDF7C9FC0020BDE8F883C6
:102850000120FBE70220F9E7206803F0A9FA032032
:10286000F4E74178022901D001207047817819B13D
:10287000012901D0FF207047C07870472DE9F84F3B
:102880000546DDE90A7B0E4614469846287800F096
:102890000F090020009009F0080AC9F341008BF8E5
:1028A00000006A460421681CFFF77BFF05446D1C8D
:1028B0000098022802D35FEAC97002D0FF20BDE869
:1028C000F88F6878297840EA012020800099801CE0
:1028D000884201D9FF20F2E749A1A81CFDF7A2FC1C
:1028E00008B10F20EBE79BF8000028B1012837D092
:1028F000022835D0FF20E2E7BAF1000F01D0FF2017
:10290000DDE72088401C03F097FE306008B3218883
:10291000491CFDF77CFC2288A91C3068FDF75EFC91
:1029200020880099081A801E80B23880401C03F06D
:1029300083FEC8F8000070B13988491CFDF767FCB8
:102940002088AD1C41193A88D8F80000FDF746FCF4
:102950003EE0FF20B3E7306803F02AFAFF20AEE73D
:102960002088009A811C914201D9FF20A7E7E91C29
:10297000425CA91C405C42EA00210C9801800C9842
:1029800060B32088401C03F057FE306040B32188BC
:10299000491CFDF73CFC2288A91C3068FDF71EFC91
:1029A00020880099081A001F80B23880401C03F06C
:1029B00043FEC8F80000A8B13988491CFDF727FC80
:1029C00020882D1D41193A88D8F80000FDF706FC33
:1029D0002B213046FDF738FC70B908E0FF206EE788
:1029E000FF206CE7306803F0E3F9FF2067E723215D
:1029F0003046FDF729FC08B1FF2060E700205EE7C4
:102A000024637265710000004178022901D0012021
:102A10007047817811B9C0780A2801D00120704729
:102A2000002070474178022901D001207047817849
:102A300011B9C0780A2801D00120704700207047E2
:102A40004178022901D001207047817811B9C078FE
:102A50000A2801D001207047002070474278022ADE
:102A600001D0012070478278B2EB112F05D1C078D8
:102A7000C9B2884201D10020704701207047000090
:102A800038B50446FF2120780009421E0E2A01D3E2
:102A9000084638BD0328FCD1002000906A46042176
:102AA000601CFFF77EFE2044401C0099022902D3DF
:102AB0002278D20701D0FF2038BD4278037842EA5D
:102AC0000322921C8A4201D9FF2038BD04A1801C38
:102AD000FDF7A8FB08B10F2038BD032038BD00006A
:102AE00024637265710000000146FF208A78002A85
:102AF0000BD1CA78142A08D1087938B1012805D039
:102B0000022803D0802803D002207047002070479D
:102B100001207047014601208A78002A03D1C97834
:102B20001E2900D100207047FEE7704730B50F2303
:102B3000C27801250178002A1FD0154A126802F4D4
:102B4000E062C2F5E062C2F30722C2F10404D3409E
:102B50004278A24084781C401443220101F1E02114
:102B600081F80024007800F01F018D4040098000AA
:102B700000F1E020C0F8005130BD01F01F00854099
:102B80004809800000F1E020C0F8805130BD00000D
:102B90000CED00E00249084302490860704700005C
:102BA0000000FA050CED00E070B5BAB00024069400
:102BB00007940894099401253348066833A23346E4
:102BC00037A12AA801F03EFB334637A234A11AA848
:102BD00001F038FB33462DA231A10AA801F032FBE7
:102BE0000AAB1AAA2AA938A001F0FAFA06A8CDE978
:102BF00004400294039400942B020AAA1AA92AA85A
:102C00000194FFF735FB28B13FA0FEF705F93AB074
:102C1000284670BD079881B20698FEF761FBFA203E
:102C2000FEF7A8F90446002C2AD02046FFF728FF1B
:102C3000022825D12046FFF714FE06281DD2DFE822
:102C400000F003080C10141838A0FEF7E5F8002572
:102C500016E03BA0FEF7E0F812E040A0FEF7DCF83B
:102C60000EE047A0FEF7D8F80AE04DA0FEF7D4F832
:102C700006E054A0FEF7D0F802E05DA0FEF7CCF825
:102C800006A8FFF7A9FAC2E7E8F7FF1F68756171A8
:102C9000696E675F736D617274686F6D65000000C7
:102CA00025735F255800000068756171696E675F64
:102CB000736D617274686F6D655F7A75695F6A695B
:102CC000616E64616E0000004F6E654E65745F4416
:102CD00065764C696E6B0D0A50524F49443A202577
:102CE000732C09415549463A2025732C0944455611
:102CF00049443A2573092D2D2D20C1ACBDD3D6D022
:102D00002E2E2E2E0D0A00005741524E3A094D51DB
:102D100054545F5061636B6574436F6E6E6563748A
:102D2000204661696C65640D0A0000005469707387
:102D30003A09C1ACBDD3B3C9B9A60D0A0000000061
:102D40005741524E3A09C1ACBDD3CAA7B0DCA3BAB1
:102D5000D0ADD2E9B4EDCEF30D0A00005741524E8A
:102D60003A09C1ACBDD3CAA7B0DCA3BAB7C7B7A8EC
:102D7000B5C4636C69656E7469640D0A0000000077
:102D80005741524E3A09C1ACBDD3CAA7B0DCA3BA71
:102D9000B7FECEF1C6F7CAA7B0DC0D0A00000000EE
:102DA0005741524E3A09C1ACBDD3CAA7B0DCA3BA51
:102DB000D3C3BBA7C3FBBBF2C3DCC2EBB4EDCEF302
:102DC0000D0A00005741524E3A09C1ACBDD3CAA703
:102DD000B0DCA3BAB7C7B7A8C1B4BDD328B1C8C8BF
:102DE000E7746F6B656EB7C7B7A8290D0A000000BE
:102DF0004552523A09C1ACBDD3CAA7B0DCA3BACE82
:102E0000B4D6AAB4EDCEF30D0A00000070B588B0B8
:102E100006460D460024049405940694079428461B
:102E2000FDF71CFA01210094CDE90141034604A8F5
:102E300003902A4631460A20FFF74CFB002807D1B1
:102E4000059881B20498FEF74BFA04A8FFF7C4F97D
:102E500008B070BD2DE9F04F8FB0044600270B97E6
:102E60000C970D970E970A9709970897079706975B
:102E7000002600252046FFF703FE8046A8F1030048
:102E8000D0490D2872D2DFE800F01BFEFDFCFB717B
:102E9000FA71F9717171070007AB0AAA09A92046F6
:102EA000FFF79EFC0646300009D1DDE90912BDF8A6
:102EB0001C30C5A0FDF7B0FF0BA8FFF78DF959E155
:102EC00006A807AACDE9002002910AAB08AA09A921
:102ED0002046FFF7D3FC06463000F0D1BDF81C00B9
:102EE0000090DDE90913BDF82020C0A0FDF794FF94
:102EF0000A9802F099FE82465FEA0A0020D0CAA131
:102F000002F074FE0446CAA0216A01F069F9C8A063
:102F1000216901F065F9CBA12069FDF783F94FF034
:102F2000010910B3C9A1504602F060FE0446DFF863
:102F300024B3606901280AD0DBF80000B8B120E0B2
:102F400002F04EFE0146C4A001F04AF9AEE0DBF803
:102F50000000012815D1C5A001F064F94FF400610B
:102F6000C648FEF74CFDCBF800700AE000E1C4A0B3
:102F700001F058F94FF40061C048FEF742FDCBF86C
:102F80000090C3A12069FDF74DF930B3AFA15046C1
:102F900002F02CFE0446DFF800B36069012803D07C
:102FA000DBF8000078B118E0DBF80000012814D14C
:102FB000BAA001F037F94FF40051BC48FEF71FFDED
:102FC000CBF8007009E0BAA001F02CF94FF40051E1
:102FD000B648FEF716FDCBF80090B9A12069FDF7C1
:102FE00021F910B399A1504602F000FE0446DFF823
:102FF000D8B26069012804D0DBF8000001280CD0A9
:1030000013E0DBF8000080B9B0A001F00BF901205B
:1030100002F0D6FCCBF8009007E0AFA001F002F977
:10302000002002F0CDFCCBF80070AFA12069FDF7C5
:10303000F9F848B385A1504602F0D8FD0446DFF800
:10304000ACB2606938B9AAA001F0ECF80020FEF734
:1030500007FACBF800706069012807D1A6A001F03B
:10306000E1F80120FEF7FCF9CBF800906069022836
:1030700010D1A3A001F0D6F8022006E06CE05FE0DA
:1030800056E03AE01FE015E010E0FEF7E9F9022013
:10309000CBF800006069032808D19BA001F0C2F8BA
:1030A0000320FEF7DDF90320CBF80000504602F0C4
:1030B00073FD5FE02046FFF7A7FC00285AD194A0DB
:1030C000FDF7AAFE56E02046FFF7BAFC002851D1D2
:1030D00097A0FDF7A1FE0BA90A20FFF7D0FA002860
:1030E00048D199A0FDF798FE0C9881B20B98FEF795
:1030F000F7F80BA8FFF770F83CE009882046FFF7C7
:10310000ADFC002836D196A0FDF786FE0BA90A205B
:10311000FFF792FA00282DD197A0FDF77DFE0C98BD
:1031200081B20B98FEF7DCF80BA8FFF755F821E009
:103130002046FFF777FCE8B996A0FDF76DFE19E091
:103140002046FFF7D1FC18B198A0FDF765FE11E00D
:103150009DA0FDF761FE0DE02046FFF7DBFC18B1F6
:10316000A0A0FDF759FE05E0A6A0FDF755FE01E081
:103170004FF0FF36FDF7F0FE761C1FD07D210A9838
:10318000FDF762F870B1401C03AA03E02B466D1CEA
:10319000D154401C0178A1F13003092BF6D903A8C2
:1031A000FDF786F8B8F10F0F02D0B8F1030F05D183
:1031B000099802F0FDFD0A9802F0FAFD0FB0BDE893
:1031C000F08F00008C000020636D6469643A202554
:1031D000732C207265713A2025732C207265715F03
:1031E0006C656E3A2025640D0A000000746F7069EA
:1031F000633A2025732C20746F7069635F6C656E71
:103200003A2025642C207061796C6F61643A202526
:10321000732C207061796C6F61645F6C656E3A200D
:1032200025640D0A00000000746172676574000077
:103230006A736F6E5F76616C75653A205B25735DAE
:103240000A0000004C4544310000000076616C75B6
:1032500065000000200000204572726F72206265D8
:10326000666F72653A205B25735D0A006C69765F54
:103270004C45445F4F4E0D0A000000000000024024
:103280006C69765F4C45445F4F66660D0A0000002E
:103290004C45443200000000240000206265645F59
:1032A0004C45445F4F4E0D0A0000000000080240EC
:1032B0006265645F4C45445F4F46460D0A0000005E
:1032C00077696E646F7700002800002077696E646C
:1032D0006F775F4F4E0D0A0077696E646F775F4FAF
:1032E00046460D0A0000000066616E002C000020BA
:1032F00046616E20300D0A0046616E20310D0A00D5
:1033000046616E20320D0A0046616E20330D0A00C0
:10331000546970733A094D515454205075626C6968
:1033200073682053656E64204F4B0D0A0000000047
:10333000546970733A09526576205075626C6973EE
:10334000685265630D0A0000546970733A09536549
:103350006E64205075626C69736852656C0D0A006A
:10336000546970733A09526576205075626C6973BE
:103370006852656C0D0A0000546970733A09536510
:103380006E64205075626C697368436F6D700D0ACE
:1033900000000000546970733A0952657620507538
:1033A000626C697368436F6D700D0A0054697073C5
:1033B0003A094D51545420537562736372696265C2
:1033C000204572720D0A0000546970733A094D511C
:1033D000545420537562736372696265204F4B0DBC
:1033E0000A000000546970733A094D515454205535
:1033F0006E537562736372696265204572720D0A5D
:1034000000000000546970733A094D51545420551E
:103410006E537562736372696265204F4B0D0A00CB
:1034200070B586B005460E46002400210291039136
:103430000491059106E055F824100DA0FDF7ECFC71
:10344000641CE4B2B442F6D302A8009033462A4684
:1034500000211420FFF736F9002807D1039881B224
:103460000298FDF73DFF02A8FEF7B6FE06B070BD5C
:1034700053756273637269626520546F7069633A51
:103480002025730D0A00000070470000054A00293E
:1034900003D01168014311607047116881431160C6
:1034A0007047000030380240054A002903D01168F7
:1034B000014311607047116881431160704700003B
:1034C00040380240054A002903D0116801431160C9
:1034D0007047116881431160704700002038024036
:1034E000054A002903D01168014311607047116833
:1034F00081431160704700004438024070B5244B8E
:10350000196801F00C01234C00291ED0224E042919
:103510001DD008291DD00460196801F0F0010909C7
:103520001E4A545C0168E14041601C6804F4E054A8
:10353000A40A145D21FA04F484601B6803F4604358
:103540005B0BD25CD140C16070BD0460E4E70660F3
:10355000E2E70F4A121F1168C1F38055116801F0AC
:103560003F0135B1B6FBF1F11468C4F3881461432F
:1035700005E0B4FBF1F11468C4F3881461431268E8
:10358000C2F30142521C5200B1FBF2F10160C3E7E9
:10359000083802400024F40040787D0165000020D6
:1035A00010B54FF48074204600F022F8012805D1B0
:1035B000204600F00FF804A000F034FEBDE81040F3
:1035C0004FF40030FDF746BF414C41524D204121A0
:1035D0000D0A000080B240F08000C1430348026839
:1035E00002F0800211430160704700000C28004087
:1035F0000246002003490968034B1940114200D0DC
:10360000012070470C2800407F7F010010B54FF467
:1036100080642046FFF7ECFF012802D12046FFF727
:10362000D9FFBDE810404FF48000FDF713BF000044
:103630002DE9F04100250024144F012610213846C1
:10364000FEF7D6F90028F9D0282002F081FB1021DE
:103650003846FEF7CDF901280BD0C4F1070006FA71
:1036600000F08543641CE4B2082CE7D32846BDE88B
:10367000F08110213846FEF7BBF90128F9D0C4F1DA
:10368000070006FA00F0C0B20543EBE70000024075
:1036900070B50446FDF718FC234D10212846FEF7AF
:1036A000AEF9122002F03AFB10212846FEF7A9F9E4
:1036B0001E2002F04DFBFDF7F9FB10212846FEF716
:1036C00097F908B1002070BD10212846FEF790F947
:1036D0000028F9D010212846FEF78AF90128F9D0F0
:1036E000FFF7A6FF2070FFF7A3FF6070FFF7A0FFB2
:1036F000A070FFF79DFFE070FFF79AFF2071FDF7C4
:10370000E3FB10212846FEF77CF920786178E27807
:103710000844A178114408442179884201D101204C
:1037200070BD002070BD0000000002402DE9F04196
:1037300088B001210220FFF7A9FE01218F0338463E
:10374000FFF7B2FE4FF46040069002258DF81C5042
:1037500000248DF81E408DF81D5001268DF81F6045
:10376000DFF8808006A94046FEF7F4F805220D2117
:103770004046FEF72DF905220E214046FEF728F9B6
:1037800005220F214046FEF723F901213846FFF7B5
:1037900099FE00213846FFF795FEADF804404FF43E
:1037A0008270ADF80600ADF80840ADF80A50ADF8EB
:1037B0000C602802ADF80E00ADF81040ADF81240D4
:1037C0000720ADF81400084C01A9204600F02AF8A3
:1037D0000121204600F01AF8FF2000F007F808B099
:1037E000BDE8F081000402400038004006490A8824
:1037F0009207FCD5044A121D10800888C007FCD02F
:103800001088C0B27047000008380040002904D07A
:10381000018841F0400101807047018821F040019A
:103820000180704730B5028802F441530A884C8801
:10383000CD8822438C882C4322430C8922434C8917
:1038400022438C892243CC8922431A430280828BF3
:1038500022F400628283098A018230BD7047000031
:103860000CB50022019200922649086840F480308D
:1038700008604FF4A043086800F4003000900198FD
:10388000401C0190009810B901989842F3D1086843
:10389000800302D50120009000E0009200980128EA
:1038A0002FD118484030026842F08052026016481A
:1038B000026842F440420260124808300268026026
:1038C00002680260026842F480520260031F0F4ADD
:1038D0001A600A6842F080720A600A689201FCD598
:1038E0000B4940F202720A60016821F00301016095
:1038F000016841F0020101600168C1F38101022900
:10390000FAD10CBD00380240007000401954410744
:10391000003C02402DE9F04F93B004468A4615461C
:103920001F46A146780701D0012000E0002000EBEF
:10393000D7007843C0B200900C2F03D0102F01D0D5
:10394000182F36D13B4601A92846009AFEF791F878
:103950004FF000082AE001A810F808600025DFF801
:1039600058B0300605D5514620461C9AFEF7BAF9E4
:1039700007E01D9828B9BBF8002051462046FEF705
:10398000B1F97006060E641CA4B2A4EB0900B8429B
:1039900004D14C460AF1010A1FFA8AFA6D1CEDB2F5
:1039A000082DDED308F1010808F0FF0800988045D3
:1039B000D1D313B0BDE8F08F7A0000202DE9FF4F7E
:1039C00083B00446DDE910750E469346A046B24624
:1039D0004FF000091EE0B9F1000F21D04FF00009AF
:1039E00008EB0B00401BA04202DA701986B2444675
:1039F00006985044401BB0420FDBDDE91201CDE9CF
:103A000000012B463A4631462046FFF783FFBF1C94
:103A1000601984B23A78002ADDD107B0BDE8F08F92
:103A2000802A02D94FF00109F4E708EB0B00A0EB64
:103A30005500A04202DA701986B2444606985044F6
:103A4000401BB042E9DB0D2A0DD0DDE91201CDE9C2
:103A500000012B4631462046FEF7F4FA7F1C04EBAA
:103A6000550084B2D6E7701986B244467F1CF5E74C
:103A70004FF0E021042804D0086920F00400086118
:103A80007047086940F00400086170477047000003
:103A900010B51248016841F47001016010480168D6
:103AA00041F0010101600E4A0021083211600268F4
:103AB0000C4B1A400260031D0B4A1A60026822F484
:103AC0008022026006480C300160FFF7C9FE0349FE
:103AD0004FF000608039086010BD000088ED00E004
:103AE00000380240FFFFF6FE103000242DE9F041BF
:103AF0008AB006460D4601210220FFF7D5FC0121C0
:103B00000846FFF7C3FCDFF87C800222062140460E
:103B1000FDF75EFF4022089202208DF8240003206A
:103B20008DF8250000248DF8264001278DF8277098
:103B300008A94046FDF70EFFADF81450ADF8164049
:103B40000696ADF81C40104D05A9284600F08EF9E8
:103B50006021ADF80010ADF80270ADF80C40694678
:103B6000284600F009F90821284600F039F901211A
:103B7000284600F0CFF80121284600F0DAF80AB014
:103B8000BDE8F081000002400004004070B58AB03A
:103B900004460D4601210220FFF778FC0121042094
:103BA000FFF782FC1B4E022209213046FDF710FF71
:103BB00002208DF82400020208928DF8250008A941
:103BC0003046FDF7C7FE0694ADF814500024ADF85A
:103BD0001C40ADF81640104D05A9284600F046F9E6
:103BE0006021ADF80010ADF80C400121ADF80210D5
:103BF0006946284600F0FAF80821284600F028F91E
:103C00000121284600F086F80121284600F091F8AD
:103C10000AB070BD00040240000800402DE9F041E8
:103C20001E4D0121284600F090F8012830D11C4C8F
:103C3000E088401C81B2E1804FF4FA70B1FBF0F0F3
:103C4000C2B2E2702179322902D90020207101E04C
:103C5000491C21712079134F4FF40056904204D330
:103C600031463846FDF7CDFE03E031463846FDF7D4
:103C7000C6FEE088B0F57A5F0AD90BA000F0D2FA50
:103C80000021284600F055F831463846FDF7B7FECA
:103C90002846BDE8F041012100F048B8000C004082
:103CA000000000200008024054494D352C4449537F
:103CB00041424C450D0A00007FB504460D460121E6
:103CC0000820FFF7F1FB0294ADF804500020ADF896
:103CD0000600ADF80C000E4C01A9204600F0C6F815
:103CE00001221146204600F03CF80121204600F058
:103CF00020F832208DF8000001208DF8010003210A
:103D00008DF802108DF803006846FEF70FFF7FBDA7
:103D1000000C0040002904D0018841F0800101809E
:103D20007047018821F0800101807047C9430182FA
:103D30007047002904D0018841F0010101807047DB
:103D4000018821F001010180704702460020138A9A
:103D50000B4092890A40002B02D0002A00D001209B
:103D60007047002A03D082890A4382817047828982
:103D70008A4382817047000030B5028C22F0010234
:103D80000284058C8388028B22F0700222F00302E9
:103D90000C88144325F002028D8915434A882A4372
:103DA0000D4DA84202D00D4DA8420FD122F00805BA
:103DB000CA892A4322F004058A882A4323F480739F
:103DC00023F400730D8A1D434B8A2B4383800483A5
:103DD00089684163028430BD000001400004014055
:103DE000028B22F008020A430283704770B5028CEE
:103DF00022F480520284058C8288838B23F4E04372
:103E000023F440760C884FF6FF7303EA042434430E
:103E100025F400558E8903EA06362E434D8803EAC1
:103E200005353543084EB04202D0084EB04205D1A8
:103E300022F480460A8A03EA821232438280848313
:103E400089680164058470BD0000014000040140E0
:103E5000828B22F400624FF6FF7303EA01211143C3
:103E600081837047416370470164704730B50288B1
:103E7000164C174DA0420DD0A8420BD0B0F1804F88
:103E800008D0144B984205D0134B984202D0134BE4
:103E9000984203D122F070034A881A43104B98428B
:103EA00006D0104B984203D022F440730A891A437B
:103EB00002804A68C2620A880285A04201D0A842F4
:103EC00001D1897A01860121818230BD0000014043
:103ED000000401400004004000080040000C0040C5
:103EE000001000400014004070B5084D40F224441A
:103EF0002146284600F059F8002805D021462846DA
:103F0000BDE8704000F02CB870BD0000001001400A
:103F100070B50E4D40F22551284600F046F80028B5
:103F200013D00B4C2088802801D300202080284605
:103F300000F0D4F821884A1C2280064A50542846B2
:103F4000BDE87040202100F007B870BD004400407B
:103F5000880000200E0200208A05C94301807047B6
:103F600040F66A120A0A01219140C9430180704754
:103F7000002904D0818941F40051818170478189F1
:103F800021F4005181817047002A03D0828A0A43BC
:103F900082827047828A8A4382827047024600206A
:103FA00012880A4200D00120704770B5002440F604
:103FB0006A12C1F3421301F01F05012606FA05F249
:103FC000012B0CD0022B0DD0838A1340090A8E409E
:103FD000008830400BB100B10124204670BD8389B8
:103FE0001340F3E7038A1340F0E710B540F66A1375
:103FF000C1F3421301F01F040121A140012B07D09E
:10400000022B07D014303AB102680A43026010BD97
:104010000C30F8E71030F6E702688A43026010BD02
:104020007FB504460D46208A20F44051E8880843B5
:104030002082A08941F20C618843A9882A89114312
:104040006A8902431143A181A08A20F44071A889A2
:104050000843A0826846FFF751FA1E48844202D006
:104060001D48844201D1039800E00298A189090407
:1040700008D500EBC00101EB001029684900B0FB36
:10408000F1F007E000EBC00101EB001029688900A6
:10409000B0FBF1F06422B0FBF2F109010B096FF003
:1040A00018056B4300EB8300A3891D044FF0320316
:1040B00007D503EBC000B0FBF2F000F007000843A7
:1040C00006E003EB0010B0FBF2F000F00F00084335
:1040D00020817FBD00100140001401408088C0F3A2
:1040E00008007047C1F3080181807047F0B587B0C0
:1040F00001210846FFF7CAF901214804FFF7D4F966
:1041000000248DF81A4001268DF81B6002258DF8D9
:1041100019508DF8185004200590214F05A93846F4
:10412000FDF718FC8DF818500821059105A93846AF
:10413000FDF710FC072203213846FDF749FC072252
:1041400002213846FDF744FC4FF4E1300190ADF810
:104150000840ADF80A40ADF80C40ADF810400C2016
:10416000ADF80E000F4C01A92046FFF759FF0121C1
:104170002046FFF7FDFE012240F225512046FFF7C1
:1041800034FF26208DF8000003208DF801008DF803
:1041900002008DF803606846FEF7C8FC07B0F0BD6A
:1041A0000000024000440040FEE700002DE9F0411D
:1041B00005460E460024094F0CE015F8011B384651
:1041C000FFF790FF40213846FFF7E8FE0028F9D0BE
:1041D000641CA4B2B442F0D3BDE8F08100440040B6
:1041E0000FB430B5CBB001AC4FAB4FF4947101A814
:1041F0004E9A00F03BF800200090094D09E0641C45
:104200002846FFF76FFF40212846FFF7C7FE00282A
:10421000F9D021780029F2D14BB030BC5DF814FB05
:10422000001001400FB4054B10B503A9044A0298D1
:1042300001F01EF810BC5DF814FB00009D5D000845
:10424000600000200FB4084B10B504A902AA03981F
:1042500001F00EF8044602A9002001F0ABFB204655
:1042600010BC5DF814FB0000B55900087CB504468D
:1042700000201D46164600290BD0491ECDE90041FD
:10428000044B6A462946304600F0F2FF009A0021AE
:1042900011707CBD9F59000803B40198410000983B
:1042A00050EAC12018BF04204A0D18BF40F0010099
:1042B00040F2FF72B2EB515F08BF40F002000128EC
:1042C00008BF052002B070470048704798000020E2
:1042D0002DE9F04D2DED040B2DED0E8B96B0DDE9A3
:1042E0002550279CDDF890A025F0004624F00048DA
:1042F000BAF1000F14BF0121002101EB4502FC4976
:1043000053184A1093422AD3002814BF01230023D4
:1043100003EB44030B44F7498B4220D358EA0001D6
:104320009FEDF59B76D0DFF8D8B35D4503D1BAF1A8
:10433000000F05D188E0BAF1000F08BF002100D0BE
:10434000012101EB450111F5001F08D8002814BF19
:104350000121002101EB440111F5001F0BD99DED56
:10436000261B9DED240B16B0BDEC0E8B04B0BDE8F2
:10437000F04D00F069BE0027002DBCBFE149884523
:1043800021DAE1498845A8BF02271CDAC3451ADCB7
:10439000DE4901EB2851142908DDC1F1340220FA6D
:1043A00002F101FA02F282420DD108E058B9C1F1DE
:1043B000140228FA02F101FA02F2424503D101F097
:1043C0000101C1F1020756EA0A0124D1002C22DAC8
:1043D000002D18BF022F01D0012F0AD0022000F0BB
:1043E0007FFE16B0BDEC0E8B04B0BDE8F04D00F0C2
:1043F00013BE022000F074FE00F00EFE51EC100B14
:1044000081F0004141EC100B16B0BDEC0E8B04B0F6
:10441000BDE8F08D18E09FEDBEAB9FEDBF8B00288F
:1044200071D1B848804522D105F1804010F5801047
:1044300008BFBAF1000F07D0B3450ADC002CA8BFB3
:104440009DED260BE0DA0DE0B0EE490AF0EE690AC8
:10445000DAE7002C06DA9DED260B51EC100B81F00B
:1044600000416FE0AE48784490ED000BCCE7D845B2
:104470004DD1002C48DA2EB186423AD1BAF1000F64
:1044800042D126E0BAF1000F13D0022000F028FE3E
:1044900000F0F6FD8DED020B9DED240B8DED000B74
:1044A00010EE900A039961F31E0003909DED020B3C
:1044B000AAE78DED02AB9DED240B1AEE901A10EEDB
:1044C000900A8DED000B61F31E0003909DED020B31
:1044D0009AE78DED028B9DED240B18EE901A10EEED
:1044E000900A8DED000B61F31E0003909DED020B11
:1044F0008AE709DA9DED240B51EC190B53EC102BD4
:10450000FBF7FCFF1EE020E09DED240B7CE78642DC
:104510001BDAB4F1804F0DD0A4F10050B0F1FF5080
:1045200013D1002D11DB9DED240B51EC100B02F08B
:104530004BFC07E09DED240B53EC102B51EC100BC2
:1045400000F0C2BC41EC100B5EE79DED240B51EC7A
:10455000100B01F017FCBAF1000FCDE90E0142D1AA
:104560009FED710B46B3A6F1E040B0F17F600CD037
:104570005E4538D1002D00DAA7B3022F0CBF012011
:104580004FF0FF30FCF729F8DCE7002D01DD002CAF
:104590000DDA002D01DD002C1FDB002D16DA002CBA
:1045A00014DB012F08BF9FED620B3FF42DAFB0EE7F
:1045B0004A0AF0EE6A0A27E7022F18BF002D0CD036
:1045C000012F0AD1002DFFF61FAF06E0002DB8BF66
:1045D000002C08DA012F3FF417AFB0EE480AF0EED6
:1045E000680A11E71BE0012000EBE57050EA0701C3
:1045F00015D0791EB0EE498AF0EE698A084308BFEB
:104600009FED4D8B4E480025804570DD4D494E484D
:10461000884514DDB0420DDB002C19DB2FE00120B2
:1046200000F05EFD16B0BDEC0E8B04B0BDE8F04DA1
:1046300000F016BDB34502DC002C09DC1FE0864209
:1046400002DA002C1BDA03E05E452BDD002C16DDC0
:10465000022000F045FD00F013FD8DED020B53EC40
:104660001A2B51EC180BFBF7D7FECDE9000103998B
:10467000019861F31E0003909DED020BC4E6022039
:1046800000F02EFD00F00CFD10EE901A18EE900ACE
:104690008DED020B8DED008B61F31E0003909DEDFF
:1046A000020BB1E69DED0E0B53EC192B51EC100BE8
:1046B000FBF7ACFE9FED260BCDE9080153EC102B68
:1046C0009DED080B51EC100BFBF7A6FE9FED221B96
:1046D00053EC112BFBF79DFE9DED081B53EC112BAA
:1046E000FBF79AFE9FED1E1B53EC112B3CE08CE078
:1046F000FFFF1F00FFFF0F00000000000000F03F61
:104700000000F03F0000F07F0000404301FCFFFF8D
:10471000000000000000F07F00000000000000002A
:10472000AE4A000000000000000000000000008011
:10473000000000000000F0FF000000000000F0BFDB
:104740000000E0410000F043FFFFEF3F00000000E9
:10475000000000000000D03F555555555555D53F38
:10476000000000000000E03FFBF753FE9DED080B4A
:1047700041EC1A0B53EC102B51EC100BFBF74CFED9
:1047800053EC1A2BFBF748FE41EC1A0B9FEDFE0B86
:1047900053EC102B9DED080B51EC100BFBF73CFE7E
:1047A00041EC1B0B9FEDFA0B51EC1A0B53EC102B49
:1047B000FBF732FE41EC1A0B9FEDF70B53EC102B7D
:1047C0009DED080B51EC100BFBF726FE53EC1A2B5A
:1047D000FBF71CFE41EC1A0B51EC1B0B53EC1A2B94
:1047E000FBF773FD0690CDE906519DED060B53ECEA
:1047F0001B2B51EC100BFBF709FE53EC1A2BFBF7AC
:1048000008FE41EC100B00F0A1B90020B6F5801FA6
:104810000EDA9FEDE30B53EC102B9DED0E0B51ECDC
:10482000100BFBF7F9FDCDE90E016FF034000E46D9
:1048300000EB2650A0F2FF37C6F31300DA4940F030
:104840007F6646F040568842D8BF002408DDD7492D
:104850008142C8BF012403DC0024A6F580167F1C1A
:10486000D348784400EBC4000F9690ED00CB9DED4B
:104870000E0B53EC1C2B51EC100BFBF7C7FD9DED01
:104880000E0B41EC1B0B53EC1C2B51EC100BFBF7EC
:104890001CFD41EC100B51EC190B53EC102BFBF7EA
:1048A0002DFE41EC1D0B51EC1B0B53EC1D2BFBF7AC
:1048B000B3FD41EC1A0BBF488DED10AB7844109559
:1048C00090ED000B4FF0005040EA660000EB844092
:1048D0008DED080B00F5002009909DED080B53ECC1
:1048E0001C2B51EC100BFBF791FD9DED0E1B53ECB7
:1048F000112BFBF78EFD41EC100B53EC102B9DEDB3
:10490000100B51EC100BFBF787FD9DED080B41ECF4
:104910001C0B53EC102B9DED100B51EC100BFBF707
:104920007BFD53EC1B2BFBF774FD53EC1C2BFBF7AF
:104930006DFD53EC1D2BFBF76FFD41EC1C0B53EC95
:104940001A2B51EC1A0BFBF767FD41EC1B0B9A4835
:104950000621B0EE4B0AF0EE6B0A784400F0E0FA64
:10496000B0EE401AF0EE601AB0EE41DAF0EE61DA25
:1049700053EC1B2B51EC1B0BFBF74EFD53EC1D2B8B
:10498000FBF74AFD9DED100B41EC1B0B53EC1A2B72
:1049900051EC100BFBF799FC53EC1C2BFBF73CFD87
:1049A00053EC1B2BFBF791FC9DED100B41EC1B0B0B
:1049B00053EC102B51EC100BFBF72EFD41EC1D0BB3
:1049C0009FED7FEB53EC1E2BFBF77FFC53EC1B2B77
:1049D000FBF77BFC0890CDE908519DED080B53ECEB
:1049E0001E2B51EC100BFBF711FD53EC1D2BFBF7AD
:1049F0000DFD53EC1B2BFBF70CFD9DED080B41EC63
:104A00001D0B53EC102B9DED100B51EC100BFBF715
:104A100003FD41EC1B0B53EC1A2B51EC1D0BFBF768
:104A2000FBFC9DED080B41EC1A0B53EC102B51ECE9
:104A30001C0BFBF7F1FC53EC1A2BFBF746FC41EC8B
:104A40001A0B51EC1B0B53EC1A2BFBF73EFC0C9092
:104A5000CDE90C519DED0C0B53EC1B2B51EC100BC5
:104A6000FBF7D4FC53EC1A2BFBF7D3FC41EC1B0BEC
:104A70009FED550B53EC102B9DED0C0B51EC100BD7
:104A8000FBF7CAFC41EC1A0B9FED510B51EC1B0BD1
:104A900053EC102BFBF7C0FC41EC1B0B9FED4E0BB6
:104AA00053EC102B9DED0C0B51EC100BFBF7B4FCF1
:104AB00053EC1B2BFBF709FC41EC100B48487844E6
:104AC00000EBC40090ED001B51EC100B53EC112BCC
:104AD000FBF7FBFB41EC1B0B3846FBF77EFDCDE9FA
:104AE000080153EC1B2B51EC1A0BFBF7EEFB41ECCE
:104AF000100B3C48784400EBC40090ED00CB51EC27
:104B0000100B53EC1C2BFBF7E0FB9DED081B53EC4B
:104B1000112BFBF7DAFB0690CDE906519DED080B52
:104B200053EC102B9DED060B51EC100BFBF76EFCBC
:104B300053EC1C2BFBF76AFC53EC1A2BFBF766FCBF
:104B400053EC1B2BFBF765FC41EC100B9DED261B7A
:104B500053EC102B8DED001B00959DED260B51ECB9
:104B6000100BFBF759FC9DED000B41EC1A0B53ECBD
:104B7000102B9DED260B51EC100BFBF747FC9DED28
:104B8000061B53EC112B2FE0000000604715F73F88
:104B9000FE822B654715F73F44DF5DF80BAE543EB0
:104BA00000000000000040438E9803007AB60B001E
:104BB0002A46000058460000624500000000000040
:104BC0000000000000000840000000E009C7EE3FC0
:104BD000FD033ADC09C7EE3FF5015B14E02F3EBE52
:104BE000EE430000A8430000FBF716FC53EC1A2B21
:104BF000FBF76BFB9DED060B41EC1A0B53EC102BF6
:104C00009DED000B51EC100BFBF706FCCDE90C0100
:104C10009DED0C0B51EC1A0B53EC102BFBF755FBD5
:104C2000CDE902010C46AA498C422FDB611A0843E8
:104C300018D19DED0C0B53EC102B9DED020B51EC9C
:104C4000100BFBF7E3FB41EC1B0B9FEDA30B51ECAF
:104C50001A0B53EC102BFBF738FB53EC1B2BFBF719
:104C60000DFD2DD2022000F03BFA00F009FA10EE03
:104C7000901A18EE900A8DED020B8DED008B61F30A
:104C80001E0003909DED020BFFF7BEBB944A24F07B
:104C90000041914214D39349214408437FF4EFAC7F
:104CA0009DED0C0B53EC102B9DED020B51EC100BFA
:104CB000FBF7ACFB53EC1A2BFBF7E0FC7FF6DFAC09
:104CC00024F000408849894A002601EB20518242A5
:104CD0002BDA481C4FF4801121FA00F02044844A5A
:104CE000C0F30A517A44A1F2FF3192ED000B814AE0
:104CF0008DED080BCA4020EA0202C0F3130040F415
:104D00008010C1F1140120FA01F60992002CB8BFFD
:104D100076429DED080B53EC102B9DED0C0B51ECE6
:104D2000100BFBF773FBCDE90C019DED0C0B51EC67
:104D30001A0B53EC102BFBF7C8FA9FED6F0B089082
:104D4000CDE9085153EC102B9DED080B51EC100BE5
:104D5000FBF762FB41EC1B0B9FED690B53EC102B37
:104D60009DED080B51EC100BFBF756FB9DED0C0B6A
:104D700041EC1C0B53EC102B9DED080B51EC100B70
:104D8000FBF744FB53EC1A2BFBF743FB9FED5E1B39
:104D900053EC112BFBF740FB53EC1C2BFBF795FA64
:104DA00041EC1A0B51EC1B0B53EC1A2BFBF78DFA51
:104DB000CDE902019DED020B53EC1B2B51EC100BC6
:104DC000FBF724FB53EC1A2BFBF723FB9DED020BA7
:104DD00041EC1A0B53EC102B51EC100BFBF71CFBA6
:104DE000CDE908014A489DED080B0521784400F003
:104DF00097F89DED081B51EC100B53EC112BFBF7B2
:104E00000BFB9DED021B53EC112BFBF702FBCDE9D5
:104E100006019DED020B53EC1A2B51EC100BFBF726
:104E2000FBFA53EC1A2BFBF750FA9FED3B0B41ECCE
:104E30001A0B53EC102B9DED060B51EC100BFBF7EE
:104E4000E5FA9DED060B41EC1B0B53EC102B9DED91
:104E5000020B51EC100BFBF7DFFA53EC1B2BFBF7AB
:104E60004DFB53EC1A2BFBF7D1FA9DED021B53ECD3
:104E7000112BFBF7CBFA53EC192BFBF7CAFACDE950
:104E8000020101EB065001150029C8BF039015DC93
:104E90009DED020B324651EC100BFBF767FDFFF75F
:104EA000FBF9042808BF00F0FBF832469DED020B29
:104EB00051EC100BFBF75AFDCDE902019DED020B01
:104EC00051EC180B53EC102BFBF7A6FAFFF73ABB8B
:104ED0000000904000000000FE822B654715973CC3
:104EE00000CC904000346F3F01FCFFFF0000E03F2A
:104EF00030420000FFFF0F0000000000432EE63F9D
:104F0000396CA80C615C20BEEF39FAFE422EE63FF8
:104F10000041000000000000000000000000004010
:104F200070B504462DED028B4D1E00EBC500B0EEB2
:104F3000408AF0EE608A90ED000B35F0060017D045
:104F400053EC182B51EC100BFBF766FA41EC100BED
:104F50006D1E04EBC50090ED001B51EC100B53ECE3
:104F6000112BFBF7B2F941EC100B35F00600E7D13D
:104F7000022D36D0042D1CD0062D1CBFBDEC028B9B
:104F800070BD53EC182B51EC100BFBF745FA94ED68
:104F90000A1B53EC112BFBF798F953EC182BFBF77A
:104FA0003BFA94ED081B53EC112BFBF78EF941EC07
:104FB000100B53EC182B51EC100BFBF72DFA94ED62
:104FC000061B53EC112BFBF780F953EC182BFBF766
:104FD00023FA94ED040B53EC102BFBF776F941EC1C
:104FE000100B53EC182B51EC100BFBF715FA94ED4A
:104FF000021B53EC112BFBF768F953EC182BFBF752
:105000000BFA94ED001B53EC112BFBF75EF9BDEC92
:10501000028B41EC100B70BD9FED070B10B553ECEC
:10502000102B9FED070B51EC100BFBF767FA41ECCF
:10503000100B10BD00000000000000000000000088
:10504000000000000000F03F10B553EC112B51ECB4
:10505000100BFBF73AF941EC100B10BD00000000FB
:105060009FED050B10B553EC102B51EC100BFBF71B
:1050700045FA41EC100B10BD0000000000000000DC
:105080009FED050B10B553EC102B51EC100BFBF7FB
:10509000C3F941EC100B10BD0000000000000070CF
:1050A0009FED050B10B553EC102B51EC100BFBF7DB
:1050B000B3F941EC100B10BD00000000000000101F
:1050C00002E008C8121F08C1002AFAD170477047D1
:1050D000002001E001C1121F002AFBD1704700002F
:1050E0000149086070470000980000202DE9FF5F2B
:1050F00082B00021DDE90430020DDDF840B0034349
:1051000018D044F61050A2F2FF3242431514119801
:1051100001281FD0A5EB0B00401C5FEA000A4FF0EE
:1051200000064E4FDFF83891B046504615D5CAF10B
:10513000000413E0119801244AA3012801D16FEA69
:105140000B010298119AC0E90031C0E9024206B091
:10515000BDE8F09FCBF10000DFE704460021404AA4
:10516000491842EB0450CDE9001012E0E00707D0E7
:1051700032463B4640464946FBF74EF98046894653
:1051800032463B4610461946FBF746F906460F469F
:105190006410002CEAD1DDE90401DDE90023BAF155
:1051A000000F06DAFBF738F942464B46FBF734F9B5
:1051B00005E0FBF7A3F942464B46FBF79FF904468F
:1051C0000E460022284BFBF759FA03D84FF0FF3068
:1051D000014607E00022254B20463146FBF775F8D3
:1051E000FBF7DBFB102409E0002C0ADB0A2200237A
:1051F000FBF78EFA039B30321A55641E50EA010207
:10520000F2D1641C039AC4F111031444119A012AC7
:1052100003D0012208430DD10AE0084304D0002046
:105220004FF0110B119072E7A3EB0B056D1E0DE013
:105230005B4504DD4FF0000205F1010504E003DAEF
:105240004FF00002A5F10105002AECD00298119957
:10525000C0E90231C0E9004579E7000000001440D0
:105260000000F03F300000000000F0430000E03F8D
:105270002DE9FF4F95B09B468946064600250FE273
:10528000252877D100242746F84A0121059400E01B
:10529000044316F8013F203B01FA03F01042F7D116
:1052A00030782A2811D06FF02F033078A0F1300227
:1052B000092A16D8059A44F0020402EB820203EB95
:1052C00042021044761C0590EFE759F8042B059232
:1052D000002A03DA504244F40054059044F00204DA
:1052E000761C30782E2816D116F8010F44F00404ED
:1052F0002A280DD06FF02F023078A0F13003092B4F
:1053000009D807EB870302EB4303C718761CF3E7C2
:1053100059F8047B761C30786C280FD006DC4C28BA
:1053200017D068280DD06A2814D104E0742810D052
:105330007A280FD10DE044F400140AE044F48014FC
:1053400001E044F440147278824202D104F58014E2
:10535000761C761C307866280BD013DC582877D062
:1053600009DC002875D04528F6D04628F4D0472817
:105370001AD19DE118E0632835D0642879D06528DA
:1053800012D195E1702873D008DC6728F1D0692824
:105390006FD06E280DD06F2806D1B5E073282CD0C1
:1053A000752875D0782874D05A46179990476D1C87
:1053B00075E1C4F30250022809D003280DD0D9F8B2
:1053C000001004280DD00D6009F1040967E1D9F837
:1053D0000010EA17C1E90052F6E7D9F800100D8075
:1053E000F2E70D70F0E719F8041B8DF800100020AB
:1053F0008DF80100EA46012003E059F804AB4FF0B4
:10540000FF3061074FF0000102D40DE008F1010107
:105410008846B9420FDA8045F8DB1AF808100029EF
:10542000F4D108E008F1010188468142FADB1AF85C
:1054300008100029F6D105985B46A0EB0807214625
:105440003846179A00F094FA284400EB080507E064
:105450004DE029E10DE01AF8010B5A4617999047E3
:10546000B8F10108F7D25B4621463846179A13E196
:1054700042E00A220092C4F302524FF0000A022ACC
:1054800008D059F804CB032A4FEAEC710AD00DE09A
:1054900029E02AE009F1070121F00702F2E802C140
:1054A000914609E00FFA8CFC4FEAEC71042A03D113
:1054B0004FFA8CFC4FEAEC71002907DA0A4600210A
:1054C000DCF1000C61EB02012D2202E0220504D583
:1054D0002B228DF80420012203E0E20701D02022D4
:1054E000F7E7904659E00A2102E010220DE0102172
:1054F0004FF0000A00910BE010224FF0000A44F038
:1055000004040827009203E008224FF0000A0092EA
:10551000C4F30252022A05D059F804CB0021032A11
:1055200008D009E009F1070121F00702F2E802C101
:10553000914605E01FFA8CFC042A01D10CF0FF0C07
:105540004FF00008220728D5702806D0009B83F072
:10555000100353EA0A0305D00EE040228DF8042020
:10556000012208E05CEA010206D030228DF8042016
:105570008DF8050002229046009B83F0080353EA51
:105580000A030AD15CEA010201D1620705D5302283
:105590008DF804204FF001087F1E582804D034A055
:1055A00003900EA802900DE036A0F9E7534660463E
:1055B000009AFBF7ADF884460398825C0298401E7F
:1055C000029002705CEA0100F0D1029806A9081A64
:1055D00000F1200A600702D524F4803400E001279E
:1055E000574502DDA7EB0A0000E0002000EB0A01AE
:1055F000009005984144401A0590E00306D45B46AC
:105600002146179A059800F0B3F90544002706E0F3
:1056100001A85A46C05D179990476D1C7F1C4745ED
:10562000F6DBE0030CD55B462146179A059800F09F
:105630009FF9054404E030205A46179990476D1CA5
:105640000099481E00900029F5DC08E002980299B4
:105650005A460078491C0291179990476D1CBAF17F
:105660000001AAF1010AF1DC65E10000092801004E
:1056700030313233343536373839616263646566C8
:10568000000000003031323334353637383941428A
:10569000434445460000000000F058F90544761CDC
:1056A000307800287FF4ECAD19B02846BDE8F08FC3
:1056B000620700D4062709F1070222F0070CFCE874
:1056C0000223E14603F000485FEA080C02D00FF223
:1056D000702C0DE05FEA045C02D50FF2682C07E045
:1056E0005FEAC47C02D00FF2602C01E0AFF2700CD4
:1056F0004FF0FF3823F00043CDF850C065280CD0A0
:1057000006DC452809D046281DD047283DD13DE07C
:10571000662818D067287ED138E00021112F01DBE0
:10572000112000E0781CCDE9000106A90EA8FFF7C2
:10573000DDFCDDE90F010E9A03910021009207F1D3
:10574000010A04914DE04FF000400097CDE90110AF
:1057500006A90EA8FFF7CAFCDDE90F0203920E9B13
:1057600011990022DDF80CA00093049211B9791C64
:1057700000EB010AB7EB0A0004D4C0F1FF3007F1D7
:10578000010A0490AAEB0700019044E0012F00DA1F
:1057900001270021112F01DD112000E03846CDE95D
:1057A000000106A90EA8FFF7A1FCDDE90F010E9A82
:1057B0000391002104910092BA4621070CD4039969
:1057C000514500DA8A46BAF1010F05DD009AAAF1C7
:1057D0000101515C302908D0B84202DA10F1040FFF
:1057E00006DA0121CDE9011015E0AAF10101E9E78E
:1057F000002805DC049901440491AAEB000102E0B1
:10580000411C514500DD8A460499401A401C019014
:105810004FF000400290200704D40198504501DB6E
:10582000CDF8048000208DF84F0002980DF14F074D
:10583000B0F1004F25D02B200E9002984FF00208B7
:1058400000280CDA404202902D200E9007E00A2139
:105850000298FAF747FF3031029007F8011DB8F1BE
:105860000001A8F10108F2DC02980028EFD1791EAE
:105870000E980870307800F0200040F0450007F8DE
:10588000020D12A8C01B00F107081498007800B19F
:10589000012000EB0A01019801EBE07105984144F9
:1058A000401A401E0590E00306D45B462146179A35
:1058B000059800F05DF805441498007818B15A4630
:1058C000179990476D1CE00324D55B462146179A33
:1058D000059800F04DF805441CE00498002807DB0B
:1058E000DDE90301884203DD0098405C179901E07F
:1058F000179930205A469047049805F10105401C3D
:1059000004900198401E019004D12E205A46179908
:1059100090476D1CBAF10001AAF1010ADDDC05E037
:1059200017F8010B5A46179990476D1CB8F1000102
:10593000A8F10108F4DC5B462146179A0598ABE60E
:105940002D0000002B000000200000002DE9F04198
:10595000044600251E461746880404D405E039464F
:105960002020B0476D1C641EF9D52846BDE8F081A3
:105970002DE9F041044600251E469046C80301D596
:10598000302700E02027880404D505E0414638464A
:10599000B0476D1C641EF9D52846BDE8F0814A6801
:1059A000002A06D00A68531C0B6010704868401E1D
:1059B000486070470A68531C0B6010707047000005
:1059C00070B504460F4D4FF4AF76012C0AD1162165
:1059D0002846FEF749FA304600F0A0F90F21284684
:1059E000FEF742FA002C0CD107212846FEF73CFABC
:1059F000304600F093F92846BDE870400F21FEF7CD
:105A000033BA70BD0008004070B53B4D0321A87843
:105A1000B0FBF1F201FB1200A87005F13C04642018
:105A2000216891FBF0F200FB1211216061684FF4D4
:105A30007A7291FBF2F302FB13116160A16891FB92
:105A4000F0F200FB1210A0606878002803D14FF636
:105A5000FF70FCF7CBF80120687028A12A48FEF7F8
:105A6000F1FB0022284B11462020FBF75DFA27A10D
:105A700025482268FEF7E6FB0022234B1E21104634
:105A8000FBF752FA23A120486268FEF7DBFB0022F5
:105A90001D4B3C211046FBF747FA21A11A48A2688A
:105AA000FEF7D0FB0022184B5A211046FBF73CFAB8
:105AB0000020FCF737F800280AD0012809D0022876
:105AC0000ED0032810D0042802D1A878401CA8705A
:105AD00070BDA87854F82010491E44F8201070BDFD
