:020000040800F2
:10000000A0040020AD010008C10A00083104000866
:10001000BF0A0008F5010008E11500080000000013
:10002000000000000000000000000000810D00083A
:1000300093020008000000002D0B0008950F000837
:10004000C7010008C7010008C7010008C701000870
:10005000C7010008C7010008C7010008C701000860
:10006000C7010008C7010008C7010008C701000850
:10007000C7010008C7010008C7010008C701000840
:10008000C7010008C7010008C70100080000000000
:10009000000000000000000000000000C701000890
:1000A000C7010008C7010008C7010008C701000810
:1000B000C701000811110008C7010008C7010008A6
:1000C000C7010008C7010008C7010008C7010008F0
:1000D000C70100084D130008C70100080000000018
:1000E000C7010008C7010008C701000800000000A0
:1000F000000000000000000000000000C701000830
:1001000000000000C7010008C7010008C70100087F
:1001100000000000000000000000000000000000DF
:10012000C7010008C7010008C7010008C70100088F
:10013000C7010008000000000000000000000000EF
:10014000000000000000000000000000C7010008DF
:10015000C7010008C7010008C7010008C70100085F
:10016000C7010008C70100080000000000000000EF
:10017000000000000000000000000000000000007F
:1001800000000000C701000800000000000000009F
:10019000C7010008C7010008DFF80CD000F018F80C
:1001A000004800475D160008A0040020064880476C
:1001B00006480047FEE7FEE7FEE7FEE7FEE7FEE74C
:1001C000FEE7FEE7FEE7FEE71510000899010008CC
:1001D000064C074D06E0E06840F0010394E8070094
:1001E00098471034AC42F6D3FFF7DAFFAC3A000878
:1001F000CC3A0008FEE700002DE9F043814688462E
:1002000015461E4600240B4F04EB041117F811008D
:10021000A84209D107EB41014878B04204D1891CBA
:100220004246484600F02AF8641CA4B2382CEBD3AE
:10023000BDE8F083F02F00082DE9F04381468846A1
:1002400015461E4600240C4F04EB840000EB4410BE
:1002500017F81010A94209D107EB40014878B042C5
:1002600004D1891C4246484600F008F8641CA4B238
:10027000092CE9D3BDE8F083C637000810B5002388
:1002800004E011F8014B00F8014B5B1C9342F8D3DA
:1002900010BD704703480168002902D00168491E5B
:1002A00001607047180000202DE9FF4114461D46EB
:1002B000084B1A88121A92B25B885B1A9BB200260E
:1002C0001027CDE90057CDE9024600F009FEBDE850
:1002D000FF810000900000202DE9FF4114461D46DB
:1002E000084B1A88121A92B25B885B1A9BB20026DE
:1002F0001827CDE90057CDE9024600F0F1FDBDE831
:10030000FF810000900000201CB50121042000F0B6
:100310000FFC4FF40050009000208DF805000121E3
:100320008DF804108DF806008DF807006946024824
:1003300000F004F81CBD0000000802402DE9F04167
:10034000002201274FF0030C07FA02F50B682B403F
:10035000AB422CD1066853000CFA03F4A6430660A6
:100360000E79D0F800809E4046EA080606600E79B5
:10037000012E01D0022E12D18668A64386604E79E6
:10038000D0F808809E4046EA080686604668AE437C
:10039000466045688E799640B6B235434560C5687B
:1003A000A543C560CC799C40C3681C43C460521C03
:1003B000102AC9D3BDE8F08110B54B07DB0E9A4077
:1003C000C90800EB8100016A0F249C40A14301622F
:1003D000016A1143016210BD418370470183704778
:1003E00030B405460846144619462A786B78812AA7
:1003F0000FD3402B0DD3FF2B0BD0FF2A09D00C2994
:1004000010D0102910D018290CD1214630BCFFF78C
:1004100013BF0021002203E000F8012B491CC9B2E0
:10042000A142F9D330BC7047214630BCFFF7E4BE8F
:10043000FEE700001CB50121084600F079FB012011
:10044000009000218DF8041003218DF805108DF81F
:10045000070069460148FFF771FF1CBD000002401C
:100460002DE9F041074600240C4E00210846738810
:10047000328800F00BFA3588708845430021084621
:1004800000F0D8F900F00CFB03E0384600F0BCFAAD
:10049000641CAC42F9D3BDE8F0810000900000205C
:1004A0002DE9F041002680212C222A232A4D2B4CB5
:1004B0004FF02B0C00281AD0012825D00127022844
:1004C0002FD003283AD0A6712180618022816381D8
:1004D000A4F80CC0C821362000F0E8FA2E7063881A
:1004E0002288BDE8F0410021084600F0CFB9A6718E
:1004F0002180618022816381A4F80CC0C82136204C
:1005000000F0D4FA2E70EAE7A67121806180228182
:100510006381A4F80CC04821362000F0C7FA2E7081
:10052000DDE7A7712180618022816381A4F80CC07E
:10053000A821362000F0BAFA2F70D0E7A7712180E9
:10054000618022816381A4F80CC06821362000F00C
:10055000ADFA2F70C3E700003800002090000020A3
:1005600010B5144600F066F90448008900F080FADE
:100570002046BDE8104000F047BA0000900000207F
:100580001CB50121022000F0D3FA41F20440009092
:1005900001208DF8040000218DF8061003218DF84C
:1005A00005108DF80700074C69462046FFF7C6FE88
:1005B00000F04EFB00F008F821152046FFF70EFF73
:1005C0001CBD00000004024010B5094C4FF48041EE
:1005D0002046FFF701FF322001F02CF804212046CD
:1005E000FFF7FCFEBDE810401E2001F023B800001C
:1005F0000004024010B5FFF7C3FF00F0FBF9112023
:1006000000F036FA782001F015F8B12000F030FA49
:10061000012000F015FA2C2000F012FA2D2000F035
:100620000FFAB22000F024FA012000F009FA2C2081
:1006300000F006FA2D2000F003FAB32000F018FABB
:10064000012000F0FDF92C2000F0FAF92D2000F037
:10065000F7F9012000F0F4F92C2000F0F1F92D2039
:1006600000F0EEF9B42000F003FA072000F0E8F9FA
:10067000C02000F0FDF9A22000F0E2F9022000F015
:10068000DFF9842000F0DCF9C12000F0F1F9C52089
:1006900000F0D6F9C22000F0EBF90A2000F0D0F902
:1006A000002000F0CDF9C32000F0E2F98A2000F02C
:1006B000C7F92A2000F0C4F9C42000F0D9F98A2033
:1006C00000F0BEF9EE2000F0BBF9C52000F0D0F933
:1006D0000E2000F0B5F9362000F0CAF9C82000F06D
:1006E000AFF9E02000F0C4F90F2000F0A9F91A20BA
:1006F00000F0A6F90F2000F0A3F9182000F0A0F9EF
:100700002F2000F09DF9282000F09AF9202000F019
:1007100097F9222000F094F91F2000F091F91B2096
:1007200000F08EF9232000F08BF9372000F088F9D3
:10073000002000F085F9072000F082F9022000F087
:100740007FF9102000F07CF9E12000F091F90F20F2
:1007500000F076F91B2000F073F90F2000F070F91B
:10076000172000F06DF9332000F06AF92C2000F01A
:1007700067F9292000F064F92E2000F061F930209B
:1007800000F05EF9302000F05BF9392000F058F9F4
:100790003F2000F055F9002000F052F9072000F04A
:1007A0004FF9032000F04CF9102000F049F92A20FD
:1007B00000F05EF9002000F043F9002000F040F95D
:1007C000002000F03DF97F2000F03AF92B2000F0E6
:1007D0004FF9002000F034F9002000F031F900203A
:1007E00000F02EF99F2000F02BF9F02000F040F9E6
:1007F000012000F025F9F62000F03AF9002000F081
:100800001FF93A2000F034F9052000F019F92920E9
:1008100000F02EF90020FFF743FE4FF480610448FA
:10082000FFF7DCFDBDE810404FF6FF70FFF718BE84
:100830000004024070B506460D461248124C01787D
:10084000608900290ED000F013F9F61CB0B200F058
:10085000DBF8A08900F00CF9AD1CA8B2BDE870402F
:1008600000F0D2B800F004F9B61CB0B200F0CCF839
:10087000A08900F0FDF8ED1CA8B2BDE8704000F0C2
:10088000C3B8000038000020900000202DE9F0419E
:1008900004460D46A018401E86B2E818401E87B2D6
:1008A0001B48DFF870800178B8F80A00002917D0DB
:1008B00000F0DEF8E41CA0B200F0A6F8F61CB0B21E
:1008C00000F0A2F8B8F80C0000F0D2F8AD1CA8B205
:1008D00000F09AF8BF1CB8B2BDE8F04100F094B83F
:1008E00000F0C6F8A41CA0B200F08EF8B61CB0B29E
:1008F00000F08AF8B8F80C0000F0BAF8ED1CA8B2C5
:1009000000F082F8FF1CB8B2BDE8F04100F07CB8FE
:1009100038000020900000202DE9F84F82460C4658
:100920001F46A346780701D0012000E0002000EB1D
:10093000D70079084843C0B20090203A02F0FF097E
:10094000002648E00C2F13D0102F18D0182F45D1B7
:10095000234909EBC90001EB8000855D4FF00008D9
:10096000280611D5214650460A9AFFF7F9FD13E0F3
:100970001C4909EB490001EB8000855DEEE71A4850
:1009800000EB0910855DE9E70B9828B91748214667
:1009900082885046FFF7E4FD6806050E641CA4B289
:1009A00013484088A04219D9A4EB0B00B84209D1E2
:1009B0005C460AF1010A1FFA8AFA0D480088504580
:1009C0000CD906E008F1010808F0FF08B8F1080F9B
:1009D000C6D3761CF6B200988642B3D3BDE8F88F32
:1009E0009422000830180008A41C000838000020D9
:1009F0009000002010B5012000F03AF8BDE810404A
:100A0000322000F017BE000070B504460B4E4FF4C4
:100A1000805529463046FFF7DFFC04213046FFF7BA
:100A2000DDFC200A00F074F9E0B200F071F929460B
:100A30003046BDE87040FFF7D1BC00000004024022
:100A400070B50646094D4FF4805421462846FFF7FD
:100A5000C3FC04212846FFF7C1FC304600F058F9DA
:100A600021462846BDE87040FFF7B8BC00040240AC
:100A700070B50446094E4FF4805529463046FFF7BD
:100A8000ABFC04213046FFF7A7FCE0B200F040F9D0
:100A900029463046BDE87040FFF7A0BC0004024084
:100AA00001480089FFF7E4BF9000002010B50C4614
:100AB000FFF7DEFFE0B2BDE81040FFF7C1BFFEE781
:100AC0007047000030B50F23C27801250178002A55
:100AD0001FD0154A126802F4E062C2F5E062C2F368
:100AE0000722C2F10404D3404278A24084781C401B
:100AF0001443220101F1E02181F80024007800F084
:100B00001F018D404009800000F1E020C0F8005135
:100B100030BD01F01F0085404809800000F1E02051
:100B2000C0F8805130BD00000CED00E070470000BF
:100B3000054A002903D0116801431160704711680C
:100B4000814311607047000030380240054A002997
:100B500003D011680143116070471168814311602F
:100B60007047000040380240054A002903D0116850
:100B700001431160704711688143116070470000A4
:100B800020380240054A002903D011680143116052
:100B9000704711688143116070470000443802407B
:100BA0000149C864704700000000474270B5244BFB
:100BB000196801F00C01234C00291ED0224E042993
:100BC0001DD008291DD00460196801F0F001090941
:100BD0001E4A545C0168E14041601C6804F4E05422
:100BE000A40A145D21FA04F484601B6803F46043D2
:100BF0005B0BD25CD140C16070BD0460E4E706606D
:100C0000E2E70F4A121F1168C1F38055116801F025
:100C10003F0135B1B6FBF1F11468C4F388146143A8
:100C200005E0B4FBF1F11468C4F388146143126861
:100C3000C2F30142521C5200B1FBF2F10160C3E762
:100C4000083802400024F40040787D01280000208C
:100C50002DE9F04188B001210220FFF769FF012151
:100C60008F033846FFF772FF4FF46040069002256D
:100C70008DF81C5000248DF81E408DF81D50012663
:100C80008DF81F60DFF8808006A94046FFF756FB0D
:100C900005220D214046FFF78FFB05220E2140461D
:100CA000FFF78AFB05220F214046FFF785FB012154
:100CB0003846FFF759FF00213846FFF755FFADF8DA
:100CC00004404FF48270ADF80600ADF80840ADF86E
:100CD0000A50ADF80C602802ADF80E00ADF81040D7
:100CE000ADF812400720ADF81400084C01A92046C9
:100CF00000F02AF80121204600F01AF8FF2000F049
:100D000007F808B0BDE8F081000402400038004058
:100D100006490A889207FCD5044A121D10800888EB
:100D2000C007FCD01088C0B27047000008380040EF
:100D3000002904D0018841F04001018070470188FA
:100D400021F040010180704730B5028802F4415320
:100D50000A884C88CD8822438C882C4322430C89F6
:100D600022434C8922438C892243CC8922431A4353
:100D70000280828B22F400628283098A018230BD64
:100D8000704700000CB500220192009226490868C5
:100D900040F4803008604FF4A043086800F400304D
:100DA00000900198401C0190009810B90198984259
:100DB000F3D10868800302D50120009000E0009282
:100DC000009801282FD118484030026842F0805224
:100DD00002601648026842F440420260124808303D
:100DE0000268026002680260026842F48052026097
:100DF000031F0F4A1A600A6842F080720A600A688C
:100E00009201FCD50B4940F202720A60016821F0A0
:100E100003010160016841F0020101600168C1F352
:100E200081010229FAD10CBD003802400070004057
:100E300019304004003C02402DE9F04F93B00446C5
:100E40008A4615461F46A146780701D0012000E0DA
:100E5000002000EBD7007843C0B200900C2F03D0E5
:100E6000102F01D0182F36D13B4601A92846009AF1
:100E7000FFF7B6FA4FF000082AE001A810F8086062
:100E80000025DFF858B0300605D5514620461C9A9B
:100E9000FFF766FB07E01D9828B9BBF80020514614
:100EA0002046FFF75DFB7006060E641CA4B2A4EB9F
:100EB0000900B84204D14C460AF1010A1FFA8AFA25
:100EC0006D1CEDB2082DDED308F1010808F0FF0813
:100ED00000988045D1D313B0BDE8F08F3C000020CE
:100EE0002DE9FF4F83B00446DDE910750E469346A9
:100EF000A046B2464FF000091EE0B9F1000F21D024
:100F00004FF0000908EB0B00401BA04202DA7019F9
:100F100086B2444606985044401BB0420FDBDDE9E0
:100F20001201CDE900012B463A4631462046FFF733
:100F300083FFBF1C601984B23A78002ADDD107B064
:100F4000BDE8F08F802A02D94FF00109F4E708EBE1
:100F50000B00A0EB5500A04202DA701986B244469D
:100F600006985044401BB042E9DB0D2A0DD0DDE964
:100F70001201CDE900012B4631462046FFF7CCFC9B
:100F80007F1C04EB550084B2D6E7701986B2444644
:100F90007F1CF5E7FFF77EB970B50022194D286870
:100FA00000F00C00184B194900280FD0184E0428E7
:100FB0000ED008280ED00B602868144AC0F3031026
:100FC000121D105C0A68C2400A6070BD0B60F3E736
:100FD0000E60F1E70B48001F0368C3F380530468F9
:100FE00004F03F042BB1B6FBF4F20368C3F388139B
:100FF0005A430068C0F30140401C4000B2FBF0F0CF
:101000000860D9E7083802400024F40004000020FA
:1010100040787D0110B51248016841F4700101600B
:101020001048016841F0010101600E4A00210832B8
:10103000116002680C4B1A400260031D0B4A1A60D3
:10104000026822F48022026006480C300160FFF73B
:1010500099FE03494FF000608039086010BD000020
:1010600088ED00E000380240FFFFF6FE103000245B
:101070002DE9F0418AB006460D4601210846FFF7EA
:1010800065FD01210220FFF753FDDFF8808001227A
:101090000A214046FFF790F94FF480600890022043
:1010A0008DF8240003208DF8250000248DF82640BB
:1010B00001278DF8277008A94046FFF73FF9ADF8E2
:1010C0001450ADF816400696ADF81C40BD0705A9B2
:1010D000284600F0E3F86021ADF80010ADF802708A
:1010E000ADF80C406946284600F08EF808212846E5
:1010F00000F0CCF80121284600F054F801212846E0
:1011000000F05FF80AB0BDE8F08100000004024082
:1011100010B50B4C0121204600F05FF8012806D1E4
:101120000849D1F8B40240B10020C1F8B402204609
:10113000BDE81040012100F041B80120F5E70000B2
:1011400000040040000041427FB504460D460121E5
:101150000220FFF7FBFC0294ADF804500020ADF82C
:101160000600ADF80C000E4C01A9204600F096F8E0
:1011700001221146204600F03CF80121204600F0F3
:1011800020F81D208DF8000001208DF801000321BA
:101190008DF802108DF803006846FFF793FC7FBDC1
:1011A00000040040002904D0018841F08001018042
:1011B0007047018821F0800101807047C943018296
:1011C0007047002904D0018841F001010180704777
:1011D000018821F001010180704702460020138A36
:1011E0000B4092890A40002B02D0002A00D0012037
:1011F0007047002A03D082890A438281704782891E
:101200008A4382817047000070B5028C22F480729C
:101210000284028C8388848B24F0700424F00304FD
:101220000D88254322F400728E894FF6FF7404EA7C
:10123000062616434A8804EA02223243114EB0427F
:1012400002D0114EB04217D122F40066CA8904EAD6
:101250000222324322F480668A8804EA0222324360
:1012600023F4805323F400530E8A04EA06161E4327
:101270004B8A04EA03133343838085838968C163FF
:10128000028470BD0000014000040140828B22F006
:1012900008020A4382837047C163704730B50288F1
:1012A000164C174DA0420DD0A8420BD0B0F1804F84
:1012B00008D0144B984205D0134B984202D0134BE0
:1012C000984203D122F070034A881A43104B984287
:1012D00006D0104B984203D022F440730A891A4377
:1012E00002804A68C2620A880285A04201D0A842F0
:1012F00001D1897A01860121818230BD000001403F
:10130000000401400004004000080040000C0040C0
:1013100000100040001400402DE9F04105460E4643
:101320000024094F0BE08021384600F0B1F8002876
:10133000F9D02978384600F04FF96D1C641CB4428E
:10134000F1D3BDE8F08100000010014010B5144C4D
:1013500040F22551204600F0A2F800281FD0204678
:1013600000F036F90F4A516801F8010B51605088BE
:10137000401C80B250800C49402802D951600020A6
:101380005080508801280AD9084410F8021C0D2901
:1013900005D110F8010C0A2801D10120107010BDF0
:1013A000001001401C00002050000020F0B587B064
:1013B00005462C482A49416001210846FFF7B8FB41
:1013C00001211020FFF7DEFB274F072209213846B5
:1013D000FEF7F2FF07220A213846FEF7EDFF4FF431
:1013E000C060059002218DF818108DF819100024A6
:1013F0008DF81A4001268DF81B6005A93846FEF7C6
:101400009DFF0195ADF80840ADF80A40ADF80C40DD
:10141000ADF810400C20ADF80E00144C01A9204688
:1014200000F078F80121204600F026F840212046FF
:1014300000F01EF8012240F22551204600F04FF83E
:1014400025208DF8000003208DF801008DF80200A2
:101450008DF803606846FFF735FB07B0F0BD00006C
:10146000500000201C00002000000240001001403D
:101470008A05C94301807047002904D0818941F45D
:10148000005181817047818921F400518181704729
:101490000246002012880A4200D00120704770B531
:1014A000002440F66A12C1F3421301F01F05012621
:1014B00006FA05F2012B0CD0022B0DD0838A1340C3
:1014C000090A8E40008830400BB100B1012420464B
:1014D00070BD83891340F3E7038A1340F0E710B52A
:1014E00040F66A13C1F3421301F01F040121A14029
:1014F000012B07D0022B07D014303AB102680A43FF
:10150000026010BD0C30F8E71030F6E702688A433D
:10151000026010BD7FB504460D46208A20F440517C
:10152000E88808432082A08941F20C618843A98899
:101530002A8911436A8902431143A181A08A20F4B8
:101540004071A8890843A0826846FFF72FFB1E4818
:10155000844202D01D48844201D1039800E00298E1
:10156000A189090408D500EBC00101EB001029682E
:101570004900B0FBF1F007E000EBC00101EB001007
:1015800029688900B0FBF1F06422B0FBF2F1090197
:101590000B096FF018056B4300EB8300A3891D0452
:1015A0004FF0320307D503EBC000B0FBF2F000F0C0
:1015B0000700084306E003EB0010B0FBF2F000F078
:1015C0000F00084320817FBD00100140001401403E
:1015D0008088C0F308007047C1F30801818070471C
:1015E000FEE70000014A024900F013B8491600085E
:1015F0002400002002E008C8121F08C1002AFAD106
:1016000070477047002001E001C1121F002AFBD182
:1016100070472DE9F04116460F460446002503E0C9
:101620003946B047641C6D1C20780028F8D1284644
:10163000BDE8F08101B50348009901600168002907
:10164000FCD108BD1800002003490A885206FCD5C9
:10165000C2B28A8070470000001001400120FFF7ED
:101660009FFAFFF799FC4048FFF7A0FA3E484FF475
:101670007A714068B0FBF1F0401E0026B0F1807F27
:1016800008D24FF0E0214861384AF02010708E6196
:10169000072008613220FFF7CDFFFEF735FE4FF43B
:1016A000E130FFF783FEFEF7A5FF4FF6FF70FEF770
:1016B000D7FE2FA34FF4784202210C20FEF70CFE38
:1016C0002EA31F221E210420FEF706FE2FA31F2299
:1016D0003C210420FEF7E8FD31A31F225021042005
:1016E000FEF7E2FDFEF7A6FE34A0FFF77BFF41F216
:1016F000BF2141F28730FFF727FD2F2140F2E7306D
:10170000FFF7B6FC39480660394D3A4C4FF4FA778A
:101710004FF08048287801280FD12E7036A0FFF7AF
:1017200061FFDFF800914048B9F80010FFF7F4FDC1
:101730003E493D480860A9F800600A20FFF77AFF9B
:10174000207818B16088401C608002E06088401EEC
:1017500060806188B94200D9267009B901202070E3
:101760004046FFF799FDD5E74000002023ED00E05B
:1017700054494D322D50574D2000000020B4F3D471
:10178000BDB4B4D0C2202020000000002F6D6375CE
:101790006465762E74616F62616F2E636F6D0000F9
:1017A0002F73686F703338393935373239302E74CA
:1017B000616F62616F2E636F6D0000000D0A205330
:1017C000544D333246347831BFAAB7A2B0E5205425
:1017D000494D322D50574DA3A850423130CAE4B381
:1017E000F6A3A920CAB5D1E90D0A0000B40241420E
:1017F0001C000020000000200D0A2053544D3332FD
:1018000046347831BFAAB7A2B0E520B4AEBFDA3112
:1018100020BDD3CAD5B5BDB5C4CAFDBEDDCAC7A3F8
:10182000BA0D0A001E0000205000002020000020F9
:1018300000000000000000000000000000000000A8
:101840003F40000000000000000030004000300079
:101850004000000009000BC03D000BC03D00090026
:1018600018C024407FE0224031800000180024C0CE
:101870001B000D803240018003801C4027401C80EB
:101880000740004010006000000000000000000061
:101890000000000000001F80204040200000402089
:1018A00020401F8000000000090006001F80060085
:1018B00009000000040004003F8004000400000050
:1018C00000100060000000000000000004000400A0
:1018D00004000400040000000000004000000000BC
:1018E00000000000002001C0060038004000000099
:1018F0001F802040204020401F800000000010403A
:101900003FC000400000000018C021402240244099
:101910001840000010802040244024401B8000001C
:1019200002000D0011003FC0014000003C80244037
:1019300024402440238000001F8024402440344061
:10194000038000003000200027C038002000000085
:101950001B802440244024401B8000001C0022C027
:10196000224022401F8000000000000008400000CC
:101970000000000000000000046000000000000003
:10198000000004000A001100208040400900090006
:1019900009000900090000000000404020801100FB
:1019A0000A00040018002000234024001800000052
:1019B0001F802040274029401F400000004007C0F2
:1019C00039000F0001C0004020403FC024402440A7
:1019D0001B8000001F8020402040204030800000FD
:1019E00020403FC0204020401F80000020403FC0DA
:1019F00024402E4030C0000020403FC024402E0034
:101A0000300000000F001080204022403380020090
:101A100020403FC0040004003FC020402040204040
:101A20003FC02040204000000060202020203FC018
:101A30002000200020403FC024400B0030C0204048
:101A400020403FC020400040004000C03FC03C005C
:101A500003C03C003FC0000020403FC00C402300BA
:101A60003FC020001F802040204020401F800000F9
:101A700020403FC024402400180000001F80214067
:101A8000214020E01FA0000020403FC0244026004D
:101A900019C0004018C0244024402240318000007A
:101AA000300020403FC020403000000020003F8038
:101AB000004000403F80200020003E0001C00700A1
:101AC00038002000380007C03C0007C03800000084
:101AD000204039C0060039C02040000020003840B6
:101AE00007C0384020000000304021C02640384068
:101AF00020C00000000000007FE0402040200000E7
:101B0000000070000C000380004000000000402036
:101B100040207FE000000000000020004000200086
:101B20000000000000100010001000100010001055
:101B300000000000400000000000000000000280E3
:101B40000540054003C0004020003FC00440044061
:101B500003800000000003800440044006400000B1
:101B600000000380044024403FC000400000038088
:101B70000540054003400000000004401FC0244011
:101B800024402000000002E00550055006500420CB
:101B900020403FC00440040003C000400000044057
:101BA00027C000400000000000100010041027E0D3
:101BB0000000000020403FC00140070004C0044076
:101BC000204020403FC000400040000007C004000B
:101BD00007C0040003C00000044007C00440040024
:101BE00003C0004000000380044004400380000064
:101BF000041007F00450044003800000000003803C
:101C00000440045007F00010044007C002400400E4
:101C100004000000000006400540054004C000002C
:101C2000000004001F800440004000000400078002
:101C30000040044007C000400400070004C00180C9
:101C400006000400060001C0070001C006000000F5
:101C5000044006C0010006C0044000000410071044
:101C600004E00180060004000000044005C00640B6
:101C7000044000000000000004007BE04020000061
:101C8000000000000000FFF0000000000000402005
:101C90007BE00400000000004000800040002000C5
:101CA00020004000000000000000000000000000D4
:101CB000000000000000000000001FCC000C00002D
:101CC0000000000000000800300060000800300044
:101CD00060000000022003FC1E20022003FC1E20E6
:101CE0000220000000000E1811043FFF10840C7841
:101CF000000000000F0010840F3800C0077818841F
:101D00000078000000780F8410C411240E9800E4BD
:101D10000084000808006800700000000000000057
:101D20000000000000000000000007E01818200478
:101D300040020000000040022004181807E00000E4
:101D4000000000000240024001800FF001800240CC
:101D5000024000000080008000800FF800800080BA
:101D6000008000000001000D000E000000000000D7
:101D700000000000000000800080008000800080E3
:101D8000008000800000000C000C0000000000003B
:101D9000000000000000000600180060018006003E
:101DA00018002000000007F00808100410040808BC
:101DB00007F000000000080408041FFC00040004F1
:101DC0000000000000000E0C1014102410441184B8
:101DD0000E0C000000000C181004110411041288ED
:101DE0000C700000000000E00320042408241FFC05
:101DF0000024000000001F981084110411041088B2
:101E000010700000000007F0088811041104188801
:101E10000070000000001C00100010FC13001C00EB
:101E20001000000000000E3811441084108411448A
:101E30000E38000000000700088C10441044088889
:101E400007F00000000000000000030C030C00007D
:101E5000000000000000000000010106000000007A
:101E6000000000000000008001400220041008086B
:101E70001004000002200220022002200220022082
:101E80000220000000001004080804100220014095
:101E90000080000000000E001200100C106C10807A
:101EA0000F00000003E00C1813E4142417C40828E2
:101EB00007D000000004003C03C41C40074000E4BD
:101EC000001C000410041FFC1104110411040E88EE
:101ED0000070000003E00C18100410041004100837
:101EE0001C10000010041FFC10041004100408084B
:101EF00007F0000010041FFC1104110417C41004A3
:101F00000818000010041FFC1104110017C0100075
:101F10000800000003E00C181004100410441C78A2
:101F20000040000010041FFC10840080008010841A
:101F30001FFC10040000100410041FFC1004100407
:101F40000000000000030001100110011FFE10003E
:101F50001000000010041FFC110403801464181CFE
:101F60001004000010041FFC10040004000400040E
:101F7000000C000010041FFC1F0000FC1F001FFCD1
:101F80001004000010041FFC0C04030000E01018F3
:101F90001FFC100007F008081004100410040808C3
:101FA00007F0000010041FFC1084108010801080C7
:101FB0000F00000007F0081810241024101C080A55
:101FC00007F2000010041FFC1104110011C01130B1
:101FD0000E0C000400000E1C110410841084104428
:101FE0001C3800001800100010041FFC1004100022
:101FF0001800000010001FF8100400040004100472
:102000001FF8100010001E0011E0001C007013806B
:102010001C0010001FC0103C00E01F0000E0103C3E
:102020001FC000001004180C163401C001C0163483
:10203000180C100410001C00130400FC13041C00F6
:10204000100000000804101C1064108413041C0409
:10205000101800000000000000007FFE4002400257
:1020600040020000000030000C0003800060001CF3
:102070000003000000004002400240027FFE00001A
:102080000000000000000000200040004000400070
:10209000200000000001000100010001000100011A
:1020A000000100010000400040002000000000008E
:1020B0000000000000000098012401440144014494
:1020C00000FC000410001FFC0088010401040088CB
:1020D0000070000000000070008801040104010489
:1020E000008800000000007000880104010411084D
:1020F0001FFC0004000000F80144014401440144B5
:1021000000C800000000010401040FFC11041104C8
:1021100011001800000000D601290129012901C978
:102120000106000010041FFC0084010001000104EE
:1021300000FC000400000104190419FC0004000460
:10214000000000000000000300010101190119FE58
:102150000000000010041FFC0024004001B4010C2A
:10216000010400000000100410041FFC000400041F
:1021700000000000010401FC0104010001FC010455
:10218000010000FC010401FC0084010001000104C5
:1021900000FC0004000000F8010401040104010433
:1021A00000F80000010101FF00850104010400881E
:1021B00000700000000000700088010401040105A7
:1021C00001FF00010104010401FC0084010401007D
:1021D00001800000000000CC01240124012401241E
:1021E0000198000000000100010007F8010401044B
:1021F00000000000010001F80004000400040108D0
:1022000001FC0004010001800170000C001001605D
:102210000180010001F0010C003001C00030010C10
:1022200001F0010000000104018C00740170018CB8
:1022300001040000010101810171000E001801601C
:102240000180010000000184010C0134014401847B
:10225000010C0000000000000000000001003EFC36
:10226000400240020000000000000000FFFF0000EC
:10227000000000000000400240023EFC010000009F
:10228000000000000000600080008000400040006E
:1022900020002000000000000000000000000000FE
:1022A000000000000000000000000000000000002E
:1022B000000000000000000000000000000000001E
:1022C000000000000000000F80380FFE380F80383B
:1022D00000000000000000000000000000000000FE
:1022E00000000100000600000C0000380000310072
:1022F000000600000C000038000030000000000064
:102300000000000061800067F807F980006180002C
:1023100061800061800061800067F807F9800061DA
:102320008000000000000000000001C0E003E0F0B9
:102330000630080418081FFFFE040E080787F00384
:1023400081E000000000000001F000060C00040421
:1023500008060C7001F9C0000E00003BE000EC180C
:10236000070808040C180003E00000000001E0006A
:1023700007F003F818041C0804170807E1D003C08D
:10238000E00023B0003C080020080000100000001E
:102390000000000100003100003200001C000000BD
:1023A000000000000000000000000000000000002D
:1023B000000000000000000000000000000000001D
:1023C000000000007F0001FFC00780F00C00181023
:1023D00000042000020000000000002000021000A5
:1023E000040C00180780F001FFC0007F000000000F
:1023F00000000000000000000000000000000000DD
:102400004200006600006600003C0000180003FF68
:10241000C0001800003C000066000066000042009A
:10242000000000000800000800000800000800008C
:10243000080001FFC00008000008000008000008B4
:102440000000080000000000000100003100003220
:1024500000001C0000000000000000000000000060
:10246000000000000000000000000000080000085C
:102470000000080000080000080000080000080034
:102480000008000008000008000000000000000034
:102490000000000038000038000038000000000094
:1024A000000000000000000000000000000000002C
:1024B00000000000000600001C0000700001800009
:1024C0000E0000380000C0000700001C00003000B3
:1024D00000000000000000007F8001FFE00380702A
:1024E00006001804000804000806001803807001A4
:1024F000FFE0007F800000000000000000000100FD
:102500000801000801000803FFF807FFF8000008B1
:1025100000000800000800000000000000000001AA
:10252000C03802C0580400980401180402180404BA
:1025300018061C1803F81801E0F80000000000005D
:1025400000000001C0E003C0F00400080408080413
:10255000080806180803F41801E7F00001E000007D
:1025600000000000000000000300000D000011004A
:1025700000610000810803010807FFF80FFFF80061
:1025800001080001080000000000000000E007FC56
:10259000D0060808061008061008061008061838A5
:1025A000060FF00607C00000000000000000000059
:1025B0003F8001FFE0038430020818041008041073
:1025C00008041008071810030FF00007C0000000EF
:1025D00000000000000003C0000700000600000625
:1025E00000F80607F806180006E0000700000600DD
:1025F0000000000000000001E1E003F7F0063410E5
:10260000041808041808040C08040C08061618031B
:10261000F3F001C1E000000000000000F80003FC3E
:1026200030030638040208040208040208040410F7
:102630000308F001FFC0007F000000000000000060
:102640000000000000000000000000007038007072
:10265000380070380000000000000000000000009A
:10266000000000000000000000000000000000006A
:10267000301A00301C0000000000000000000000C4
:10268000000000000000000000000008000014002E
:102690000022000041000080800100400200200470
:1026A00000100800080000000000000021000021C8
:1026B0000000210000210000210000210000210075
:1026C00000210000210000210000000000000000A7
:1026D00000000800080400100200200100400080F3
:1026E00080004100002200001400000800000000EB
:1026F00000000003C00004C0000400000800380807
:102700000F380808380810000C300007E00003C03C
:1027100000000000000000003F8000FFE003807028
:10272000020F1006708804C088048308047F8802A2
:10273000C09003012000FE400000080000180001C6
:10274000F8003E0801C20007020007E20000FE0098
:10275000001FC80001F80000380000080400080746
:10276000FFF807FFF804080804080804080804082C
:102770000806180803F41801E7F00001E000000063
:10278000000000003F8001FFE00380700200180499
:102790000008040008040008040010060020078058
:1027A000C000000004000807FFF807FFF804000855
:1027B00004000804000804001802001003807001DF
:1027C000FFE0007F8000000004000807FFF807FF1B
:1027D000F8040808040808040808040808043E0867
:1027E000040008060018010060000000040008074B
:1027F000FFF807FFF80408080408000408000408AC
:1028000000043E00060000060000018000000000F9
:10281000000000003F8001FFE00380700600180404
:1028200000080402080402080203F00783F0000213
:102830000000020004000807FFF807FFF80408087A
:10284000000800000800000800000800040808074D
:10285000FFF807FFF8040008000000000000040073
:102860000804000804000807FFF807FFF804000840
:102870000400080400080000000000000000000040
:10288000000600000700000104000104000104002C
:102890000307FFFE07FFFC04000004000004000023
:1028A00004000807FFF807FFF8040C0800180000F0
:1028B0003E0004C7800503C80600F8040038040081
:1028C0001800000804000807FFF807FFF8040008D4
:1028D00000000800000800000800000800000800D0
:1028E000001800006000000004000807FFF80780DF
:1028F0000807FC00007FC00003F80007C000780054
:1029000007800807FFF807FFF8040008040008071D
:10291000FFF807000803C00000E000003800001EB8
:10292000000007000001C00400F007FFF8040000E9
:10293000000000007F8001FFE003807006001804A3
:10294000000804000806001803003001FFE0007FC3
:102950008000000004000807FFF807FFF8040408DF
:10296000040400040400040400040400060C000332
:10297000F80001F000000000000000007F8001FF6F
:10298000E00380700600880400880400C806003C4C
:1029900003003E01FFE6007F8400000004000807FA
:1029A000FFF807FFF8040808040800040C00040FEF
:1029B00000040BC00610F003F03801E00800000826
:1029C00000000001E0F803F030063010041808049D
:1029D0001808040C08040C080206180207F0078106
:1029E000E000000001800006000004000004000078
:1029F00004000807FFF807FFF804000804000004BB
:102A0000000006000001800004000007FFE007FF4F
:102A1000F00400180000080000080000080000088A
:102A200000000804001007FFE00400000400000696
:102A3000000007E00007FE00041FE00001F80000AE
:102A4000380001E0043E0007C0000600000400005A
:102A500004000007E00007FFC0041FF80007C007DC
:102A6000F80007FF80043FF80007C004F8000700E3
:102A70000004000000000004000806001807C078E9
:102A800005F1C8003E00001F800463E80780F806D7
:102A90000018040008000000040000060000078081
:102AA0000007E008047C08001FF80007F800180879
:102AB00004E0080700000600000400000000000118
:102AC00000080600380400F80403E8040F08047C3A
:102AD0000805F00807C0080700180400600000009F
:102AE0000000000000000000000000000000003FA7
:102AF000FFFE200002200002200002200002200031
:102B000002000000000000000000080000070000B4
:102B100000C0000038000006000001C000003000C6
:102B2000000E000001000000000000000000200076
:102B3000022000022000022000022000023FFFFECF
:102B40000000000000000000000000000000000085
:102B5000000000000008000010000030000020000D
:102B6000003000001000000800000000000000001D
:102B70000000010000010000010000010000010050
:102B80000001000001000001000001000001000040
:102B90000100000100000000000000000020000013
:102BA00020000010000010000000000000000000E5
:102BB00000000000000000000000000000F000190C
:102BC000F8001B1800220800260800240800241022
:102BD000003FF8001FF80000080000180000000483
:102BE000000007FFF80FFFF0001818001008002081
:102BF00008002008003018001FF0000FC00000007F
:102C00000000000007C0001FF0001830002008007E
:102C10002008002008003C08001C10000060000094
:102C2000000000000000000007C0001FF00038187E
:102C300000200800200800200804101007FFF80FEB
:102C4000FFF000001000000000000000000000077E
:102C5000C0001FF0001230002218002208002208D5
:102C6000003208001E10000E2000000000000000CE
:102C7000200000200800200801FFF803FFF80620CC
:102C800008042008042008072000030000000000BA
:102C900000000000000E000E6E001FF30031B100B6
:102CA00020B10020B1003191001F13002E1E002022
:102CB0000E00300000000004000807FFF80FFFF8C6
:102CC000001008002000002000002008003FF8004D
:102CD0001FF80000080000000000000000000020B5
:102CE00008002008002008063FF8063FF80000080A
:102CF00000000800000800000000000000000000C4
:102D0000000000000300000300200100200100205B
:102D100003063FFE063FFC0000000000000000002C
:102D200000000004000807FFF80FFFF8000188000A
:102D30000300002FC00038F80020380020080000F1
:102D40000800000000000000000004000804000863
:102D500004000807FFF80FFFF80000080000080053
:102D60000008000000000000002008003FF8003FBD
:102D7000F8001008002000003FF8003FF80010089D
:102D8000002000003FF8003FF800000800000000AD
:102D90002008003FF8003FF8001008001000002055
:102DA00000002008003FF8001FF8000008000000A5
:102DB0000000000007C0000FF000183000300800CD
:102DC0002008002008003008001830000FF000072D
:102DD000C0000000000000002001003FFF003FFF96
:102DE00000101100200900200800200800303800E1
:102DF0001FF0000FC00000000000000007C0001F0F
:102E0000F0003818002008002008002009001011E8
:102E1000001FFF003FFF000001000000002008002D
:102E20002008002008003FF8003FF80008080010C4
:102E300008002008002000003000003000000000E2
:102E4000000000000000000C78001E18003308008D
:102E500023080021080021880021980030F0003864
:102E600060000000000000002000002000002000A2
:102E700000FFF003FFF800200800200800200800F1
:102E80000030000000000000000000002000003FB3
:102E9000F0007FF800001800000800000800201073
:102EA000003FF8007FF0000010000000000000006C
:102EB0002000003000003C00003F800023F00000B4
:102EC00078000070002380003C00003000002000EB
:102ED000002000003C00003FE00023F80000E0007C
:102EE0002700003E00003FE00021F80001E0003E26
:102EF00000002000000000002008002008003838F2
:102F0000003E680027800003C8002CF80038380015
:102F10002018002008000000000000002000003001
:102F200003003C01003F830023EC0000700023807D
:102F3000003C000020000020000000000000000015
:102F400000000038080020380020F80023E8002F97
:102F500088003E08003808002018000070000000BB
:102F60000000000000000000000000000000000061
:102F700008000014001FF7FC3000062000020000CB
:102F80000000000000000000000000000000000041
:102F9000000000000000FFFFFF0000000000000034
:102FA0000000000000000000000000000000200001
:102FB000023000061FF7FC001400000800000000AB
:102FC00000000000000000000000000000000018E9
:102FD00000006000004000004000002000001000E1
:102FE000000800000400000400000C0000100000B5
:102FF000B5E70200020002007FF0421042107FF0AD
:10300000421042107FF042000208020801F800005E
:103010000000D7D37FF000200040008001000200B4
:10302000FFF80200020002000200020002000E008F
:1030300000000000BCBC10201020102013FEFC205B
:103040001020102015FC18843088D0481050102013
:10305000105051882606CAF5010001200110011008
:103060007FFC038005400540092011102108410420
:103070000102010001000100D2BA0080404027F89F
:10308000114001408278424816A81AD023502220CD
:1030900042204250028800000000BEA73FE02020EE
:1030A0003FE020203FE00000FDF885088508FDF89E
:1030B00085088508FDF8850800000000B2E20008D8
:1030C0004F8828880AA88AA84AA80AA82AA82AA84D
:1030D0004228450884888888103800000000CAD437
:1030E0004050204820400FF80040E0402740224058
:1030F000224022202A2833A82E18000800000000B1
:10310000B3CC00001BF0E210221023F0F8002000E6
:1031100033F068806080A3F02080208027F80000D2
:103120000000D0F2020001003FF820002FF0202024
:10313000224021803FF8208820904080408083807A
:1031400000000000D1D5200010F87E20444028F86F
:103150007E8848A850A864A848A872A884501888F7
:10316000610800000000C9AB100010003FE04040C3
:1031700080807FF04210421042107FF040004008F3
:1031800040083FF800000000CCEE20802FF820809F
:1031900027F0F41027F0241027F0241027F0341023
:1031A000CFF80220041000000000B3E40400020085
:1031B000FFF80800104020207FF008900880088069
:1031C000088010882088C07800000000CEC4040069
:1031D00002000200FFF8104010400880088005003F
:1031E0000200050008803060C01800000000D7D63B
:1031F00004000200FFF8800880083FC00080010042
:103200000200FFF80200020002000E0000000000B1
:10321000CFD43FE0202020203FE0202020203FE0AE
:1032200008804890289028A008800880FFF80000B7
:103230000000CABE00003FE0000000000000FFF8F0
:1032400002001240122022104208820802000E00E2
:1032500000000000CDBC7FF84008440847C848483B
:10326000548843084CC8733840884C084308408849
:103270007FF800000000C6AC008020802080208005
:103280003FF02000200020003FC020402040204090
:103290004040804000000000B4A520403840484035
:1032A00091F07D50555055507D5055F054407C4024
:1032B000545057F88C0800000000C3FE2220222042
:1032C00027F8FA2027F0241027F03410E7F02080A8
:1032D0002FF821402220EC1800000000CAE44080B2
:1032E0004140F22044108BE8A000F78824A827A8CA
:1032F00034A8E7A824A8248825B800000000C8EB5B
:103300000800040004000200020005000500088017
:10331000088010401040202040108008000000006D
:10332000C8AB020002000500088010402020DFD852
:10333000020002001FC0020002000200FFF80000AD
:103340000000B3CC00001BF0E210221023F0F800C4
:10335000200033F068806080A3F02080208027F870
:1033600000000000BCBC208020802080F7F020807E
:10337000208027E03220E2202140208021402220AE
:10338000EC1800000000CAF5020002400220020012
:10339000FFF807000A800A801240222042108208AB
:1033A0000200020000000000D6A702000200FFF8A1
:1033B000020002007FE0102010400880050002009B
:1033C000050018C0E03800000000B3D6208020803F
:1033D00023F0F880208027F828203020E7F82020EC
:1033E000222021202020E0E000000000D7A80200D9
:1033F00002007FF004000400FFF8080010003FE026
:10340000002000401C800300008000000000D7A2C4
:1034100001004080200017F0008080804080008004
:1034200017F010802080208040804FF800000000BE
:10343000C5FA204024402440F4482450276024400A
:103440003440E4402440244025482648E438000025
:103450000000B7A202002220221044007FF80400DE
:1034600008000FE0142024404280810006C0383854
:1034700000000000B3C900A0009000807FF84080E9
:1034800040907C90449044A044A0444858A84118DF
:10349000820800000000B9A601000100F90023F035
:1034A000211021102110211021103910C2100210FA
:1034B0000410086000000000D2C600000020007860
:1034C0000CE47904516810307E6019981A3C2FE49E
:1034D00048E40838003000600000D1A1000001205D
:1034E000012003FC62203420042003FC240021B0CE
:1034F00021202220323E18000FE00000D4F100000D
:10350000000010FC1304110C3DF8703E10D0159013
:103510007CF0503E18101BFE023000200000CFEE61
:103520000000000003FE00607C4012FC1104110644
:10353000113611241F44794400C0009C018600000C
:10354000C4BF000000000FE03C18200820043E0427
:10355000600460047E046004200C20081FF00180D9
:103560000000B6CC0000080011FC103E3EF82D8C87
:103570002904490409043E8C50FC10881EC811FC23
:10358000100E0000B0B400000040006012FE1302F4
:103590003A427F4410C41BFE3C987190113011A038
:1035A0000078004C0000C8B70000004000F878C464
:1035B0001F8C313821EC2126413A7DE2272225FA61
:1035C0003D26012401040000B6A80000010001709E
:1035D0005FFC700420042FF801001100113821C491
:1035E00031003F0063E040380000B3A40000000059
:1035F0000818086008C00B001E00181C7FF010009F
:10360000118010E01838098E0F000000B0B40000DF
:103610000040006012FE13023A427F4410C41BFEB9
:103620003C987190113011A00078004C0000B7B5A3
:103630000000000007F80600240014F8078C0404BA
:103640002408261825F0647C64C220801FC0000076
:10365000BBD8000000001FF030182008278C2C4435
:10366000284428442CC427842004300C1FF80380ED
:103670000000C7B60100210821083FF800202220E1
:10368000223EFF42229422103E10221022283E2881
:1036900022440082CABD0048004400440040FFFEAE
:1036A000004000403E4008400840082008220F1219
:1036B000780A20060002BFAA00007FFC082008202C
:1036C000082008200820FFFE0820082008200820E5
:1036D0001020102020204020B7A201001110110856
:1036E00022003FFC0200040007F80A080908111034
:1036F00010A0204040A003181C06CDF800007FFC5D
:1037000040044004421452944A54442444244A54E9
:103710004A5452946104400440144008D6D0010039
:103720000100010001003FF82108210821082108BB
:1037300021083FF821080100010001000100CEC46A
:10374000020001000100FFFE1010101008200820E8
:103750000440028001000280044008203018C006A6
:10376000B2E2000427C4144414548554455445540B
:10377000155415542554E55421042284224424145C
:103780000808CAD4002820241024102007FE002096
:10379000F02017E0112011101110151019CA170A86
:1037A000020600020000000000000000000000000F
:1037B0000000000000000000000000000000000009
:1037C000000000000000B4F300000000000000183A
:1037D0000000100000100000100000100000100C8D
:1037E0003FFFFE0010000018000018000034000029
:1037F000340000220000620000410000C18000800F
:10380000C001006006003808001C30000000000005
:10381000D4BD0000000000000300C00200B00200A0
:10382000980260881F888C020FF0020C80022C889E
:103830007FDC88030C901B0CD01B0C6013EE601314
:103840001E64130CF413019C1B020C27040421D8E2
:1038500000407FFC4007F8000000B4B40000000006
:10386000000003800803000C02E00C06300C041971
:103870008C08088C08008C18208C2FF08C48208C29
:1038800008208C08208C08208C08608C09C10C084A
:10389000080C08080C08080C0C0C0C07FC7800003D
:1038A00010000000D0C2000000000000020008016B
:1038B000003C0133C03EC2000862000442000482A2
:1038C00000049A0C3FFFFE01023001023001123069
:1038D0001FE2300102300D42301936301114302110
:1038E0001430210830471030022030000000D2BAD6
:1038F0000000000000000006001803000C020C0489
:10390000FDF00119800111004233083222F8124201
:103910001812651004E490056AB0056A200A712047
:103920000861403860C01860C018616018623018C3
:10393000641E087800000000BEA700000000000020
:1039400001004001FFC001004001004001FFC00133
:10395000004001004001FFC0010040000000106471
:10396000081FE7F81046081046081046081FC7F859
:103970001046081046081046081FC7F810460800F1
:103980000000C6C10000000000000800000FFFF8A2
:103990000C00180C00180FFFF80C40900C30C00CF5
:1039A00010800C11100DFFF80830800830800830AE
:1039B0008808309C1FFFE01020801020802060804D
:1039C000204080408080030080000000B2E20000C0
:1039D0000000000011000C09FE080D86080586484D
:1039E00001A64841B64833B64813B64815B648054F
:1039F000B64805B64805B64809A64809A64839A4F8
:103A00004818204818580818440818860819023819
:103A1000060018000000CAD40000000000000001E9
:103A2000A01001D80800880C008804008400FFFE64
:103A30000000800000800400803C0280047DC004FF
:103A400008C0040840040840044860048822050FA8
:103A50003407381406E01C04000E000006000000C5
:103A60000000000000000000000000000000000056
:103A70000000000000000000000000000000000046
:103A80000000000000000000000000000000000036
:103A90000000000000000000000000000000000026
:103AA000000000000000000000000000CC3A000808
:103AB0000000002040000000F41500080C3B000846
:103AC000400000206004000004160008010000000F
:103AD00000D8B80500000000000000000102030447
:103AE00006070809000000000000000000000000B8
:103AF00000000000000000000102030401020304B2
:0C3B00000607080900000000FFFF00009D
:040000050800019955
:00000001FF
