:020000040800F2
:10000000080700203902000811190008BD10000877
:100010000F19000825030008B9230008000000009C
:10002000000000000000000000000000E51B0008C8
:10003000BF040008000000007D1900088D1E0008A4
:10004000530200085302000853020008530200083C
:10005000530200085302000853020008530200082C
:10006000530200085302000853020008530200081C
:10007000530200085302000853020008530200080C
:100080005302000853020008530200080000000059
:100090000000000000000000000000005302000803
:1000A00053020008530200085302000853020008DC
:1000B00053020008E11F0008530200085302000821
:1000C00053020008530200085302000853020008BC
:1000D0005302000839210008530200080000000004
:1000E00053020008530200085302000800000000F9
:1000F00000000000000000000000000053020008A3
:1001000000000000530200085302000853020008D8
:1001100000000000000000000000000000000000DF
:10012000530200085302000853020008530200085B
:100130005302000800000000000000000000000062
:100140000000000000000000000000005302000852
:10015000530200085302000853020008530200082B
:1001600053020008530200080000000000000000D5
:10017000000000000000000000000000000000007F
:100180000000000053020008000000000000000012
:10019000530200085302000800F002F800F03CF897
:1001A0000AA090E8000C82448344AAF10107DA45D2
:1001B00001D100F031F8AFF2090EBAE80F0013F0E8
:1001C000010F18BFFB1A43F0010318473CC500009C
:1001D0005CC50000103A24BF78C878C1FAD852072D
:1001E00024BF30C830C144BF04680C6070470000B1
:1001F0000023002400250026103A28BF78C1FBD830
:10020000520728BF30C148BF0B6070471FB502F0CE
:1002100017F91FBD10B510BD00F052F81146FFF7D9
:10022000F5FF02F0D5F800F070F803B4FFF7F2FF25
:1002300003BC02F0C2F800000948804709480047A3
:10024000FEE7FEE7FEE7FEE7FEE7FEE7FEE7FEE786
:10025000FEE7FEE704480549054A064B70470000E3
:100260000D1F000899010008080100200807002060
:100270000803002008030020704710B5431C02E06B
:1002800010F8011B71B18107FAD14FF0013202C899
:100290008C1A8C4314EAC211F9D0C01A0A0603D092
:1002A000C01E10BDC01A10BD0A0401D0801E10BDB2
:1002B0000902FCD0401E10BD704770477047704760
:1002C000754600F02BF8AE4605006946534620F00F
:1002D0000700854618B020B5FFF7BCFFBDE82040F9
:1002E0004FF000064FF000074FF000084FF0000BF2
:1002F00021F00701AC46ACE8C009ACE8C009ACE8A5
:10030000C009ACE8C0098D46704710B50446AFF38C
:1003100000802046BDE81040FFF787BF00487047C7
:10032000A4000020FEE700002DE9F8434FF6FF7718
:10033000384600F0C5FE36A31F221021082000F029
:10034000C1F94FF47A78404602F038F8344C4FF453
:100350007845009560880521401F83B22088401FA2
:1003600082B2084601F012F84FF6E07600966088F7
:100370001421143883B22088143882B2084601F060
:1003800005F81F20009060883221323883B220881F
:10039000323882B2084600F0F9FF4FF61F00009095
:1003A00060883C213C3883B220883C3882B20846C1
:1003B00000F0ECFF404602F001F8384600F080FE05
:1003C00000F0B0F94FF49674204601F0F7FF0020DA
:1003D00000F076FE204601F0F1FF284600F070FEA6
:1003E000204601F0EBFF304600F06AFE204601F0A7
:1003F000E5FF4FF4FC6000F063FE204601F0DEFFF5
:100400001F2000F05DFE2046BDE8F84301F0D6BF96
:10041000313AD1D5C9ABCCEEB3E4B2E2CAD40000D4
:10042000940000202DE9F0438146884615461E467B
:1004300000240B4F04EB041117F81100A84209D156
:1004400007EB41014878B04204D1891C4246484636
:1004500000F02AF8641CA4B2382CEBD3BDE8F0837A
:100460000A3C00082DE9F0438146884615461E46A1
:1004700000240C4F04EB840000EB441017F810101C
:10048000A94209D107EB40014878B04204D1891C48
:100490004246484600F008F8641CA4B2092CE9D38F
:1004A000BDE8F083E043000810B5002304E011F834
:1004B000014B00F8014B5B1C9342F8D310BD704711
:1004C00003480168002902D00168491E0160704795
:1004D0001400002010B54FF6FF7000F0F1FD4FF44E
:1004E000784419A3224602210C2000F003F919A335
:1004F00022461E21042000F0FDF819A31F223C21F2
:10050000042000F0DFF819A31F225021042000F07E
:10051000D9F819A31F226421042000F0D3F819A3ED
:1005200022467821042000F0CDF84FF4FA6001F063
:1005300045FFFFF7F9FE00F07FF900F021FABDE872
:10054000104001F0FFBB0000B4F3D4BDB4B4D0C27E
:1005500000000000D2BABEA7C6C1B2E2CAD40000F1
:10056000313A20D1D5C9ABCCEEB3E400323A20CE3B
:10057000C4D7D6CFD4CABE00333A20CDBCC6ACCF88
:10058000D4CABE00463A6D63756465762E74616F99
:1005900062616F2E636F6D00F0B585B014461D4625
:1005A0000A4B1A88121A92B25B885B1A9BB2084FE8
:1005B0004FF0300C00263F88CDE9005CCDE9037692
:1005C000029400F02EFC05B0F0BD00009400002065
:1005D0003C000020F0B585B014461D460A4B1A8831
:1005E000121A92B25B885B1A9BB2084F4FF0400C14
:1005F00000263F88CDE9005CCDE90376029400F047
:1006000010FC05B0F0BD0000940000203C0000206C
:10061000F0B585B014461D460A4B1A88121A92B2DC
:100620005B885B1A9BB2084F4FF00C0C00263F888A
:10063000CDE9005CCDE90376029400F0F2FB05B051
:10064000F0BD0000940000203C000020F0B585B013
:1006500014461D460A4B1A88121A92B25B885B1A1E
:100660009BB2084F4FF0100C00263F88CDE9005C8C
:10067000CDE90376029400F0D4FB05B0F0BD000094
:10068000940000203C000020F0B585B014461D46C3
:100690000A4B1A88121A92B25B885B1A9BB2084FF7
:1006A0004FF0200C00263F88CDE9005CCDE90376B1
:1006B000029400F0B6FB05B0F0BD000094000020ED
:1006C0003C0000202DE9FF4114461D46084B1A88C6
:1006D000121A92B25B885B1A9BB200261027CDE9F2
:1006E0000057CDE9024601F077FBBDE8FF8100002D
:1006F000940000202DE9FF4114461D46084B1A883E
:10070000121A92B25B885B1A9BB200261827CDE9B9
:100710000057CDE9024601F05FFBBDE8FF81000014
:1007200094000020F8B54FF6FF7000F0C9FC274C8C
:100730004FF47845009560881421143883B22088DE
:10074000143882B2084600F03BFD0095208814233F
:10075000143882B26088143881B2184600F030FD37
:100760001F20009060881421143883B22088143828
:1007700082B2084600F071FD20880325B0FBF5F138
:10078000491ECAB261884FF61F0649084008334621
:1007900000F088FD20883346B0FBF5F1CAB26188CD
:1007A0004008490800F07EFD20883346B0FBF5F193
:1007B000491CCAB261884008490800F073FDBDE8D1
:1007C000F8404FF4FA6001F0F9BD000094000020F9
:1007D0002DE9F04105460C461646DFF858804FF4E7
:1007E00080573946404600F03FFC052000F0ACFB46
:1007F000032001F0BFF9C4F3074001F0BBF9C4F3D3
:10080000072001F0B7F9E0B201F0B4F9002405E0E7
:10081000FF2001F0AFF92855641CA4B2B442F7D30D
:100820003946404600F01EFCBDE8F041052000F0CE
:100830008BBB00000004024070B54FF6FF742046E9
:1008400000F03EFC1DA31F2210210820FFF73AFFF5
:100850004FF47A75284601F0B1FD204600F030FCD7
:100860004FF4784619A3324604211020FFF742FFC7
:1008700019A3002220210420FFF73CFF19A3002226
:100880003C210420FFF71EFF1AA31F226421002031
:10089000FFF718FF284601F091FD204600F010FCFC
:1008A000194B324614210420FFF70CFF284601F0B3
:1008B00085FD2046BDE8704000F002BC323ACEC44F
:1008C000D7D6CFD4CABEB2E2CAD40000B4F3D4BDE6
:1008D000B4B4D0C200000000D2BABEA7C6C1B2E212
:1008E000CAD40000C7B6C8EBCABDBFAAB7A2CDF82C
:1008F00000000000463A6D63756465762E74616F82
:1009000062616F2E636F6D00C4C6000830B4044688
:1009100010460D461A46217820281DD009DC0C28E7
:1009200012D0102814D018281ED1104801FB020143
:1009300006E0302814D0402816D10D4801FB0201F2
:10094000284630BCFFF744BF514301F50021F7E7CB
:10095000084801FB0201F3E7074801FB0201EFE74A
:10096000064801FB0201EBE730BC704700120800AB
:10097000009208000008080000260800004808004F
:100980002DE9F04F85B04FF6FF78404600F098FB18
:1009900058A34FF4784210210020FFF757FE4FF480
:1009A0007A7B584601F00AFD404600F089FB564D1F
:1009B000002420212888CDE90384CDE9011053A02B
:1009C000554E00900B4632882146204600F029FA09
:1009D000524F29884FF010093888CDE90191CDE9AF
:1009E00003044FA0009032884B462821002000F0DD
:1009F00018FA29883888CDE90191CDE903044CA083
:100A00000090328810233C21002000F00AFA4EA307
:100A10001F2250210020FFF7FBFD4FF01F0A4FA0BF
:100A2000CDE900A8029033780C226021002000F06C
:100A300057FA4EA0CDE900A8029033780C226E211F
:100A4000002000F04DFA584601F0B8FC404600F096
:100A500037FB38882988CDE903040C22CDE9012130
:100A600045A013460090F0221421002000F0D9F98F
:100A700029883888CDE90191CDE9030443A000908D
:100A80001023F0222821002000F0CBF93888298893
:100A9000CDE903041822CDE9012140A013460090BE
:100AA000F0223C21002000F0BCF93FA31F225A2174
:100AB0000020FFF7E9FD584601F080FC404600F0B9
:100AC000FFFA3CA31F2218210020FFF7BFFD3CA323
:100AD0001F2200214020FFF75FFD3AA31F22302193
:100AE0002020FFF777FD05B04FF4FA60BDE8F04F26
:100AF00001F064BC323A47424BD7D6BFE22D2DCF2E
:100B0000D4CABEB2E2CAD4003E000020CAAED6D6D5
:100B1000D7D6BFE200000000940000204000002073
:100B2000C9E8BCC6A3BAB4F3D4BDB5E7D7D30000B7
:100B300046726F6D3A206D63756465762E74616FD1
:100B400062616F2E636F6D00446174653A203230CC
:100B500031392F30352F303800000000BED3D6D0C9
:100B6000CFD4CABEBAAFCAFD3A2000003230313904
:100B70002F30352F30380000BABAD7D6313278311D
:100B8000322D47424BD7D6BFE2A3BA00BABAD7D666
:100B90003136783136D7D6BFE2A3BA003234783254
:100BA00034D7D6BFE2A3BA003332783332D7D63A3D
:100BB000000000004153434949BFE23A00000000F1
:100BC000343800003A36340030B4054608462C78F4
:100BD0006978812C0AD3402908D3FF2906D0FF2C3D
:100BE00004D07F290DD24039CDB20CE00021002283
:100BF00003E000F8012B491C89B29942F9D330BCBB
:100C000070474139CDB2813CE1B2C1EB411404EBF4
:100C1000811105EB410159430C2A0BD0102A0CD04D
:100C2000182A0DD0202AEAD101F5601130BC1A46ED
:100C3000FFF7CEBD044A1144F8E7044A1144F5E732
:100C400001F5ED11F2E700000014090000DD1100CC
:100C5000AFF3008070B586B04FF6FF7000F030FA49
:100C6000002000246D462C54401CC0B21828FAD332
:100C7000112200216846FFF7ABFD4FF478461021A2
:100C80006B4632460846FFF7E1FC00202C54401C1E
:100C9000C0B21828FAD3082214216846FFF798FD3D
:100CA0006B46324620211020FFF7D0FC00202C5448
:100CB000401CC0B21828FAD308221E216846FFF74C
:100CC00087FD6B46324630211020FFF7BFFCC8205D
:100CD00001F074FB06B070BD2DE9F04FC1B0824643
:100CE0000D4616461C46A946600701D0012000E0CB
:100CF000002000EBD40B60080BFB00FB0C2C09D090
:100D0000102C07D0182C05D0202C03D0302C01D06B
:100D1000402C33D15B46224601A93046FFF7F6FD51
:100D20004FF0000828E001A810F8087000263806E7
:100D300005D5294650464A9A00F018FB06E04C9823
:100D400020B9294650464B9A00F010FB7806070E52
:100D50006D1CADB2A5EB0900A04205D14D460AF1CC
:100D6000010A1FFA8AFA03E0761CB6B2082EDED317
:100D700008F101081FFA88F8D845D4D341B0BDE87E
:100D8000F08F2DE9F04FA1B082460C4615461F4664
:100D9000A146780701D0012000E0002000EBD70B2E
:100DA0000BFB07FB0C2F05D0102F03D0182F01D001
:100DB000202F33D15B463A4601A92846FFF704FFAE
:100DC0004FF0000828E001A810F808600025300660
:100DD00005D5214650462A9A00F0C8FA06E02C981C
:100DE00020B9214650462B9A00F0C0FA7006060E34
:100DF000641CA4B2A4EB0900B84205D14C460AF128
:100E0000010A1FFA8AFA03E06D1CEDB2082DDED349
:100E100008F1010808F0FF08D845D4D321B0BDE897
:100E2000F08F2DE9FF4F83B00446DDE910750E46C3
:100E30009346A046B2464FF0000920E0B9F1000FFA
:100E400023D04FF0000908EB0B00401BA04202DA50
:100E5000701986B2444606985044401BB04211DBDC
:100E6000DDE912121498CDE9001202902B463A46A1
:100E700031462046FFF785FFBF1C601984B23878E1
:100E80000028DBD107B0BDE8F08F802802D94FF0F1
:100E90000109F4E708EB0B01A1EB5501A14202DACD
:100EA00071198EB2444606995144491BB142E9DB9F
:100EB0000D2810D0DDE912121498CDE9001202902D
:100EC0002B463A4631462046FFF706FF7F1C04EBCF
:100ED000550084B2D3E7701986B244467F1CF5E70B
:100EE0002DE9F04786B08046DDE90E67109D894602
:100EF00014469A462846FFF7C0F9610841438AB272
:100F00000123104952450CD901A8D0C00095049383
:100F10004B880A8849464046FFF783FF06B0BDE884
:100F2000F087AAEB020202EBD270400801AA40440B
:100F3000D0C2009504934B880A8880B24946FFF7D7
:100F400070FFEBE794000020002206E00021491C1E
:100F5000C9B26429FBD3521CD2B28242F6D3704785
:100F60007CB50121084600F00BFD4FF48070009025
:100F700003208DF8050002208DF8040000248DF870
:100F8000064001258DF8075069460D4800F01CF811
:100F90000021A80500F084FD0121042000F0F0FCF0
:100FA000680300908DF805408DF804508DF80640D8
:100FB0008DF807406946034800F006F87CBD000044
:100FC00000000240000802402DE9F0410022012704
:100FD0004FF0030C07FA02F50B682B40AB422CD103
:100FE000066853000CFA03F4A64306600E79D0F8A5
:100FF00000809E4046EA080606600E79012E01D068
:10100000022E12D18668A64386604E79D0F80880F9
:101010009E4046EA080686604668AE4346604568DC
:101020008E799640B6B235434560C568A543C56024
:10103000CC799C40C3681C43C460521C102AC9D39D
:10104000BDE8F08110B54B07DB0E9A40C90800EBF4
:101050008100016A0F249C40A1430162016A11438F
:10106000016210BD418370470183704730B405466B
:101070000846144619462A786B78812A0FD3402BEC
:101080000DD3FF2B0BD0FF2A09D00C2910D010292B
:1010900010D018290CD1214630BCFFF7E3B900214C
:1010A000002203E000F8012B491CC9B2A142F9D388
:1010B00030BC7047214630BCFFF7B4B9FEE70000F2
:1010C0002DE9F041074600240C4E002108467388A4
:1010D000328800F003FB35887088454300210846BC
:1010E00000F0D0FA00F004FC03E0384600F0B4FB56
:1010F000641CAC42F9D3BDE8F081000094000020EC
:101100002DE9F041002680212C222A232A4D2B4C48
:101110004FF02B0C00281AD0012825D001270228D7
:101120002FD003283AD0A67121806180228163816B
:10113000A4F80CC0C821362000F0E0FB2E706388B4
:101140002288BDE8F0410021084600F0C7BAA67128
:101150002180618022816381A4F80CC0C8213620DF
:1011600000F0CCFB2E70EAE7A6712180618022811D
:101170006381A4F80CC04821362000F0BFFB2E701C
:10118000DDE7A7712180618022816381A4F80CC012
:10119000A821362000F0B2FB2F70D0E7A771218084
:1011A000618022816381A4F80CC06821362000F0A0
:1011B000A5FB2F70C3E7000038000020940000203A
:1011C0002DE9FE4F00250026171AA3EB01088146E2
:1011D0008A46681E002F03DD4FF00101019107E0F0
:1011E00003D14FF00001019102E00190C7F1000727
:1011F000B8F1000F03DD4FF00100009007E003D1CC
:101200004FF00000009002E00090C8F10008474550
:1012100001DD3C4600E044464FF0000B601C0290AC
:1012200016E01FFA8AF11FFA89F00C9A00F09EF876
:101230003D444644A54202DD2D1B01988144A6424F
:1012400002DD361B009882440BF1010B1FFA8BFB69
:1012500002988345E5DDBDE8FE8F2DE9F843804621
:10126000089C0E4615461F4633462A4631464046E0
:101270000094FFF7A5FF3B464246314640460094A6
:10128000FFF79EFF3B462A46394640460094FFF74B
:1012900097FF3B462A46314628460094FFF790FFC9
:1012A000BDE8F8832DE9FF4F83B007468846002448
:1012B00015460320A0EB420653E0A8EB050081B2DF
:1012C00007EB040A02901FFA8AF0069A00F04EF823
:1012D000A8EB0400019081B207EB05091FFA89F021
:1012E000069A00F043F808EB040B1FFA8BF11FFA83
:1012F00089F0069A00F03AF808EB05091FFA89F11F
:101300001FFA8AF0069A00F031F81FFA89F1A7EB6C
:1013100004091FFA89F0069A00F028F8A7EB050ADD
:101320001FFA8BF11FFA8AF0069A00F01FF8029854
:10133000069A81B21FFA89F000F018F80198069A0F
:1013400081B21FFA8AF000F011F8641C002E03DA53
:1013500006EB8406B61D04E0601B06EB80060A3629
:101360006D1EAC42A9DD07B0BDE8F08F10B5144684
:1013700000F088F90448008900F0A2FA2046BDE890
:10138000104000F069BA0000940000202DE9F041FF
:10139000069F5C1A151AA3B2AAB200F09FF90B4E71
:1013A000308900F08DFA654300F0A2FA002403E0D2
:1013B000384600F051FA641CAC42F9D9738832887F
:1013C000BDE8F0410021084600F088B994000020F3
:1013D0001CB50121022000F0D3FA41F20440009034
:1013E00001208DF8040000218DF8061003218DF8EE
:1013F00005108DF80700074C69462046FFF7E4FD0D
:1014000000F058FB00F008F821152046FFF72CFEED
:101410001CBD00000004024010B5094C4FF480418F
:101420002046FFF71FFE322000F0C8FF04212046AF
:10143000FFF71AFEBDE810401E2000F0BFBF0000FD
:101440000004024010B5FFF7C3FF00F0FBF91120C4
:1014500000F036FA782000F0B1FFB12000F030FA49
:10146000012000F015FA2C2000F012FA2D2000F0D7
:101470000FFAB22000F024FA012000F009FA2C2023
:1014800000F006FA2D2000F003FAB32000F018FA5D
:10149000012000F0FDF92C2000F0FAF92D2000F0D9
:1014A000F7F9012000F0F4F92C2000F0F1F92D20DB
:1014B00000F0EEF9B42000F003FA072000F0E8F99C
:1014C000C02000F0FDF9A22000F0E2F9022000F0B7
:1014D000DFF9842000F0DCF9C12000F0F1F9C5202B
:1014E00000F0D6F9C22000F0EBF90A2000F0D0F9A4
:1014F000002000F0CDF9C32000F0E2F98A2000F0CE
:10150000C7F92A2000F0C4F9C42000F0D9F98A20D4
:1015100000F0BEF9EE2000F0BBF9C52000F0D0F9D4
:101520000E2000F0B5F9362000F0CAF9C82000F00E
:10153000AFF9E02000F0C4F90F2000F0A9F91A205B
:1015400000F0A6F90F2000F0A3F9182000F0A0F990
:101550002F2000F09DF9282000F09AF9202000F0BB
:1015600097F9222000F094F91F2000F091F91B2038
:1015700000F08EF9232000F08BF9372000F088F975
:10158000002000F085F9072000F082F9022000F029
:101590007FF9102000F07CF9E12000F091F90F2094
:1015A00000F076F91B2000F073F90F2000F070F9BD
:1015B000172000F06DF9332000F06AF92C2000F0BC
:1015C00067F9292000F064F92E2000F061F930203D
:1015D00000F05EF9302000F05BF9392000F058F996
:1015E0003F2000F055F9002000F052F9072000F0EC
:1015F0004FF9032000F04CF9102000F049F92A209F
:1016000000F05EF9002000F043F9002000F040F9FE
:10161000002000F03DF97F2000F03AF92B2000F087
:101620004FF9002000F034F9002000F031F90020DB
:1016300000F02EF99F2000F02BF9F02000F040F987
:10164000012000F025F9F62000F03AF9002000F022
:101650001FF93A2000F034F9052000F019F929208B
:1016600000F02EF90020FFF74BFD4FF48061044895
:10167000FFF7FAFCBDE810404FF6FF70FFF720BD02
:101680000004024070B506460D461248124C01781F
:10169000608900290ED000F013F9F61CB0B200F0FA
:1016A000DBF8A08900F00CF9AD1CA8B2BDE87040D1
:1016B00000F0D2B800F004F9B61CB0B200F0CCF8DB
:1016C000A08900F0FDF8ED1CA8B2BDE8704000F064
:1016D000C3B8000038000020940000202DE9F0413C
:1016E00004460D46A018401E86B2E818401E87B278
:1016F0001B48DFF870800178B8F80A00002917D07D
:1017000000F0DEF8E41CA0B200F0A6F8F61CB0B2BF
:1017100000F0A2F8B8F80C0000F0D2F8AD1CA8B2A6
:1017200000F09AF8BF1CB8B2BDE8F04100F094B8E0
:1017300000F0C6F8A41CA0B200F08EF8B61CB0B23F
:1017400000F08AF8B8F80C0000F0BAF8ED1CA8B266
:1017500000F082F8FF1CB8B2BDE8F04100F07CB8A0
:1017600038000020940000202DE9F84F82460C46F6
:101770001F46A346780701D0012000E0002000EBBF
:10178000D70079084843C0B20090203A02F0FF0920
:10179000002648E00C2F13D0102F18D0182F45D159
:1017A000234909EBC90001EB8000855D4FF000087B
:1017B000280611D5214650460A9AFFF7D7FD13E0B7
:1017C0001C4909EB490001EB8000855DEEE71A48F2
:1017D00000EB0910855DE9E70B9828B91748214609
:1017E00082885046FFF7C2FD6806050E641CA4B24D
:1017F00013484088A04219D9A4EB0B00B84209D184
:101800005C460AF1010A1FFA8AFA0D480088504521
:101810000CD906E008F1010808F0FF08B8F1080F3C
:10182000C6D3761CF6B200988642B3D3BDE8F88FD3
:10183000AE2E00084A240008BE2800083800002008
:101840009400002010B5012000F03AF8BDE81040E7
:10185000322000F0B3BD000070B504460B4E4FF4CB
:10186000805529463046FFF7FDFB04213046FFF73F
:10187000FBFB200A00F07EF9E0B200F07BF929467C
:101880003046BDE87040FFF7EFBB000000040240A7
:1018900070B50646094D4FF4805421462846FFF79F
:1018A000E1FB04212846FFF7DFFB304600F062F938
:1018B00021462846BDE87040FFF7D6BB0004024031
:1018C00070B50446094E4FF4805529463046FFF75F
:1018D000C9FB04213046FFF7C5FBE0B200F04AF92E
:1018E00029463046BDE87040FFF7BEBB0004024009
:1018F00001480089FFF7E4BF9400002010B50C46B2
:10190000FFF7DEFFE0B2BDE81040FFF7C1BFFEE722
:101910007047000030B50F23C27801250178002AF6
:101920001FD0154A126802F4E062C2F5E062C2F309
:101930000722C2F10404D3404278A24084781C40BC
:101940001443220101F1E02181F80024007800F025
:101950001F018D404009800000F1E020C0F80051D7
:1019600030BD01F01F0085404809800000F1E020F3
:10197000C0F8805130BD00000CED00E07047000061
:10198000054A002903D011680143116070471168AE
:10199000814311607047000030380240054A002939
:1019A00003D01168014311607047116881431160D1
:1019B0007047000040380240054A002903D01168F2
:1019C0000143116070471168814311607047000046
:1019D00020380240054A002903D0116801431160F4
:1019E000704711688143116070470000443802401D
:1019F0000149C864704700000000474270B5244B9D
:101A0000196801F00C01234C00291ED0224E042934
:101A10001DD008291DD00460196801F0F0010909E2
:101A20001E4A545C0168E14041601C6804F4E054C3
:101A3000A40A145D21FA04F484601B6803F4604373
:101A40005B0BD25CD140C16070BD0460E4E706600E
:101A5000E2E70F4A121F1168C1F38055116801F0C7
:101A60003F0135B1B6FBF1F11468C4F3881461434A
:101A700005E0B4FBF1F11468C4F388146143126803
:101A8000C2F30142521C5200B1FBF2F10160C3E704
:101A9000083802400024F40040787D01280000202E
:101AA000034B1A6822F0EC62084310431860704739
:101AB000083802402DE9F04188B001210220FFF7EB
:101AC0005FFF01218F033846FFF768FF4FF4604046
:101AD000069002258DF81C5000248DF81E408DF8CC
:101AE0001D5001268DF81F60DFF8808006A9404652
:101AF000FFF76AFA05220D214046FFF7A3FA0522F7
:101B00000E214046FFF79EFA05220F214046FFF7BF
:101B100099FA01213846FFF74FFF00213846FFF7B9
:101B20004BFFADF804404FF48270ADF80600ADF8FD
:101B30000840ADF80A50ADF80C602802ADF80E0070
:101B4000ADF81040ADF812400720ADF81400084C75
:101B500001A9204600F02AF80121204600F01AF8D9
:101B6000FF2000F007F808B0BDE8F0810004024053
:101B70000038004006490A889207FCD5044A121D25
:101B800010800888C007FCD01088C0B270470000E1
:101B900008380040002904D0018841F0400101804C
:101BA0007047018821F040010180704730B50288FC
:101BB00002F441530A884C88CD8822438C882C43F8
:101BC00022430C8922434C8922438C892243CC89AD
:101BD00022431A430280828B22F400628283098AA4
:101BE000018230BD704700000CB5002201920092C6
:101BF0002649086840F4803008604FF4A043086824
:101C000000F4003000900198401C0190009810B939
:101C100001989842F3D10868800302D50120009012
:101C200000E00092009801282FD118484030026847
:101C300042F0805202601648026842F4404202605C
:101C4000124808300268026002680260026842F4CA
:101C500080520260031F0F4A1A600A6842F08072C5
:101C60000A600A689201FCD50B4940F202720A60D0
:101C7000016821F003010160016841F00201016087
:101C80000168C1F381010229FAD10CBD003802407C
:101C90000070004019304004003C02402DE9F04F34
:101CA00093B004468A4615461F46A146780701D0E0
:101CB000012000E0002000EBD7007843C0B2009084
:101CC0000C2F03D0102F01D0182F36D13B4601A97D
:101CD0002846009AFFF7CAF94FF000082AE001A849
:101CE00010F808600025DFF858B0300605D55146D9
:101CF00020461C9AFFF73AFB07E01D9828B9BBF86D
:101D0000002051462046FFF731FB7006060E641C8A
:101D1000A4B2A4EB0900B84204D14C460AF1010A6E
:101D20001FFA8AFA6D1CEDB2082DDED308F1010806
:101D300008F0FF0800988045D1D313B0BDE8F08FBC
:101D40003C0000202DE9F04700254FF6FF742046A7
:101D5000FFF7B6F91AA34FF4784210210420FEF7DA
:101D6000B1FC4FF47A7000F029FB2046FFF7A8F988
:101D7000174F002108467B883A88FFF7AFFCFFF732
:101D8000B7FD002613E00024DFF848800BE018F8C8
:101D90000500691C4D1C18F80190FFF779FD4846B5
:101DA000FFF776FD641C3888A042F0D8761C78884E
:101DB000B042E8D8BDE8F0474FF4FA6000F0FEBA50
:101DC000333ACDBCC6ACCFD4CABEB2E2CAD400004E
:101DD00094000020C44600082DE9FF4F83B004465C
:101DE000DDE910750E469346A046B2464FF0000955
:101DF0001EE0B9F1000F21D04FF0000908EB0B00F5
:101E0000401BA04202DA701986B24446069850443C
:101E1000401BB0420FDBDDE91201CDE900012B468A
:101E20003A4631462046FFF739FFBF1C601984B29D
:101E30003A78002ADDD107B0BDE8F08F802A02D9B8
:101E40004FF00109F4E708EB0B00A0EB5500A042AE
:101E500002DA701986B2444606985044401BB042DC
:101E6000E9DB0D2A0DD0DDE91201CDE900012B4699
:101E700031462046FFF778FC7F1C04EB550084B206
:101E8000D6E7701986B244467F1CF5E7FEF718BB0B
:101E900070B50022194D286800F00C00184B194944
:101EA00000280FD0184E04280ED008280ED00B6042
:101EB0002868144AC0F30310121D105C0A68C2405F
:101EC0000A6070BD0B60F3E70E60F1E70B48001F7E
:101ED0000368C3F38053046804F03F042BB1B6FBDE
:101EE000F4F20368C3F388135A430068C0F3014057
:101EF000401C4000B2FBF0F00860D9E7083802400F
:101F00000024F4000000002040787D0110B5124844
:101F1000016841F4700101601048016841F001015D
:101F200001600E4A00210832116002680C4B1A4011
:101F30000260031D0B4A1A60026822F480220260CC
:101F400006480C300160FFF74FFE03494FF0006078
:101F50008039086010BD000088ED00E000380240C4
:101F6000FFFFF6FE103000247FB501210220FFF7AD
:101F700015FD1D208DF80C0000248DF80D4001206A
:101F80008DF80E008DF80F0003A8FFF7C3FC114871
:101F900011490068B0FBF1F0401E85B26420019049
:101FA000ADF80040ADF80840ADF802400B4C694672
:101FB000204600F083F801222946204600F07BF8F5
:101FC00001221146204600F06CF80121204600F065
:101FD00050F87FBD0000002080841E0000040040F7
:101FE00010B5084C0121204600F04FF8002807D01A
:101FF0000121204600F03AF8BDE8104000F004B896
:1020000010BD0000000400401649002308464A782D
:102010008088002A04D0401E80B2888048B109E040
:10202000401C80B28880B0F57A5F03D301204870ED
:1020300000E04B7088884FF4A072B0FBF2F0C2B29F
:102040000A708878322801D98B7001E0401C8870B2
:102050008B7805484FF40051934201D3FFF704B841
:10206000FFF700B81800002000080240C9430182B1
:102070007047002904D0018841F0010101807047B8
:10208000018821F001010180704702460020138A77
:102090000B4092890A40002B02D0002A00D0012078
:1020A0007047002A03D082890A438281704782895F
:1020B0008A438281704701858282704730B50288E9
:1020C000164C174DA0420DD0A8420BD0B0F1804F56
:1020D00008D0144B984205D0134B984202D0134BB2
:1020E000984203D122F070034A881A43104B984259
:1020F00006D0104B984203D022F440730A891A4349
:1021000002804A68C2620A880285A04201D0A842C1
:1021100001D1897A01860121818230BD0000014010
:10212000000401400004004000080040000C004092
:10213000001000400014004010B5144C40F225512E
:10214000204600F09BF800281FD0204600F030F910
:102150000F4A516801F8010B51605088401C80B251
:1021600050800C49402802D951600020508050888E
:1021700001280AD9084410F8021C0D2905D110F8CD
:10218000010C0A2801D10120107010BD001001407F
:102190002000002054000020F0B587B005462C48F0
:1021A0002A49416001210846FFF7EAFB012110207E
:1021B000FFF710FC274F072209213846FEF742FFA0
:1021C00007220A213846FEF73DFF4FF4C060059014
:1021D00002218DF818108DF8191000248DF81A407E
:1021E00001268DF81B6005A93846FEF7EDFE019526
:1021F000ADF80840ADF80A40ADF80C40ADF810401D
:102200000C20ADF80E00144C01A9204600F072F825
:102210000121204600F026F84021204600F01EF85B
:10222000012240F22551204600F048F825208DF883
:10223000000003208DF801008DF802008DF8036086
:102240006846FFF767FB07B0F0BD000054000020B0
:102250002000002000000240001001408A05C94310
:1022600001807047002904D0818941F400518181A7
:102270007047818921F400518181704770B5002435
:1022800040F66A12C1F3421301F01F05012606FA57
:1022900005F2012B0CD0022B0DD0838A1340090AC2
:1022A0008E40008830400BB100B10124204670BD43
:1022B00083891340F3E7038A1340F0E710B540F633
:1022C0006A13C1F3421301F01F040121A140012B45
:1022D00007D0022B07D014303AB102680A430260DB
:1022E00010BD0C30F8E71030F6E702688A43026050
:1022F00010BD00007FB504460D46208A20F44051F1
:10230000E88808432082A08941F20C618843A988AB
:102310002A8911436A8902431143A181A08A20F4CA
:102320004071A8890843A0826846FFF767FB1E48F2
:10233000844202D01D48844201D1039800E00298F3
:10234000A189090408D500EBC00101EB0010296840
:102350004900B0FBF1F007E000EBC00101EB001019
:1023600029688900B0FBF1F06422B0FBF2F10901A9
:102370000B096FF018056B4300EB8300A3891D0464
:102380004FF0320307D503EBC000B0FBF2F000F0D2
:102390000700084306E003EB0010B0FBF2F000F08A
:1023A0000F00084320817FBD001001400014014050
:1023B0008088C0F308007047FEE7704701B5034806
:1023C0000099016001680029FCD108BD14000020BB
:1023D0000120FFF70DFBFFF75BFD1648FFF70EFB33
:1023E00014484FF47A714068B0FBF1F0401EB0F130
:1023F000807F09D24FF0E02148610F4AF020107031
:1024000000208861072008613220FFF7D7FF4FF4D2
:10241000E130FFF7C1FEFEF7A3FDFFF7A5FDFFF7D3
:1024200011F8FEF715FC05494FF478400880FEF7D7
:1024300051F8FCE74400002023ED00E03A000020C2
:102440004FF04070E1EE100A7047000000000000FD
:10245000000000000000000000003F4000000000FD
:102460000000000030004000300040000000090083
:102470000BC03D000BC03D00090018C024407FE0A8
:10248000224031800000180024C01B000D80324023
:10249000018003801C4027401C8007400040100042
:1024A00060000000000000000000000000000000CC
:1024B0001F80204040200000402020401F8000005E
:1024C0000000090006001F8006000900000004004B
:1024D00004003F80040004000000001000600000C1
:1024E00000000000000004000400040004000400D8
:1024F000000000000040000000000000000000207C
:1025000001C006003800400000001F80204020402D
:1025100020401F800000000010403FC0004000002D
:10252000000018C0214022402440184000001080C4
:102530002040244024401B80000002000D001100B8
:102540003FC0014000003C802440244024402380C0
:1025500000001F80244024403440038000003000ED
:10256000200027C03800200000001B8024402440A9
:1025700024401B8000001C0022C0224022401F80FB
:102580000000000000000840000000000000000003
:1025900000000460000000000000000004000A00C9
:1025A00011002080404009000900090009000900CD
:1025B000000000004040208011000A0004001800C4
:1025C000200023402400180000001F8020402740E6
:1025D00029401F400000004007C039000F0001C023
:1025E000004020403FC0244024401B8000001F804A
:1025F0002040204020403080000020403FC020404C
:1026000020401F80000020403FC024402E4030C0AA
:10261000000020403FC024402E00300000000F008A
:102620001080204022403380020020403FC0040040
:1026300004003FC02040204020403FC020402040B8
:1026400000000060202020203FC02000200020400B
:102650003FC024400B0030C0204020403FC02040FD
:102660000040004000C03FC03C0003C03C003FC0F1
:10267000000020403FC00C4023003FC020001F80CE
:102680002040204020401F80000020403FC02440C8
:102690002400180000001F802140214020E01FA0DE
:1026A000000020403FC02440260019C0004018C050
:1026B00024402440224031800000300020403FC0B0
:1026C00020403000000020003F80004000403F805C
:1026D000200020003E0001C0070038002000380024
:1026E00007C03C0007C038000000204039C0060089
:1026F00039C0204000002000384007C0384020008A
:102700000000304021C02640384020C000000000BA
:1027100000007FE0402040200000000070000C001E
:102720000380004000000000402040207FE00000C7
:102730000000000020004000200000000000001009
:1027400000100010001000100010000000004000F9
:10275000000000000000000002800540054003C0AA
:10276000004020003FC004400440038000000000FF
:102770000380044004400640000000000380044041
:1027800024403FC000400000038005400540034056
:102790000000000004401FC024402440200000002E
:1027A00002E0055005500650042020403FC0044080
:1027B000040003C000400000044027C000400000A7
:1027C000000000100010041027E00000000020406E
:1027D0003FC00140070004C00440204020403FC0EB
:1027E00000400040000007C0040007C0040003C010
:1027F0000000044007C00440040003C00040000083
:1028000003800440044003800000041007F00450DB
:10281000044003800000000003800440045007F0DF
:102820000010044007C00240040004000000000043
:1028300006400540054004C00000000004001F8061
:10284000044000400000040007800040044007C02E
:1028500000400400070004C00180060004000600D8
:1028600001C0070001C006000000044006C00100CE
:1028700006C0044000000410071004E001800600B8
:1028800004000000044005C00640044000000000B1
:10289000000004007BE04020000000000000000079
:1028A000FFF000000000000040207BE0040000007A
:1028B0000000400080004000200020004000000098
:1028C0000000000000000000000000000000000008
:1028D000000000001FCC000C000000000000000001
:1028E0000800300060000800300060000000022096
:1028F00003FC1E20022003FC1E200220000000001A
:102900000E1811043FFF10840C78000000000F0027
:1029100010840F3800C00778188400780000007811
:102920000F8410C411240E9800E4008400080800ED
:1029300068007000000000000000000000000000BF
:102940000000000007E0181820044002000000000A
:1029500040022004181807E00000000000000240B8
:10296000024001800FF00180024002400000008020
:10297000008000800FF800800080008000000001CF
:10298000000D000E0000000000000000000000002C
:1029900000800080008000800080008000800000B7
:1029A000000C000C0000000000000000000000000F
:1029B00000060018006001800600180020000000DA
:1029C00007F0080810041004080807F000000000D1
:1029D000080408041FFC00040004000000000000BC
:1029E0000E0C10141024104411840E0C0000000072
:1029F0000C1810041104110412880C70000000005F
:102A000000E00320042408241FFC00240000000030
:102A10001F98108411041104108810700000000029
:102A200007F00888110411041888007000000000E5
:102A30001C00100010FC13001C001000000000001F
:102A40000E3811441084108411440E380000000028
:102A50000700088C10441044088807F000000000AC
:102A600000000000030C030C000000000000000048
:102A7000000000010106000000000000000000004E
:102A80000080014002200410080810040000022009
:102A9000022002200220022002200220000000006A
:102AA000100408080410022001400080000000000B
:102AB0000E001200100C106C10800F00000003E0DC
:102AC0000C1813E4142417C4082807D000000004CD
:102AD000003C03C41C40074000E4001C0004100438
:102AE0001FFC1104110411040E880070000003E0A3
:102AF0000C1810041004100410081C10000010041E
:102B00001FFC100410041004080807F00000100453
:102B10001FFC1104110417C410040818000010044D
:102B20001FFC1104110017C010000800000003E092
:102B30000C181004100410441C780040000010040D
:102B40001FFC10840080008010841FFC1004000013
:102B5000100410041FFC1004100400000000000307
:102B60000001100110011FFE1000100000001004F1
:102B70001FFC110403801464181C100400001004CE
:102B80001FFC1004000400040004000C00001004EA
:102B90001FFC1F0000FC1F001FFC1004000010049D
:102BA0001FFC0C04030000E010181FFC100007F0CD
:102BB0000808100410041004080807F000001004AE
:102BC0001FFC10841080108010800F00000007F0A0
:102BD000081810241024101C080A07F20000100422
:102BE0001FFC1104110011C011300E0C0004000074
:102BF0000E1C11041084108410441C3800001800AE
:102C0000100010041FFC1004100018000000100039
:102C10001FF810040004000410041FF81000100036
:102C20001E0011E0001C007013801C0010001FC06B
:102C3000103C00E01F0000E0103C1FC0000010042A
:102C4000180C163401C001C01634180C1004100002
:102C50001C00130400FC13041C00100000000804F6
:102C6000101C1064108413041C04101800000000D1
:102C7000000000007FFE4002400240020000000011
:102C800030000C0003800060001C00030000000006
:102C90004002400240027FFE0000000000000000F1
:102CA0000000200040004000400020000000000123
:102CB000000100010001000100010001000100000D
:102CC0004000400020000000000000000000000064
:102CD0000098012401440144014400FC0004100058
:102CE0001FFC00880104010400880070000000003F
:102CF0000070008801040104010400880000000045
:102D0000007000880104010411081FFC0004000089
:102D100000F8014401440144014400C800000000DF
:102D2000010401040FFC110411041100180000003B
:102D300000D601290129012901C90106000010045A
:102D40001FFC008401000100010400FC00040000DD
:102D50000104190419FC0004000400000000000034
:102D6000000300010101190119FE00000000100418
:102D70001FFC0024004001B4010C0104000000000D
:102D8000100410041FFC00040004000000000104F3
:102D900001FC0104010001FC0104010000FC01042C
:102DA00001FC008401000100010400FC000400009B
:102DB00000F8010401040104010400F8000001010D
:102DC00001FF00850104010400880070000000007C
:102DD0000070008801040104010501FF00010104E5
:102DE000010401FC008401040100018000000000D6
:102DF00000CC0124012401240124019800000000DA
:102E00000100010007F801040104000000000100B6
:102E100001F8000400040004010801FC00040100A2
:102E200001800170000C001001600180010001F0C0
:102E3000010C003001C00030010C01F00100000065
:102E40000104018C00740170018C01040000010177
:102E500001810171000E0018016001800100000075
:102E60000184010C013401440184010C00000000C4
:102E700000000000000001003EFC40024002000093
:102E8000000000000000FFFF000000000000000044
:102E9000400240023EFC0100000000000000000073
:102EA0006000800080004000400020002000000002
:102EB0000000000000000000000000000000000012
:102EC0000000000000000000000000000000000002
:102ED00000000000000000000000000000000000F2
:102EE000000F80380FFE380F80380000000000000F
:102EF00000000000000000000000000001000006CB
:102F000000000C00003800003100000600000C003A
:102F10000038000030000000000000000000618068
:102F20000067F807F980006180006180006180001F
:102F300061800067F807F9800061800000000000F0
:102F40000000000001C0E003E0F0063008041808AB
:102F50001FFFFE040E080787F00381E00000000059
:102F6000000001F000060C00040408060C7001F9D2
:102F7000C0000E00003BE000EC18070808040C1825
:102F80000003E00000000001E00007F003F818046F
:102F90001C0804170807E1D003C0E00023B0003C80
:102FA00008002008000010000000000000010000E0
:102FB0003100003200001C00000000000000000092
:102FC0000000000000000000000000000000000001
:102FD00000000000000000000000000000007F0072
:102FE00001FFC00780F00C00181000042000020050
:102FF00000000000002000021000040C00180780F0
:10300000F001FFC0007F0000000000000000000091
:103010000000000000000000000042000066000008
:103020006600003C0000180003FFC0001800003CD0
:10303000000066000066000042000000000008007A
:1030400000080000080000080000080001FFC000A0
:103050000800000800000800000800000800000048
:103060000000000100003100003200001C000000E0
:103070000000000000000000000000000000000050
:103080000000000000000800000800000800000820
:103090000000080000080000080000080000080008
:1030A00000080000000000000000000000003800E0
:1030B00000380000380000000000000000000000A0
:1030C00000000000000000000000000000000006FA
:1030D00000001C000070000180000E00003800009D
:1030E000C0000700001C00003000000000000000CD
:1030F00000007F8001FFE0038070060018040008D4
:1031000004000806001803807001FFE0007F8000C3
:10311000000000000000000001000801000801009C
:103120000803FFF807FFF800000800000800000887
:1031300000000000000000000001C03802C0580478
:103140000098040118040218040418061C1803F857
:103150001801E0F800000000000000000001C0E0DD
:1031600003C0F0040008040808040808061808034F
:10317000F41801E7F00001E000000000000000008A
:1031800000000300000D0000110000610000810834
:1031900003010807FFF80FFFF8000108000108000D
:1031A00000000000000000E007FCD0060808061040
:1031B00008061008061008061838060FF00607C0A3
:1031C000000000000000000000003F8001FFE0035D
:1031D00084300208180410080410080410080718A6
:1031E00010030FF00007C000000000000000000006
:1031F00003C0000700000600000600F80607F806F6
:10320000180006E0000700000600000000000000B3
:103210000001E1E003F7F006341004180804180870
:10322000040C08040C0806161803F3F001C1E000B2
:10323000000000000000F80003FC30030638040220
:10324000080402080402080404100308F001FFC087
:10325000007F0000000000000000000000000000EF
:103260000000000000007038007038007038000066
:10327000000000000000000000000000000000004E
:1032800000000000000000000000301A00301C00A8
:10329000000000000000000000000000000000002E
:1032A000000000000008000014000022000041009F
:1032B0000080800100400200200400100800080087
:1032C000000000000000210000210000210000217A
:1032D0000000210000210000210000210000210049
:1032E00000210000000000000000000008000804A9
:1032F00000100200200100400080800041000022F8
:103300000000140000080000000000000003C000DE
:1033100004C000040000080038080F380808380806
:1033200010000C300007E00003C0000000000000A7
:1033300000003F8000FFE0038070020F10067088DD
:1033400004C088048308047F8802C0900301200021
:10335000FE400000080000180001F8003E0801C20D
:103360000007020007E20000FE00001FC80001F88D
:1033700000003800000804000807FFF807FFF80401
:10338000080804080804080804080806180803F4D4
:103390001801E7F00001E0000000000000003F809D
:1033A00001FFE00380700200180400080400080414
:1033B00000080400100600200780C0000000040080
:1033C0000807FFF807FFF8040008040008040008D5
:1033D00004001802001003807001FFE0007F8000ED
:1033E000000004000807FFF807FFF80408080408B5
:1033F00008040808040808043E0804000806001829
:1034000001006000000004000807FFF807FFF8044F
:103410000808040800040800040800043E00060030
:1034200000060000018000000000000000003F8056
:1034300001FFE0038070060018040008040208047D
:1034400002080203F00783F00002000002000400FB
:103450000807FFF807FFF804080800080000080044
:1034600000080000080004080807FFF807FFF80438
:103470000008000000000000040008040008040028
:103480000807FFF807FFF804000804000804000814
:10349000000000000000000000000006000007001F
:1034A000000104000104000104000307FFFE07FF00
:1034B000FC04000004000004000004000807FFF8FA
:1034C00007FFF8040C08001800003E0004C7800540
:1034D00003C80600F80400380400180000080400BF
:1034E0000807FFF807FFF8040008000008000008BC
:1034F000000008000008000008000018000060003C
:10350000000004000807FFF807800807FC00007FA0
:10351000C00003F80007C000780007800807FFF824
:1035200007FFF804000804000807FFF80700080375
:10353000C00000E000003800001E0000070000018D
:10354000C00400F007FFF8040000000000007F80C6
:1035500001FFE0038070060018040008040008065C
:10356000001803003001FFE0007F8000000004002D
:103570000807FFF807FFF804040804040004040027
:10358000040400040400060C0003F80001F000002D
:103590000000000000007F8001FFE0038070060053
:1035A000880400880400C806003C03003E01FFE6D2
:1035B000007F8400000004000807FFF807FFF804FC
:1035C0000808040800040C00040F00040BC00610D7
:1035D000F003F03801E00800000800000001E0F806
:1035E00003F030063010041808041808040C08040E
:1035F0000C080206180207F00781E00000000180B5
:103600000006000004000004000004000807FFF8A2
:1036100007FFF80400080400000400000600000191
:10362000800004000007FFE007FFF004001800001E
:10363000080000080000080000080000080400104E
:1036400007FFE004000004000006000007E0000798
:10365000FE00041FE00001F80000380001E0043E15
:103660000007C00006000004000004000007E0009E
:1036700007FFC0041FF80007C007F80007FF800419
:103680003FF80007C004F800070000040000000035
:103690000004000806001807C07805F1C8003E00C5
:1036A000001F800463E80780F80600180400080083
:1036B000000004000006000007800007E008047C0A
:1036C00008001FF80007F800180804E008070000C9
:1036D0000600000400000000000100080600380495
:1036E00000F80403E8040F08047C0805F00807C08C
:1036F000080700180400600000000000000000003F
:103700000000000000000000003FFFFE200002203B
:103710000002200002200002200002000000000041
:103720000000000008000007000000C00000380092
:103730000006000001C000003000000E0000010083
:103740000000000000000000200002200002200015
:10375000022000022000023FFFFE000000000000E7
:103760000000000000000000000000000000000851
:1037700000001000003000002000003000001000A9
:10378000000800000000000000000000010000012F
:103790000000010000010000010000010000010024
:1037A0000001000001000001000001000001000014
:1037B00000000000000000200000200000100000B9
:1037C00010000000000000000000000000000000E9
:1037D00000000000000000F00019F8001B18002293
:1037E00008002608002408002410003FF8001FF8F5
:1037F00000000800001800000004000007FFF80F98
:10380000FFF0001818001008002008002008003001
:1038100018001FF0000FC00000000000000007C0EB
:10382000001FF000183000200800200800200800C9
:103830003C08001C100000600000000000000000B8
:10384000000007C0001FF000381800200800200802
:1038500000200804101007FFF80FFFF00000100010
:1038600000000000000000000007C0001FF0001270
:1038700030002218002208002208003208001E1022
:10388000000E2000000000000000200000200800C2
:10389000200801FFF803FFF8062008042008042090
:1038A0000807200003000000000000000000000ED8
:1038B000000E6E001FF30031B10020B10020B100F6
:1038C0003191001F13002E1E00200E00300000005A
:1038D0000004000807FFF80FFFF8001008002000A0
:1038E000002000002008003FF8001FF8000008003A
:1038F0000000000000000000002008002008002058
:1039000008063FF8063FF80000080000080000081D
:1039100000000000000000000000000000000300A4
:103920000003002001002001002003063FFE063FA7
:10393000FC0000000000000000000000000400087F
:1039400007FFF80FFFF8000188000300002FC000F8
:1039500038F80020380020080000080000000000AF
:103960000000000004000804000804000807FFF835
:103970000FFFF80000080000080000080000000029
:103980000000002008003FF8003FF8001008002069
:1039900000003FF8003FF8001008002000003FF84A
:1039A000003FF8000008000000002008003FF80079
:1039B0003FF8001008001000002000002008003F21
:1039C000F8001FF80000080000000000000007C019
:1039D000000FF00018300030080020080020080018
:1039E0003008001830000FF00007C0000000000091
:1039F00000002001003FFF003FFF001011002009E0
:103A0000002008002008003038001FF0000FC00020
:103A100000000000000007C0001FF0003818002060
:103A200008002008002009001011001FFF003FFFC0
:103A3000000001000000002008002008002008000D
:103A40003FF8003FF8000808001008002008002098
:103A50000000300000300000000000000000000006
:103A6000000C78001E18003308002308002108000D
:103A700021880021980030F000386000000000002C
:103A80000000200000200000200000FFF003FFF8ED
:103A9000002008002008002008000030000000007E
:103AA0000000000000002000003FF0007FF8000050
:103AB00018000008000008002010003FF8007FF008
:103AC0000000100000000000000020000030000096
:103AD0003C00003F800023F00000780000700023CD
:103AE00080003C00003000002000002000003C006E
:103AF000003FE00023F80000E0002700003E000047
:103B00003FE00021F80001E0003E0000200000003E
:103B100000002008002008003838003E6800278098
:103B20000003C8002CF800383800201800200800D6
:103B30000000000000002000003003003C01003FB6
:103B4000830023EC000070002380003C0000200074
:103B50000020000000000000000000000038080005
:103B600020380020F80023E8002F88003E080038A5
:103B70000800201800007000000000000000000095
:103B80000000000000000000000008000014001FFA
:103B9000F7FC3000062000020000000000000000DA
:103BA0000000000000000000000000000000000015
:103BB000FFFFFF0000000000000000000000000008
:103BC00000000000000000002000023000061FF787
:103BD000FC001400000800000000000000000000CD
:103BE000000000000000000000180000600000401D
:103BF0000000400000200000100000080000040049
:103C0000000400000C0000100000B5E702000200F4
:103C100002007FF0421042107FF0421042107FF00D
:103C200042000208020801F800000000D7D37FF02C
:103C300000200040008001000200FFF802000200A6
:103C400002000200020002000E0000000000BCBCE6
:103C500010201020102013FEFC201020102015FC36
:103C600018843088D04810501020105051882606F3
:103C7000CAF501000120011001107FFC03800540FE
:103C80000540092011102108410401020100010032
:103C90000100D2BA0080404027F8114001408278EC
:103CA000424816A81AD023502220422042500288AF
:103CB00000000000BEA73FE020203FE020203FE0C2
:103CC0000000FDF885088508FDF885088508FDF8E1
:103CD000850800000000B2E200084F8828880AA882
:103CE0008AA84AA80AA82AA82AA842284508848897
:103CF0008888103800000000CAD440502048204076
:103D00000FF80040E04027402240224022202A288D
:103D100033A82E18000800000000B3CC00001BF0F0
:103D2000E210221023F0F800200033F06880608059
:103D3000A3F02080208027F800000000D0F20200CD
:103D400001003FF820002FF02020224021803FF882
:103D50002088209040804080838000000000D1D5E2
:103D6000200010F87E20444028F87E8848A850A8FB
:103D700064A848A872A88450188861080000000050
:103D8000C9AB100010003FE0404080807FF042103F
:103D9000421042107FF04000400840083FF8000009
:103DA0000000CCEE20802FF8208027F0F41027F0C0
:103DB000241027F0241027F03410CFF8022004102C
:103DC00000000000B3E404000200FFF80800104007
:103DD00020207FF0089008800880088010882088C4
:103DE000C07800000000CEC4040002000200FFF80A
:103DF000104010400880088005000200050008807F
:103E00003060C01800000000D7D604000200FFF8A0
:103E1000800880083FC0008001000200FFF8020017
:103E2000020002000E0000000000CFD43FE020207E
:103E300020203FE0202020203FE00880489028906C
:103E400028A008800880FFF800000000CABE00001B
:103E50003FE0000000000000FFF8020012401220C6
:103E600022104208820802000E0000000000CDBCB3
:103E70007FF84008440847C84848548843084CC85D
:103E8000733840884C08430840887FF800000000E1
:103E9000C6AC00802080208020803FF020002000E1
:103EA00020003FC020402040204040408040000093
:103EB0000000B4A520403840484091F07D50555056
:103EC00055507D5055F054407C40545057F88C0864
:103ED00000000000C3FE2220222027F8FA2027F04D
:103EE000241027F03410E7F020802FF82140222002
:103EF000EC1800000000CAE440804140F220441069
:103F00008BE8A000F78824A827A834A8E7A824A84D
:103F1000248825B800000000C8EB08000400040055
:103F200002000200050005000880088010401040D3
:103F300020204010800800000000C8AB02000200F2
:103F40000500088010402020DFD8020002001FC0BA
:103F5000020002000200FFF800000000B3CC0000E5
:103F60001BF0E210221023F0F800200033F06880EC
:103F70006080A3F02080208027F800000000BCBCF7
:103F8000208020802080F7F02080208027E03220D1
:103F9000E2202140208021402220EC180000000077
:103FA000CAF50200024002200200FFF807000A8062
:103FB0000A80124022204210820802000200000003
:103FC0000000D6A702000200FFF8020002007FE016
:103FD00010201040088005000200050018C0E038DD
:103FE00000000000B3D62080208023F0F8802080DD
:103FF00027F828203020E7F8202022202120202028
:10400000E0E000000000D7A8020002007FF00400FA
:104010000400FFF8080010003FE0002000401C8072
:104020000300008000000000D7A2010040802000B3
:1040300017F0008080804080008017F01080208082
:10404000208040804FF800000000C5FA2040244046
:104050002440F4482450276024403440E440244065
:10406000244025482648E43800000000B7A202009A
:104070002220221044007FF8040008000FE01420E2
:1040800024404280810006C0383800000000B3C9D7
:1040900000A0009000807FF8408040907C90449089
:1040A00044A044A0444858A84118820800000000D9
:1040B000B9A601000100F90023F021102110211000
:1040C000211021103910C2100210041008600000E5
:1040D0000000D2C60000002000780CE4790451688A
:1040E00010307E6019981A3C2FE448E408380030FC
:1040F00000600000D1A100000120012003FC62202B
:104100003420042003FC240021B021202220323E50
:1041100018000FE00000D4F10000000010FC1304B0
:10412000110C3DF8703E10D015907CF0503E1810E8
:104130001BFE023000200000CFEE0000000003FE56
:1041400000607C4012FC11041106113611241F443A
:10415000794400C0009C01860000C4BF000000003C
:104160000FE03C18200820043E04600460047E0434
:104170006004200C20081FF001800000B6CC000075
:10418000080011FC103E3EF82D8C29044904090456
:104190003E8C50FC10881EC811FC100E0000B0B4FC
:1041A00000000040006012FE13023A427F4410C437
:1041B0001BFE3C987190113011A00078004C00005B
:1041C000C8B70000004000F878C41F8C313821ECDB
:1041D0002126413A7DE2272225FA3D2601240104C9
:1041E0000000B6A80000010001705FFC700420040C
:1041F0002FF801001100113821C431003F0063E0A5
:1042000040380000B3A4000000000818086008C08F
:104210000B001E00181C7FF01000118010E01838F1
:10422000098E0F000000B0B400000040006012FED4
:1042300013023A427F4410C41BFE3C987190113027
:1042400011A00078004C0000B7B50000000007F88E
:104250000600240014F8078C04042408261825F00E
:10426000647C64C220801FC00000BBD80000000036
:104270001FF030182008278C2C44284428442CC4D4
:1042800027842004300C1FF803800000C7B601000B
:10429000210821083FF800202220223EFF422294DC
:1042A00022103E10221022283E2822440082CABD3D
:1042B0000048004400440040FFFE004000403E40F3
:1042C00008400840082008220F12780A2006000241
:1042D000BFAA00007FFC0820082008200820082032
:1042E000FFFE082008200820082010201020202091
:1042F0004020B7A201001110110822003FFC02006B
:10430000040007F80A080908111010A0204040A076
:1043100003181C06CDF800007FFC40044004421442
:1043200052944A54442444244A544A5452946104B2
:10433000400440144008D6D00100010001000100F3
:104340003FF8210821082108210821083FF8210809
:104350000100010001000100CEC4020001000100C3
:10436000FFFE1010101008200820044002800100F9
:104370000280044008203018C006B2E2000427C4BE
:104380001444145485544554455415541554255417
:10439000E55421042284224424140808CAD40028A5
:1043A00020241024102007FE0020F02017E0112008
:1043B00011101110151019CA170A02060002000088
:1043C00000000000000000000000000000000000ED
:1043D00000000000000000000000000000000000DD
:1043E000B4F30000000000000018000010000010EE
:1043F0000000100000100000100C3FFFFE00100035
:1044000000180000180000340000340000220000F2
:10441000620000410000C1800080C0010060060011
:104420003808001C300000000000D4BD000000006F
:1044300000000300C00200B00200980260881F88DC
:104440008C020FF0020C80022C887FDC88030C9019
:104450001B0CD01B0C6013EE60131E64130CF413C2
:10446000019C1B020C27040421D800407FFC40075C
:10447000F8000000B4B4000000000000038008034E
:10448000000C02E00C06300C04198C08088C0800A3
:104490008C18208C2FF08C48208C08208C08208CC5
:1044A00008208C08608C09C10C08080C08080C084E
:1044B000080C0C0C0C07FC78000010000000D0C2A7
:1044C00000000000000002000801003C0133C03E73
:1044D000C200086200044200048200049A0C3FFFFC
:1044E000FE0102300102300112301FE230010230C1
:1044F0000D42301936301114302114302108304764
:104500001030022030000000D2BA0000000000008D
:104510000006001803000C020C04FDF001198001D4
:1045200011004233083222F812421812651004E4D6
:1045300090056AB0056A200A71200861403860C0A1
:104540001860C018616018623018641E0878000096
:104550000000BEA700000000000001004001FFC0F5
:1045600001004001004001FFC00100400100400186
:10457000FFC00100400000001064081FE7F810466B
:10458000081046081046081FC7F8104608104608CD
:104590001046081FC7F8104608000000C6C10000FA
:1045A000000000000800000FFFF80C00180C0018B5
:1045B0000FFFF80C40900C30C00C10800C11100D47
:1045C000FFF808308008308008308808309C1FFFD2
:1045D000E01020801020802060802040804080807B
:1045E000030080000000B2E20000000000001100A3
:1045F0000C09FE080D860805864801A64841B64804
:1046000033B64813B64815B64805B64805B648054A
:10461000B64809A64809A64839A448182048185899
:104620000818440818860819023806001800000007
:10463000CAD40000000000000001A01001D808004A
:10464000880C008804008400FFFE000080000080C9
:104650000400803C0280047DC00408C004084004BB
:104660000840044860048822050F3407381406E027
:104670001C04000E00000600000000000000000006
:10468000000000000000000000000000000000002A
:10469000000000000000000000000000000000001A
:1046A000000000000000000000000000000000000A
:1046B00000000000000000000000000000000000FA
:1046C0000000000021272947294729472947294772
:1046D000294621262126212621262126212621267A
:1046E00021262126212621262946294629462946F2
:1046F00029462125210410A3106210831083108302
:1047000010831083108310831083188318831883F9
:104710001883188318A318A418A418A418A418A4FC
:1047200018C418C418E520E521052105214629668D
:10473000298729A831C831E93A0A3A2B3A4B42ACC9
:104740004B0D534F536F5B9063D16BF16C1274122E
:1047500074327C537C74849484B584D684D68CF66D
:104760008D178D1795589D79A5BAA5DAA5DAADFBF9
:10477000AE1BB63CB65CBE7DB63CAE1AA5D99577ED
:1047800084D56C31538F4AEC3A6A29E821A829E98B
:104790003A4A52EC8CB2E75DFFFFDF1C84924AABD1
:1047A0003A2831E831A831A7298729662986296660
:1047B0002966296629662966296629862986424945
:1047C0005B4D424929272947294729472947294736
:1047D00029462146214621462146212621262126F9
:1047E0002126212621262126294629462146214601
:1047F000214629462946212518C418A31083108371
:104800001083108310831083108318A318A318A398
:1048100018A310A318A318A418A418A418A418A4C3
:1048200018E418E420E521052105212629662987B9
:1048300031A831C93A093A4B426C42AD4ACD4B0ED0
:104840004B4F53905BD063F16C12743374537C7391
:10485000849484B48CD58CF58D168D179537955826
:104860009D79A5B9A5DAADFBAE1BAE1BADFBADFACC
:10487000ADFBADFBA5DAA5BA95588CF67C7363D079
:10488000532E42AC3A6B322A3209428B6B8F94B36F
:10489000B5F8CEBAC6599D346BAF4A8A3A0831E7AB
:1048A00031C731A72987298729862966296629667C
:1048B00029662966296629662966298629A631C7B7
:1048C00031E72986294729672967296729672967E1
:1048D0002947294729472947294729472946212682
:1048E0002126212621262126212621262946294640
:1048F00029462946294729672946210518C41083D6
:10490000106210831083108318A318A318A318A390
:1049100018A318A318C418C418C418C418C418C4F9
:1049200020E418E520E5210521052146298731A845
:1049300031E83A2A426B42AC4AEE532F5B505B910E
:104940005BB163F26C12745374737C9484B48CB551
:104950008CF695179D589D589D79A599A599A5DA2E
:10496000AE1BAE3BB65CB67DB67CB63BA5BA9558E1
:1049700095378D1684B5745363B1532E42AC324AC9
:104980003209322A4ACC73D09D15C639D6BBC659D6
:104990009D146B8F424A298721662986298729879A
:1049A000298629662967298729662966296629664D
:1049B000296629662966296629662966298729873D
:1049C0002166214629672967296729672967296799
:1049D0002947294729472947294729472947294658
:1049E00029462946294621262126212621462146D7
:1049F0002946294629462946296729672946210546
:104A000010C31082108310A310A318A318A318A317
:104A100018A318C318C418C418C418E418E418E577
:104A200020E52105210521052146298731A839C81E
:104A30003A293A8B42AC4B0E53705BB16BD26C127D
:104A40006C3374747C947C9484B484D58D169537BF
:104A50009D58A599A5BAADDAADFBB5FBB61BB65C02
:104A6000B69DB69DB67CAE5BA61A9D788CD6743387
:104A700063D0534E4AED3A8B3A4A322A3A6B530C82
:104A800073F0A596D6DBEF7ECEBA8CB3634E3A2A8E
:104A90002987216629862987298629862966296604
:104AA00021662166296629662166296629662966A6
:104AB000296629662966296629662966298729665D
:104AC0002166294629672967296729672967296790
:104AD0002947294729472947294729472947294756
:104AE000294729472947294629462946294629464B
:104AF00029462126294629462967296729872986A3
:104B00002166190410A3108310A318A318A318A3D7
:104B100018C318C418C418C418C418E42105210502
:104B20002105210521052946296731A839E93A09D6
:104B30003A4A42AC5B4E741184938CF495369D5680
:104B400095368CF68D178D178D37953795589D793D
:104B5000A5BAADFBB63CBE5CBE5CBE7CBE7CBE9C5A
:104B6000B67CAE3BA5D9955784D56C11532E428C9B
:104B7000322A29C831E9426B634E8492B5F8D6DBFC
:104B8000DF1CC699CE9AB5B752ED29672967296708
:104B90002987298729872967296629662966214661
:104BA000214621462146214629662966296629662D
:104BB000296629662986298629862986298631A794
:104BC0002987296629672967296729672967296746
:104BD0002967296729672967296729672947294795
:104BE0002947294729472946294621462146212682
:104BF000212621262126212629462967298729873A
:104C000029873187294618E410A3188318A318C3ED
:104C100018C418C418C418C418E41905210521259E
:104C20002125212529462987298731A831C84A6BA2
:104C3000636F8CB4C659E75DF79EF7BEF7BEF79E6B
:104C4000EF9EE71DC63AADD9ADFBADFBADFBADFAAE
:104C5000B63BBE5CBE7DC69DC69DBE7BB61AA5D9C1
:104C6000957784D574525B8F4B0D3A6A29E821877A
:104C700031E85B0D8CB3BE18DEFBDF1CBE398CD374
:104C80005B4D3A4952CB636E3A2929A62987296799
:104C900029672967296729672966296629662166A0
:104CA00021662166216621662166216621662966C4
:104CB0002966298629862966214521452986424972
:104CC00031E82966296729672967296729672967DC
:104CD0002987298729672967296729672967294734
:104CE000294729472947294729672946294621264F
:104CF0002126294629462126212629462967296772
:104D0000298731A831C831A8212618C318A318C390
:104D100018C418E418C418C418E421052105212575
:104D2000212629462126214629874A6B8411BD96D2
:104D3000DEB8FFDDFFFFFFFFFFFFFFFFFFFFFFFF0D
:104D4000E71CA533736D736E8C52AD78BE7CC6BD07
:104D5000BE7CBE5CB63CB61BADFA9D5784B47453A2
:104D60005BB04B0D3A8B324A324A42AB634E8432CF
:104D7000AD96D6DBD6DBBDF78C725AEC3A082986A5
:104D80002986318731E84A8B31E8298729872967C5
:104D90002987298729672967296629662966296657
:104DA0002966296629662966296629872987296649
:104DB0002145212510C310A310A318E429863A0821
:104DC00031C83187318831883188318831883188DC
:104DD0003187316729672967296729672967296723
:104DE0002967296729672967296729672947294783
:104DF00029472946214621262125212521252146ED
:104E00002967318731A839C839C831A7292518C37E
:104E100010C318E418E418E52105210521252126F1
:104E2000212631875ACC7BAF9C72D5D8EEDBF73880
:104E3000F754F776FFB9FFFBFFFCFFFDFFFDBDF563
:104E40006B4B316418A229043986526A7BF1A5B8EC
:104E5000B61AA598955684B46C115B8E4AEC3A8BC1
:104E6000324A3A6A52ED73F1A576CE9AD6DBB5D7BF
:104E70008C9273AF52AB31C829872966298729875D
:104E800031A7318729872966298629872987298794
:104E90002987298729872987298629862986298696
:104EA00029862986318631862966212618E410A3B1
:104EB0000862108210C319042945318631C731C7F1
:104EC00031C731C7318831A831A831A831A831A8FC
:104ED000318831883188318831883188296729675C
:104EE0002967296729672967296729672967294762
:104EF00029472946294621462146212521252126C3
:104F000021262967318731A831C83A093A0931A7E2
:104F1000212518E418E421052125212529462125EC
:104F200031A89492EF5DF75DE679DE17D5D2D5EF23
:104F3000D60ED60ED62FD670DE91DED29CED4A6507
:104F400039C4290328C328C33125398641E85AAC1E
:104F500084126BD04AED3A8B322932093A6A5B2DC2
:104F60008451ADB7D6DBDF1CC6799D14636E3A0958
:104F7000296621462966298731A729872987298714
:104F8000298729872146212521462987298729869E
:104F90002987298731872987298729872987318682
:104FA00031862966210410C308620842088318E488
:104FB0002125296631A731A739C739C731C739C774
:104FC00039E839E831A831A831A831A831A831A889
:104FD00031A831A831A831A831A831A82988298859
:104FE00029882988298829882967296729672967BD
:104FF0002967294629462946214621462146214638
:10500000212621262946296731A839E94209422A61
:105010003A0929A7212519052126294621263A09D9
:10502000AD33F77AEF1BCDF7BD31CD50CD6ECD6CE2
:10503000CD4CCD4BD56ACD6AD5ABACA949E239A3ED
:10504000398420C220A220A228E3312441865209BB
:105050006AED6B4F424A3A095B2D8493B5D8D6DB93
:10506000D6FBBE388CD3634D424929C7218729A777
:105070002987298729872967296629662966296654
:1050800029872987214610E4192529872987296638
:10509000298731A731A731A731872967210510A3B7
:1050A00008820862088210A31904298631C739E7EB
:1050B00039E839C731C731C739C739C739C739E8BE
:1050C0003A0839C731A831A831A831A831A831A888
:1050D00031A831A831A831A831A831A831A831A808
:1050E00031A831A831A8318829672967296729673C
:1050F0002967296629462946214621462146214617
:105100002146212621262946296731A839E9422A44
:10511000424A426B424A31A72966212641E9A5123B
:10512000EEF7E6B5D613CDF2E651EE70E60DDDCC26
:10513000E5CDEE4EF6B0F6D0F6AF9BA7416139A3B0
:105140002903208120A220A220A228C3416649E889
:105150005AAB7B8F8C31B597D6DBD6BBB5D7847273
:10516000530C3A2929C729A729A729A729A729A77D
:105170002987298729862966296629662966296655
:10518000298629A7214610C4192529A731A731A7A7
:1051900031A731A7294518E410A4086308631083D8
:1051A00018E4294631A739E83A083A073A0739E7B7
:1051B00039C739C739C739C739C739E739E839E88D
:1051C000422952AB31A839A839A839A839A839A839
:1051D00031A831A831A831A831A831A831A831A807
:1051E00031A831A831A8318831883167296729670A
:1051F00029672967294629462966294629462946D5
:10520000294629462946212629462946318739E952
:10521000424A426B4A8B52AC3A6A3A299450D612AF
:10522000EEB4F6F7F758FFB9FFB8FF54FED0F68F8B
:10523000F6AFFF33FF97FFD7FF337B05416139435B
:1052400020A22082208228A220A220A228C3418658
:105250004A0862AB9452BDB77BF14AAB320829A72A
:1052600029A731C829A729A729A7298729872987F5
:105270002987298729662966296629662966296773
:10528000298729A7214610A3212529A729662105B9
:1052900010C40882108210A318E5294631A739E806
:1052A0003A08420842083A0839E839E839E839E862
:1052B00039E839E839E839E839E839E839E839E8E6
:1052C000738EDEFC39C839C839C839C839C839C8FD
:1052D00031A831A831A831A831A831A831A831A806
:1052E00031A831A831A831A8318831883187298780
:1052F000296729672967296729672967296729672E
:10530000294629462946294621462126214629663D
:1053100029C83A294A8B4ACC530D840FC550EE93C5
:10532000FFBAFFFEFFFFFFFFFFFEFF77FF11FF1237
:10533000F732FF94FFFAFFFCEED6626441613963F5
:10534000208220822062208220822082208230E4FB
:10535000416651C86AAC734E5AAC31A831C731C8E6
:1053600031C831A729A729A7298721662166216687
:1053700021662166216629662966296629672987AB
:10538000298731A72146088310C410A3088310A3DE
:1053900018E4214531A739E8420942094209420887
:1053A0003A083A083A083A083A083A083A083A08ED
:1053B00039E839E84208420842083A083A0839E828
:1053C00073AFF79E39C939C939C939C939C939C91A
:1053D00039C939C939C939C939C939C931A831A80F
:1053E00031A831A831A831A8318831883188318776
:1053F0003187296729672967296729672967296705
:1054000029672967294629462946294629462146EA
:10541000216629A83A0A428C634DA46DDDEEFF99FE
:10542000FFFFFFFFFFFFFFFFFFFDFF95FF30FEF0D7
:10543000F6CFEEF1E6D4D676D6168BAA49C14183D3
:1054400030E32062206220622082208228A228830A
:1054500030A3390562ABAD36CE5A52AC318731A795
:10546000318731872987298729672966296629662F
:1054700029662966296629862966296629662125DD
:1054800018E410A40883088310C42125298731C893
:1054900039E84208420842084209420942094209E1
:1054A00042094209420942094209420942094209A4
:1054B0004209420942294229422942094209422914
:1054C00052AB6B6E39E939E939E939E939E939E93A
:1054D00031C931C931C939C939C939C931A831A826
:1054E00031A831A831A831A831A831A831A831A7F5
:1054F000318731872987298729672967296729679C
:105500002967296729462966296729672946216667
:105510002167298831A9424B7B6ABCCBEE92FFDC24
:10552000FFFFFFFFFFFFFFFFFFFCFF32DDAABC67AD
:10553000A3E8A46CB510BD95C5B7ACD062C54182D7
:10554000392320822062206220622062288228A3E0
:1055500028C320837B6EFFDFDEFC5B0C3187318745
:10556000318731872967296629662966296729666F
:105570002986296629662145190410C310820882EC
:10558000108218E4210518C4212539C83A0939E8E0
:105590003A093A083A0842084209420942094209CE
:1055A000422939C831A742094A4A424A424A424A34
:1055B000424A424A42494229422942294229422931
:1055C0004A49424939E939E939E939E939E939E9F1
:1055D00039E939E939E939C939C939C939C939C95B
:1055E00039C939C939C939C939C831A831A831A827
:1055F00031A8318731873187318729672967298722
:10560000296729672967296729672946296729673B
:105610002987298831C94A6A8BA8CD4BFF16FFDD3F
:10562000FFFFFFFFFFDDE6B7B54E8B677AE693CC51
:10563000B554CE7AE73DEF9EE75DB5947B6939427C
:1056400030E130C2288220622862288230C33125AE
:10565000394549864187A515C63962CC39C8318795
:1056600031873187296629462966296629662946B0
:10567000212518E410A31082108210A321042966AA
:1056800031A731A831A718C4212539C83A093A08E9
:105690003A0942084208422942294229422942291C
:1056A000424A3A093A094A4A4A6A4A6A4A6A4A6A84
:1056B0004A6A4A6A4A6A4A6A4A6A4A4A4A4A4A49AB
:1056C0004A6A528A39E939E939E939E939E939E97E
:1056D00039E939E939E939E939E939E939E939E9BA
:1056E00039E939E939E939C931A831A831A831A8EE
:1056F00031A831A8318731873187298729872987C0
:105700002967296729672967296729672967296719
:105710002967318732095ACAAC28DE0FFF99FFB9D1
:10572000EF17CDF3ACEF9C4C8BC9940ECE39EF7DC7
:10573000F7DEF7BEFFBEEF3BE6D9CE158BE951C2CF
:105740004961496338C32042206130A230C32082BE
:1057500061867A2941453104A4F383D041E931A817
:105760003187316729662965212518E410A3108245
:10577000108210A318E421452966318631A739C764
:1057800039E839C731C710C3190439E8420842085B
:105790004229424942494A494A694A6A4A6A4A8A06
:1057A0004A8A4AAB4ACB52CB4AAB4AAB4AAB4AAB2A
:1057B0004AAB52CB52AB52AB528A4A494229424978
:1057C0005B0C630C420939E939E941E941E939E9FE
:1057D00039E939E939E939E939E939E939E939E9B9
:1057E00039E939E939E939E939C939C831A831A87C
:1057F00031A831A8318731873187318731872987AF
:105800002967296729672967296729462967296739
:10581000296739C83A4A6B0BBC69DDCED633C5D28D
:10582000BD31BD72DE97F759EED4EE53EE73DE1143
:10583000DE10EE71F691EE52E653DE539C086222C2
:1058400051816204496428812061288130A260E48A
:1058500068C438422841286152289C9349E931871D
:105860003167212518E410A310A2108218C3212546
:1058700029462966318631A731A731A731A731C71B
:1058800039C739E839E810C318E439E84229422910
:1058900042294A494A694A6A4A6A4A8A52AA4ACB0A
:1058A00052CB52CB52EB52EC52EC5B0C5B2C5B0CB0
:1058B00052EC4AAB422931A729452124214539E838
:1058C0005AEC5AEC4A6B422A39E939E939E939E9A3
:1058D00039E939E939E939E939E939E939E939E9B8
:1058E00039E939E939E939E939C931C939C839C832
:1058F00031A831A831A83187318731873187318785
:1059000029672967296729672967296729672987F7
:1059100031C8422A4ACD6B6C83268B669C4FC5D614
:10592000EF18FFD9FFF8FF74FEAFEDEAE569DD4837
:10593000DD8AEE0DEE0EEE30F694CD7083466202F7
:1059400051814961416228E120812061288299EAE0
:10595000792728412841286230C36AAB3987292535
:10596000210418C418E419042145296629863186C2
:10597000318631863186318631A731A739C739C79B
:1059800039C839E839E810C318E442084A494A4995
:105990004A494A6A4A6A4A8A528A52AB52CB52EC04
:1059A0005B0C5B2D634D634D5B2C52CB424929A7A9
:1059B000192410C310A318E3214539E84A4952AB12
:1059C00052AB52AB5AED52AC422A39E939E939E9C6
:1059D00039E939E939E939E939E939E939E939E9B7
:1059E00039E939E939E939E939E939E939C839C8E9
:1059F00031C831A831A831A831A831A83187298709
:105A0000296729672967294629672987298731A8AE
:105A10003A094A6B5B6F73F05A658349D638F7577A
:105A2000FF52FF51FF11FECFEE4CE5CADD69D529CB
:105A3000D54ADDACE60EEE2FC50D7AC65A0259C125
:105A400051814961416231232061186120417948C7
:105A500079073041306128A228C351E8398731875E
:105A6000296629662966318631862986296629664E
:105A70003186318731A731A731C731C739C739E7F7
:105A800039E839E83A0818E418E442284A694A69CA
:105A90004A6A4A8A528A52AB5ACB5AEB5B0C5B2D4C
:105AA0005B0C52CB3A4929A6190410A308A210E4B2
:105AB00021663A084A8A5B0C632C632C5B0C5AEB18
:105AC00052AB52AB630D5AED528C420A39E9420A8D
:105AD000420A420A420A41E941E941E9420A41E9EE
